:020000040800F2
:10000000C005002001240008555500085755000878
:100010005B5500085F5500086355000800000000AC
:10002000000000000000000000000000675500080C
:1000300069550008000000006B5500086D55000868
:100040001B2400081B2400081B2400081B24000894
:100050001B2400081B2400081B24000871550008FD
:100060001B2400081B2400081B2400081B24000874
:100070001B2400081B2400081B2400081B24000864
:100080001B2400081B2400081B2400081B24000854
:100090001B2400081B2400081B2400082754000808
:1000A0001B2400080D6300081B2400081B24000803
:1000B0009B5C0008335E0008C15F00081B24000839
:1000C0001B2400081B2400081B2400081B24000814
:1000D0001B2400086F5500081B2400081B2400087F
:1000E0001B2400081B2400081B2400081B240008F4
:1000F000B56300081B2400081B2400081B2400080B
:100100001B2400081B240008BB6000081B240008F7
:100110001B2400081B240008F16100085B62000832
:100120001B2400081B2400081B2400081B240008B3
:10013000DFF810D006F00EFB0048004743540008DB
:10014000AFF30080C00500200CB5002001900090A6
:100150006C48006840F480306A49086000BF694814
:10016000006800F4003000900198401C0190009855
:1001700018B90198B0F5A06FF1D16248006800F499
:10018000003010B10120009001E0002000900098A4
:10019000012843D15C48006840F010005A490860CB
:1001A0000846006820F0030008600846006840F038
:1001B0000200086053484068524948600846406859
:1001C00048600846406840F48060486008464068DF
:1001D00020F47C1048600846406840F4E81048600D
:1001E0000846006840F08070086000BF454800681D
:1001F00000F000700028F9D04248406820F0030069
:10020000404948600846406840F00200486000BF2E
:100210003C48406800F00C000828F9D10CBD10B52E
:10022000FFF792FF10BD10B53648006840F001009E
:1002300034490860084640683449084031494860FC
:1002400008460068324908402E49086008460068A0
:1002500020F4802008600846406820F4FE004860D2
:100260004FF41F008860FFF7DAFF4FF00060294964
:10027000086010BD10B5002100200022214B5B68F2
:1002800003F00C0121B1042906D0082928D107E088
:10029000214B224C236027E01F4B204C236023E09E
:1002A000184B5B6803F47010164B5B6803F48032E4
:1002B000022303EB904022B9194B4343174C2360B0
:1002C0000DE0104B5B6803F4003323B1144B434340
:1002D000124C236003E0104B4343104C236003E0B7
:1002E0000D4B0E4C236000BF00BF064B5B68C3F391
:1002F00003130C4CE15C094B1B68CB40074C23609B
:1003000010BD000000100240002002400000FFF875
:10031000FFFFF6FE08ED00E000127A00000000206A
:1003200000093D000400002031490143314A1160B9
:10033000704770B5002100230F22C47804B32D4C00
:10034000246804F4E064C4F5E064210AC1F1040304
:10035000CA40447804FA03F1847814402143090127
:10036000254C0678A155047804F01F050124AC4003
:1003700005786D11AD0005F1E025C5F8004109E0F3
:10038000047804F01F050124AC401C4D067876115A
:1003900045F8264070BD1A4A0A400243154B1B1F00
:1003A0001A60704739B1134A121D12680243114B8B
:1003B0001B1D1A6006E00F4A121D126882430D4B86
:1003C0001B1D1A607047042808D14FF0E02109690D
:1003D00041F004014FF0E022116107E04FF0E0210D
:1003E000096921F004014FF0E0221161704700001B
:1003F0000000FA050CED00E000E400E080E100E020
:1004000080FFFF1F002044490860091D0860091D86
:100410000860091D086041483F4914310860704771
:1004200000213D498279002A3AD00A4612680368C1
:100430009A430B461A600A1D126803689A430B1D03
:100440001A60027911440A6803681A430A60324A42
:100450000832126803689A432F4B08331A601A1D3A
:10046000126803689A432C4B0C331A604279102AA5
:100470000ED11A1F126803681A43274B08331A60FB
:100480001A1D126803681A43234B0C331A600DE0DF
:100490002149427911440A6803681A430A6005E059
:1004A000027911440A6803689A430A607047002180
:1004B000016001710C214171002181717047164961
:1004C000103109680143144A103211607047014627
:1004D0000020114A143212680A400AB1012000E0DB
:1004E000002070470C491431086070470146002015
:1004F0000022094B1B6803EA0102074B14331B68F7
:100500000B4013B10AB1012000E0002070470249FE
:10051000143108607047000000040140FFFF0F0025
:1005200010B50446CC48844208D10121042000F0D3
:100530002DFB0021042000F029FB46E0C74884423F
:1005400008D10121082000F021FB0021082000F043
:100550001DFB3AE0C248844208D10121102000F07E
:1005600015FB0021102000F011FB2EE0BD48844255
:1005700008D10121202000F009FB0021202000F0FB
:1005800005FB22E0B848844208D10121402000F058
:10059000FDFA0021402000F0F9FA16E0B348844249
:1005A00008D10121802000F0F1FA0021802000F024
:1005B000EDFA0AE0AE48844207D10121801500F02F
:1005C000E5FA0021A01500F0E1FA10BD10B50121F7
:1005D000084600F0DBFA0021012000F0D7FA10BD38
:1005E0002DE9F041024600250026002000230024CA
:1005F000002791F803C00CF00F0591F803C00CF030
:10060000100CBCF1000F03D091F802C04CEA0505B4
:1006100091F800C0BCF1000F31D0146800202BE02D
:100620004FF0010C0CFA00F3B1F800C00CEA03061D
:100630009E4220D183004FF00F0C0CFA03F7BC430D
:1006400005FA03FC4CEA040491F803C0BCF1280F3E
:1006500006D14FF0010C0CFA00FCC2F814C00AE0FD
:1006600091F803C0BCF1480F05D14FF0010C0CFA12
:1006700000FCC2F810C0401C0828D1D31460B1F8A7
:1006800000C0BCF1FF0F34DD546800202EE000F103
:10069000080C4FF0010808FA0CF3B1F800C00CEA9E
:1006A00003069E4221D183004FF00F0C0CFA03F792
:1006B000BC4305FA03FC4CEA040491F803C0BCF106
:1006C000280F05D100F1080C08FA0CF8C2F81480C4
:1006D00091F803C0BCF1480F07D100F1080C4FF0AE
:1006E000010808FA0CF8C2F81080401C0828CED384
:1006F0005460BDE8F0814FF6FF71018002218170E6
:100700000421C17070470246002093680B400BB172
:10071000012000E0002070470146886880B27047E1
:1007200002460020D3680B400BB1012000E00020FE
:1007300070470146C86880B27047016170474161E7
:1007400070470AB1016100E041617047C1607047C4
:100750004FF480320A4382618161826182698269D9
:10076000704702460020434B18684FF680731840CC
:1007700040EA021008433F4B186070473E49C86189
:100780007047F0B50A46002300240021002500F040
:100790000046B6F1004F02D1364EF16901E0354E08
:1007A0007168C0F3034583B200F44016B6F5401FEC
:1007B00008D121F070612F4E766826F070662D4FBB
:1007C0007E6012E000F48016B6F5801F06D1032685
:1007D00006FA05F4A14341F0706106E0460D3601CA
:1007E00003FA06F6B14341F0706122B1460D3601BD
:1007F00003FA06F6314300F00046B6F1004F02D18D
:100800001C4EF16101E01B4E7160F0BD30B500225D
:100810008B071C0F0F2303FA04F2164B08338C10BE
:1008200053F824309343134C08348D1044F825308A
:1008300023468C1053F824308C07240F00FA04F45C
:1008400023430C4C08348D1044F8253030BD0A4940
:10085000DC3108607047000000080140000C0140D6
:10086000001001400014014000180140001C01402C
:10087000002001400000014000002042DF480068E5
:1008800040F00100DD49086008464068DC49084046
:10089000DA49486008460068DA490840D7490860E4
:1008A0000846006820F4802008600846406820F46C
:1008B000FE0048604FF41F0088607047CF49096808
:1008C00021F48031CD4A11601146096821F480215C
:1008D0001160B0F5803F03D0B0F5802F0ED106E057
:1008E000C649096841F48031C44A116007E0C34930
:1008F000096841F4A021C14A116000E000BF00BFB7
:10090000704710B501460022002300204A11012A39
:1009100002D1BA4C236806E0022A02D1B74C236AFE
:1009200001E0B64C636A01F01F02012494401C40B0
:100930000CB1012000E0002010BD38B5002000906F
:100940000024002500BF3120FFF7DBFF054600989B
:10095000401C00900098B0F5A06F01D0002DF2D09F
:100960003120FFF7CEFF08B1012400E0002420462B
:1009700038BD01460020A14A106820F0F80040EA86
:10098000C10010607047A04908607047024600200F
:100990009A4B586820F47C1042EA01031843974BA5
:1009A0005860704798490866704701460020934A8E
:1009B000506820F003000843506070478F4840683B
:1009C00000F00C007047014600208C4A506820F06F
:1009D000F00008435060704701460020874A506885
:1009E00020F4E06008435060704701460020834ACD
:1009F000506820F4605040EAC1005060704729B14F
:100A00007E4A527A02437D4B5A7204E07B4A527A04
:100A100082437A4B5A7270477B49D83108607047DD
:100A200001460020754A506820F440400843506059
:100A300070470021714A20321170704A82F82010EC
:100A4000012802D004280AD104E001216B4A203297
:100A5000117005E00521694A2032117000E000BFE5
:100A600000BF70476949086070476449096A0143DB
:100A7000624A11627047654944390860704730B571
:100A800000210022002400235C4D6D6805F00C015C
:100A900021B1042905D0082923D105E05C4D05606A
:100AA00022E05B4D05601FE0544D6D6805F4701247
:100AB000524D6D6805F48034022505EB92421CB955
:100AC000544D554305600BE04C4D6D6805F4003501
:100AD0001DB1504D5543056002E04D4D5543056035
:100AE00002E04B4D056000BF00BF444D6D6805F04E
:100AF000F0010909484D6B5C0568DD4045603F4DDC
:100B00006D6805F4E061090A434D6B5C4568DD40A2
:100B100085603A4D6D6805F46051C90A3E4D6B5CC5
:100B20004568DD40C560354D6D6805F44041890B71
:100B30003A4D6B5CC568B5FBF3F5056130BD29B175
:100B40002E4A526902432D4B5A6104E02B4A5269E6
:100B500082432A4B5A61704729B1284A926902435D
:100B6000264B9A6104E0254A92698243234B9A619D
:100B7000704729B1214AD2690243204BDA6104E06F
:100B80001E4AD26982431D4BDA61704729B11B4A64
:100B9000D2680243194BDA6004E0184AD2688243F3
:100BA000164BDA60704729B1144A12690243134B9D
:100BB0001A6104E0114A12698243104B1A617047AE
:100BC00012494039086070470F49C86470470B49A3
:100BD000C87170470948406A40F080700749486210
:100BE000704701460020054A92680A400AB1012078
:100BF00000E00020704701498872704700100240F1
:100C00000000FFF8FFFFF6FE00004242800442426F
:100C100000127A0000093D0014000020240000208A
:100C200010B50446FE48844208D10121C014FFF7E4
:100C3000ADFF0021E014FFF7A9FFC4E0B4F1804F3D
:100C400008D101210846FFF7AEFF00210120FFF780
:100C5000AAFFB8E0F348844208D101210220FFF73F
:100C6000A2FF00210220FFF79EFFACE0EE48844285
:100C700008D101210420FFF796FF00210420FFF78F
:100C800092FFA0E0E948844208D101210820FFF743
:100C90008AFF00210820FFF786FF94E0E4488442A1
:100CA00008D101211020FFF77EFF00211020FFF75F
:100CB0007AFF88E0DF48844208D101212020FFF735
:100CC00072FF00212020FFF76EFF7CE0DA488442AB
:100CD00008D101214014FFF759FF00216014FFF7EC
:100CE00055FF70E0D548844209D10121C804FFF7BF
:100CF0004DFF00214FF40020FFF748FF63E0D0488C
:100D0000844209D101210805FFF740FF00214FF47B
:100D10008010FFF73BFF56E0CA48844209D1012109
:100D20004805FFF733FF00214FF40010FFF72EFFB7
:100D300049E0C548844208D101214020FFF733FF34
:100D400000214020FFF72FFF3DE0C048844208D13A
:100D500001218020FFF727FF00218020FFF723FFDC
:100D600031E0BB48844208D101218015FFF71BFF09
:100D70000021A015FFF717FF25E0B648844209D1EE
:100D800001210804FFF702FF00214FF48030FFF734
:100D9000FDFE18E0B048844209D101214804FFF764
:100DA000F5FE00214FF40030FFF7F0FE0BE0AB48FA
:100DB000844208D101218804FFF7E8FE00214FF4A6
:100DC0008020FFF7E3FE10BD00220288944B98427A
:100DD0000ED0994B98420BD0B0F1804F08D0914B78
:100DE000984205D0904B984202D0904B984204D143
:100DF0004FF68F731A404B881A438D4B984207D099
:100E00008C4B984204D04FF6FF431A40CB881A43CC
:100E100002808B8883850B880385814B98420BD099
:100E2000854B984208D08B4B984205D08A4B98420C
:100E300002D08A4B984201D10B7A03860123838228
:100E4000704770B5002400220023058C4FF6FE7613
:100E500035400584028C8388048B4FF68F752C40B7
:100E6000B51E2C400D882C43751E2A400D892A433F
:100E70004D882A436A4DA8420BD06F4DA84208D036
:100E8000744DA84205D0744DA84202D0734DA842BB
:100E900013D14FF6F7752A404D892A434FF6FB755B
:100EA0002A408D882A434FF6FF652B404FF6FF55A9
:100EB0002B408D892B43CD892B4383800483CD88A0
:100EC0008586028470BD70B5002400220023058C45
:100ED0004FF6EF7635400584028C8388048B48F604
:100EE000FF752C404FF6FF452C400D884FF6FF76DE
:100EF00006EA05252C434FF6DF752A400D8906EAE0
:100F000005152A434D8806EA05152A43444DA84293
:100F100002D0494DA8421DD14FF67F752A404D8918
:100F20004FF6FF7606EA05152A434FF6BF752A40AD
:100F30008D8806EA05152A434FF6FF352B404FF200
:100F4000FF752B408D8906EA85052B43CD8906EA7E
:100F500085052B4383800483CD880587028470BD7B
:100F600070B5002400220023058C4FF6FF66354043
:100F70000584028C8388848B4FF68F752C404FF646
:100F8000FC752C400D882C434FF6FF552A400D89E7
:100F90004FF6FF7606EA05252A434D8806EA052521
:100FA0002A431F4DA84202D0234DA8421DD14FF223
:100FB000FF752A404D894FF6FF7606EA05252A433C
:100FC0004FF6FF352A408D8806EA05252A434EF65E
:100FD000FF752B404DF6FF752B408D8906EA0515F0
:100FE0002B43CD8906EA05152B4383808483CD8866
:100FF0008587028470BD70B5002200230024058C13
:101000004EF6FF7635400584038C8488828B48F643
:10101000FF752A404FF6FF452A400D8820E000006A
:10102000002C01400004004000080040000C00407B
:10103000001000400014004000340140004C01400A
:10104000005001400054014000180040001C0040C6
:1010500000200040004001400044014000480140A1
:101060004FF6FF7606EA05252A434DF6FF752B401D
:101070000D8906EA05352B434D8806EA05352B43D5
:10108000FA4DA84202D0FA4DA84208D14BF6FF759E
:101090002C408D894FF6FF7606EA85152C43848017
:1010A0008283CD88A0F84050038470BD828B4FF2BC
:1010B000FF331A408283828B4FF6FF7303EA0123CA
:1010C0001A4382837047F0B50C4615460022002172
:1010D0000026078C4EF6FF7C07EA0C070784828BFC
:1010E000018C4FF6FF7707EA043640F6FF473A4097
:1010F0004FF6FF7707EA05273A434FF6FF7707EAEF
:1011000003373A43D94FB8420ED0D94FB8420BD02B
:10111000B0F1804F08D0D74FB84205D0D64FB84273
:1011200002D0D64FB84206D14DF6FF77394046F48B
:101130008057394305E047F6FF57394044F480575C
:10114000394382830184F0BD828B4FF6F3731A40DA
:101150008283828B0A4382837047F0B50C46154622
:10116000002200210026078C4FF6FF6C07EA0C07CF
:101170000784828B018C4FF6FF7707EA04264FF62F
:101180000C773A404FF6FF7707EA03172F433A43AD
:10119000B64FB8420ED0B64FB8420BD0B0F1804F28
:1011A00008D0B44FB84205D0B34FB84202D0B34FC5
:1011B000B84206D14FF6FF57394046F4807739439D
:1011C00005E04FF2FF57394044F48077394382837A
:1011D0000184F0BD028B4FF2FF331A400283028B71
:1011E0004FF6FF7303EA01231A4302837047F0B5F9
:1011F0000C461546002200210026078C4FF6EF7C96
:1012000007EA0C070784028B018C4FF6FF7707EA89
:10121000041640F6FF473A404FF6FF7707EA0337D8
:101220003A434FF6FF7707EA05273A438F4FB84214
:101230000ED08F4FB8420BD0B0F1804F08D08D4FF9
:10124000B84205D08C4FB84202D08C4FB84206D17C
:101250004FF6DF77394046F01007394305E04FF687
:101260005F77394044F01007394302830184F0BDB1
:10127000028B4FF6F3731A400283028B0A430283F8
:101280007047F0B50C46154600220021068C4FF63B
:10129000FE773E400684028B018C4FF60C7632407E
:1012A0007E1C06EA03162E433243704EB0420ED027
:1012B0006F4EB0420BD0B0F1804F08D06D4EB042AF
:1012C00005D06D4EB04202D06C4EB04206D14FF602
:1012D000FD76314044F00106314305E04FF6F576E6
:1012E000314044F00106314302830184F0BD70B502
:1012F00005460C465D4885420ED05D4885420BD0C0
:10130000B5F1804F08D05B48854205D05A488542E8
:1013100002D05A48854200D100E000BF208850B971
:101320002389A28861882846FFF7ABFFE188284619
:10133000FFF79EFF25E0208804280AD12389A28890
:1013400061882846FFF753FFE1882846FFF742FFF0
:1013500017E0208808280AD12389A28861882846B6
:10136000FFF7FBFEE1882846FFF7EEFE09E0238940
:10137000A28861882846FFF7A6FEE1882846FFF785
:1013800095FE70BD2DE9F04105460C46002601276B
:10139000608808B9022600E00026A088012801D153
:1013A000022700E001272088A0B92389A28861884C
:1013B0002846FFF766FFE1882846FFF759FF238993
:1013C0003A4631462846FFF712FFE1882846FFF7E4
:1013D00001FF13E02389A28861882846FFF707FFF1
:1013E000E1882846FFF7F6FE23893A46314628462B
:1013F000FFF747FFE1882846FFF73AFFBDE8F08195
:101400000A884B881A438B881A43CB881A430B8966
:101410001A434B891A438B891A43A0F8442070471A
:101420004FF6FF71818000210180C18041800172EF
:1014300070470021018041808180C180018141810C
:101440008181C1817047002101804180012181801B
:101450000021C1800181704700210180418081808D
:10146000C18001814181818170470000002C0140D1
:10147000003401400004004000080040000C00401F
:1014800021B1028842F00102028004E002884FF696
:10149000FE731A400280704731B1B0F8442042F424
:1014A0000042A0F8442005E0B0F84420C2F30E0248
:1014B000A0F8442070471AB183890B43838102E06E
:1014C00083898B43838170478182704741EA02039D
:1014D000A0F8483070471AB183890B43838102E03A
:1014E00083898B438381704701894FF6F8721140DD
:1014F000018170470A46002101894FF68F73194018
:1015000011430181704730B504460D4629462046F7
:10151000FFF7F0FF208940F00700208130BD2DE962
:10152000F04104460D4616461F46602D06D13B4647
:10153000012231462046FFF75AFE05E03B460122D4
:1015400031462046FFF79DFE29462046FFF7D2FF91
:10155000208940F007002081BDE8F08130B50C46BD
:1015600000210189C9B24FF6FF7505EA032515432D
:1015700025432943018130BD2DE9F04105460E4642
:1015800017469846002443463A4631462846FFF718
:10159000E5FF2C894FF6F870044044F007044FF63D
:1015A0008F70044044F070042C81BDE8F081F0B5E8
:1015B00004460D4616461F463B46324629462046FF
:1015C000FFF7CCFF208940F480402081F0BD0185E9
:1015D000828270470A46002101884FF68F731940B6
:1015E000114301807047F0B50C4615461E46002198
:1015F000002200230189028B038C4FF6F8773940D3
:1016000021434FF6FC473A4040F201173A434FF668
:10161000DD773B404FF6FF7707EA06172F433B4342
:10162000018102830384F0BD0A460021018B4FF63D
:101630008F7319401143018370470A460021018BC3
:1016400048F6FF7319404FF6FF7303EA022319436C
:10165000018370470A460021818B4FF68F73194032
:101660001143818370470A460021818B48F6FF733E
:1016700019404FF6FF7303EA022319438183704731
:1016800021B1028842F08002028004E002884FF615
:101690007F731A400280704721B1828842F00402B1
:1016A000828004E082884FF6FB731A408280704784
:1016B00021B1828842F00802828004E082884FF6DD
:1016C000F7731A408280704721B1828842F001028C
:1016D000828004E082884FF6FE731A408280704751
:1016E0000A460021018B4FF6F7731940114301831D
:1016F00070470A460021018B4FF2FF7319404FF6E5
:10170000FF7303EA02231943018370470A4600214D
:10171000818B4FF6F77319401143818370470A4656
:101720000021818B4FF2FF7319404FF6FF7303EADC
:1017300002231943818370470A460021018B4FF62B
:10174000FB7319401143018370470A460021018B46
:101750004FF6FF3319404FF6FF7303EA0223194394
:10176000018370470A460021818B4FF6FB731940B5
:101770001143818370470A460021818B4FF6FF3366
:1017800019404FF6FF7303EA022319438183704720
:101790000A460021018B4FF67F73194011430183E4
:1017A00070470A460021018BC1F30E014FF6FF730B
:1017B00003EA02231943018370470A460021818B03
:1017C0004FF67F7319401143818370470A46002109
:1017D000818BC1F30E014FF6FF7303EA0223194315
:1017E000818370470A460021018C4FF6FD73194032
:1017F0001143018470470A460021018C4FF6F773AC
:1018000019401143018470470A460021018C4FF6AC
:10181000DF7319404FF6FF7303EA02131943018483
:1018200070470A460021018C4FF67F7319404FF62E
:10183000FF7303EA02131943018470470A4600212B
:10184000018C4FF6FF5319404FF6FF7303EA022352
:101850001943018470470A460021018C4FF2FF733F
:1018600019404FF6FF7303EA0223194301847047BE
:101870000A460021018C4DF6FF7319404FF6FF73A5
:1018800003EA023319430184704730B50023012471
:101890008C40A3B2048C9C430484048C02FA01F5AE
:1018A000ADB22C43048430BD30B5002304248C40F9
:1018B000A3B2048C9C430484048C02FA01F5ADB2FB
:1018C0002C43048430BD70B5034600200024184624
:1018D000183001258D40ACB21D8CA5431D8409B183
:1018E000082909D100EB6100056825F07005056045
:1018F0000568154305600EE00D1FC5F34E0528442D
:10190000056825F4E045056005684FF6FF7606EAB0
:1019100002263543056070BD21B1028842F0020203
:10192000028004E002884FF6FD731A40028070477F
:1019300021B1028842F00402028004E002884FF6DE
:10194000FB731A400280704721B1828842F0800206
:10195000828004E082884FF67F731A40828070474D
:1019600002884FF6F7731A40028002880A43028009
:10197000704782884FF68F731A40828082880A43AC
:101980008280704702894FF6F8731A4002810289FB
:101990000A430281704702894FF67F731A40028121
:1019A00002890A43028170478184704781857047AC
:1019B000818670470187704781877047A0F8401083
:1019C000704702884FF6FF431A40028002880A439C
:1019D000028070470146888E70470146088F704725
:1019E0000146888F70470146B1F8400070470146B4
:1019F000888C70470146088D704702460020138A84
:101A00000B400BB1012000E000207047CA43028266
:101A1000704730B50246002000230024158A05EAED
:101A20000103958905EA010413B10CB1012000E01E
:101A3000002030BDCA4302827047000010B5044642
:101A4000FB48844209D101218803FFF79FF8002158
:101A50004FF48040FFF79AF832E0F648844209D10B
:101A600001214804FFF79FF800214FF40030FFF7F1
:101A70009AF825E0F048844209D101218804FFF753
:101A800092F800214FF48020FFF78DF818E0EB4822
:101A9000844209D10121C804FFF785F800214FF4E1
:101AA0000020FFF780F80BE0E548844208D10121CF
:101AB0000805FFF778F800214FF48010FFF773F85E
:101AC00010BD2DE9F04786B005460E460024A2461B
:101AD00000BFA1460027B08900B100BF2F462C8A65
:101AE0004CF6FF700440F08804432C82AC894EF61B
:101AF000F3100440B08831890843718908430443D6
:101B0000AC81AC8A4FF6FF400440B0890443AC82FC
:101B100001A8FEF7B4FFC648874202D1DDF810A045
:101B200001E0DDF80CA0A88900F4004040B10AEB08
:101B3000CA0000EB0A1031684900B0FBF1F807E079
:101B40000AEBCA0000EB0A1031688900B0FBF1F81B
:101B50006420B8FBF0F004012009642101FB108926
:101B6000A88900F4004040B1322000EBC900B0FB6E
:101B7000F1F000F00700044308E0322000EB091008
:101B80006421B0FBF1F000F00F0004432C8106B09B
:101B9000BDE8F0874FF41651016000218180C180BB
:101BA00001810C21418100218181704710B50246DD
:101BB0000020108A4FF2FF0318400B884C88234303
:101BC0008C882343CC8823431843108210BD002106
:101BD000018041808180C180704721B1828942F4B7
:101BE0000052828104E082894DF6FF731A4082819F
:101BF0007047F0B50346002400260025002040F67B
:101C00006A17B94200D100BF1846C1F3421401F06F
:101C10001F06012707FA06F5012C01D10C3004E05C
:101C2000022C01D1103000E014301AB107682F43A4
:101C3000076002E00768AF430760F0BD1AB1838A0E
:101C40000B43838202E0838A8B4383827047028A3C
:101C50004FF6F0731A400282028A0A4302827047EA
:101C600082894FF2FF731A40828182890A438281FE
:101C7000704721B1828942F00202828104E08289A8
:101C80004FF6FD731A4082817047028A4FF6DF7368
:101C90001A400282028A0A430282704721B1028AF4
:101CA00042F48042028204E0028A4BF6FF731A403B
:101CB00002827047C1F3080282807047014688881B
:101CC000C0F308007047818941F0010181817047AC
:101CD000028BD2B20283028B42EA01220283704756
:101CE000028B02F47F420283028B0A430283704715
:101CF00021B1828A42F02002828204E0828A4FF679
:101D0000DF731A408282704721B1828A42F010024A
:101D1000828204E0828A4FF6EF731A408282704713
:101D200021B1828A42F00802828204E0828A4FF660
:101D3000F7731A408282704721B1828942F40042CF
:101D4000828103E08289C2F30E028281704721B151
:101D5000828A42F40062828204E0828A4FF2FF7338
:101D60001A4082827047828A4FF6FB731A40828241
:101D7000828A0A438282704721B1828A42F002023B
:101D8000828204E0828A4FF6FD731A408282704795
:101D900002460020B1F5007F00D100BF13880B4040
:101DA0000BB1012000E00020704701F40072B2F591
:101DB000007F00D100BFCA430280704770B5024661
:101DC000002400230025002040F66A16B14200D10D
:101DD00000BFC1F3421501F01F03012606FA03F309
:101DE000012D02D19689334006E0022D02D1168AD8
:101DF000334001E0968A33400C12012606FA04F4BF
:101E00001688344013B10CB1012000E0002070BDF1
:101E100010B50022002340F66A14A14200D100BF91
:101E20000A1201249440A3B2DC43048010BD0000D8
:101E3000003801400044004000480040004C004091
:101E40000050004001460020FE4A106800F03800B3
:101E5000084310607047FB49096821F00801F94AFE
:101E6000116011460968014311607047F54909681E
:101E700021F01001F34A1160114609680143116015
:101E80007047F148EF494860F04848607047EE48B5
:101E9000EC494860ED4848607047EA48006940F006
:101EA0008000E84908617047E648006940F080001A
:101EB000E449086170470420E249C96801F0010162
:101EC00009B101200EE0DF49C96801F0040109B140
:101ED000022007E0DB49C96801F0100109B10320C5
:101EE00000E00420704700B502460423FFF7E3FF3B
:101EF000034603E0FFF7DFFF0346521E012B01D12B
:101F0000002AF7D102B90523184600BD30B50446B2
:101F100004254FF43020FFF7E6FF0546042D17D1C6
:101F2000C848006940F00200C6490861084644619B
:101F3000006940F0400008614FF43020FFF7D3FF04
:101F40000546C048006941F6FD710840BD49086179
:101F5000284630BD10B504244FF43020FFF7C3FFEE
:101F60000446042C16D1B748006940F00400B54976
:101F700008610846006940F0400008614FF43020D5
:101F8000FFF7B1FF0446AF48006941F6FB71084016
:101F9000AC490861204610BD00B502460423FFF796
:101FA0008AFF034603E0FFF786FF0346521E012B1C
:101FB00001D1002AF7D102B90523184600BD10B59A
:101FC00004244FF43020FFF7E7FF0446042C16D119
:101FD0009C48006940F004009A490861084600697D
:101FE00040F0400008614FF43020FFF7D5FF044671
:101FF0009448006941F6FB71084092490861204607
:1020000010BD00208F49C96901F0020109B101200A
:1020100000E00020704730B5A5250424FFF7F1FF4C
:1020200000B100254FF43020FFF75DFF0446042C7B
:102030003AD18548834988608448886008460069A9
:1020400040F0200008610846006940F04000086147
:102050004FF43020FFF747FF0446042C1BD179488A
:10206000006941F6DF710840764908610846006959
:1020700040F01000086176480580E002FFF733FF6A
:102080000446052C10D06F48006941F6EF710840F6
:102090006C49086108E0052C06D06A48006941F6E1
:1020A000EF71084067490861204630BD78B50646A3
:1020B0000C46042500200090E802FFF714FF0546B7
:1020C000042D24D15F48006940F001005D4908619A
:1020D0003480E802FFF707FF0546042D10D1B01C3D
:1020E0000090200C00990880E802FFF7FCFE0546EE
:1020F0005448006941F6FE7108405249086106E003
:102100005048006941F6FE7108404E490861284672
:1021100078BD70B504460D460426F002FFF7E3FED5
:102120000646042E11D14748006940F00100454998
:1021300008612580F002FFF7D6FE06464148006997
:1021400041F6FE7108403F490861304670BD70B5E8
:1021500005460E460424E002FFF7C5FE0446042CA3
:1021600017D139483749886038488860084600697F
:1021700040F0100008612E80E002FFF7B4FE044634
:10218000052C06D02F48006941F6EF7108402D4913
:102190000861204670BD2DE9F04304464FF6FF76F6
:1021A0003746B046B1460425E443E6B2C4F30727F8
:1021B000C4F307484FEA1469E802FFF794FE0546A6
:1021C000042D49D120481F4988602048886008466E
:1021D000006940F010000861FF2E06D01C4808304E
:1021E0000680E802FFF77FFE0546042D08D1FF2F89
:1021F00006D017480A300780E802FFF774FE05464C
:10220000042D0AD1B8F1FF0F07D011480C30A0F807
:102210000080E802FFF767FE0546042D0AD1B9F1F8
:10222000FF0F07D00A480E30A0F80090E802FFF731
:102230005AFE0546052D0FD00248006941F6EF71A0
:10224000084007E00020024023016745AB89EFCD3D
:1022500000F8FF1F664908612846BDE8F08330B5E5
:10226000054604244FF43020FFF73DFE0446042CBD
:1022700041D160485E4988605F48886008460069CF
:1022800040F0200008610846006940F04000086105
:102290004FF43020FFF727FE0446042C22D1544887
:1022A000006941F6DF71084051490861084600693C
:1022B00040F0100008611DB100205049088002E084
:1022C000A5204E4908804FF43020FFF70CFE04464D
:1022D000052C10D04648006941F6EF71084044498A
:1022E000086108E0052C06D04148006941F6DF711D
:1022F00008403F490861204630BDF0B505460E460E
:10230000174604243B483A4988603B488860E0020D
:10231000FFF7E9FD0446042C19D13548006940F067
:1023200010003349086147F0F8003043284333492F
:10233000891C0880E002FFF7D6FD0446052C06D074
:102340002B48006941F6EF71084029490861204691
:10235000F0BD2748C069800870472548006A70476B
:1023600000202349096801F0200109B1012000E0A3
:102370000020704729B11E4A126902431C4B1A61A2
:1023800004E01B4A12698243194B1A6170470146E7
:102390000020012908D1164AD26902F001020AB1CF
:1023A000012008E0002006E0114AD2680A400AB184
:1023B000012000E0002070470D49C86070470420EC
:1023C0000B49C96801F0010109B101200EE008497B
:1023D000C96801F0040109B1022007E00449C96895
:1023E00001F0100109B1032000E004207047000053
:1023F0000020024023016745AB89EFCD00F8FF1FA5
:102400000648804706480047FEE7FEE7FEE7FEE78E
:10241000FEE7FEE7FEE7FEE7FEE7FEE7270200082D
:102420003101000810B5FEF729FA4FF48030FEF7AD
:1024300045FAFEF782FAFE4908700846007801283E
:1024400026D11020FFF712FD0220FFF7FBFC002031
:10245000FEF7B9FA4FF48060FEF7BEFA0020FEF7EF
:10246000C4FA4FF4E0114FF48030FEF78FFA0120E8
:10247000FEF798FA00BF3920FEF743FA0028FAD099
:102480000220FEF792FA00BFFEF798FA0828FBD167
:1024900001217D20FEF760FB01210846FEF769FB64
:1024A00001210220FEF765FB01210420FEF761FBFC
:1024B00001210820FEF75DFB01218803FEF74CFB9C
:1024C00010BD10B500214FF00060FDF764FF4FF420
:1024D000E060FDF729FF4FF4C060FDF725FF1C20E9
:1024E000D44908700020487088700120C8700846E0
:1024F000FDF71FFF3220CF490870002048700120EF
:102500008870C8700846FDF714FF4FF4A060FDF70F
:102510000BFF1D20C74908700020487088700120FB
:10252000C8700846FDF705FF4FF48060FDF7FCFE1C
:102530001E20C04908700020487088700120C870B3
:102540000846FDF7F6FE10BD10B54FF08040FEF7CF
:1025500067FB6320B849888041F61F40088000204F
:10256000C88048804FF08040FEF72EFC012188078C
:10257000FFF74CFA012211469007FEF79CFF00215D
:102580004FF08040FEF77CFF10BD10B54FF6FF7096
:10259000A949888000200880C8804880A748FEF7A5
:1025A00013FC00231A461946A448FFF700F800213F
:1025B000A248FFF7F9F901221146A048FEF77BFF78
:1025C00000219E48FEF75CFF10BD10B59C48FEF749
:1025D00027FB00209849088048804FF6FF708880CC
:1025E0000020C88008729648FEF7EEFB01224721C2
:1025F0009348FEF7ECFF00219148FFF741F80021D6
:102600008F48FFF7D1F900218D48FEF739FF10BD43
:1026100010B58C48FEF704FB09208749888041F6F5
:102620001F4008800020C88048808648FEF7CCFB09
:1026300001218448FFF7EAF9012211468148FEF79B
:102640003AFF00217F48FEF71BFF10BD10B54FF485
:10265000E1307D49086000208880C8800881888139
:102660000C2048817948FFF72CFA0020784908802F
:1026700048804FF4007088800020C8807348FFF7BE
:1026800095FA40217148FFF790FB01216F48FFF751
:10269000A4FA10BD10B54FF4BA606E49088003204B
:1026A00088701020C8706C48FDF79AFF10BD10B5F7
:1026B0004FF4007067490880032088701820C870A4
:1026C0006648FDF78DFF4FF4806062490880042062
:1026D000C8706248FDF784FF10BD10B504205D4945
:1026E0000880C8705E48FDF77BFF10BD10B54FF441
:1026F0008050584908800420C8705A48FDF770FF80
:102700004FF40050534908801020C870032088708F
:102710005448FDF765FF10BD10B540204D490880B5
:102720001020C870032088704E48FDF759FF8020A4
:10273000484908801020C870032088704948FDF778
:102740004FFF10BD10B548F20F004249088003202A
:1027500088700420C8704048FDF742FF10BD10B5D6
:10276000044621463C48FDF7CEFF10BD70B5044637
:102770000D4636480088E1B23448FFF79BFA00BFA7
:1027800040213248FFF704FB0028F9D0204670BDF5
:1027900005E0082100BF0A1EA1F10101FBD1021EC4
:1027A000A0F10100F5D1704710B5044603E040F2F6
:1027B0004C40FFF7EDFF201EA4F10104F7D110BD3E
:1027C0002DE9F04107460C461546002619E0802108
:1027D0002448FDF7B2FF3846FFF7DAFF8021214891
:1027E000FDF7ADFF40211F48FDF7A7FF2046FFF78B
:1027F000CFFF40211B48FDF7A2FF1420FFF7D4FFB5
:10280000761CAE42E3D3BDE8F08170B504460025E6
:1028100010211148FDF793FF20210F48FDF78DFF90
:102820004FF480610C48FDF788FF40210A481BE007
:1028300028000020380000208C0100200004004007
:1028400000080040000C0040B001002000380140AA
:102850003C0000202A000020001801400008014030
:102860000014014000100140FDF769FF4FF4807132
:10287000FE48FDF764FF0020FD4908800021FD4867
:10288000FFF792F801218807FEF7FAFD0121F948C8
:10289000FEF7F6FD00BF2088F54909888842FAD185
:1028A00000214FF08040FEF7EBFD0021F148FEF7DC
:1028B000E7FDF048FFF79BF8EF4908804FF480717F
:1028C000EA48FDF73AFF0020E94908800021E9487D
:1028D000FFF76AF801218807FEF7D2FD0121E548DC
:1028E000FEF7CEFD00BF6088E14909888842FAD131
:1028F00000214FF08040FEF7C3FD0021DD48FEF7C8
:10290000BFFDDC48FFF773F8DB4948804021D7481A
:10291000FDF713FF0020D64908800021D548FFF7B6
:1029200043F801218807FEF7ABFD0121D148FEF7EE
:10293000A7FD00BFA088CE4909888842FAD10021AE
:102940004FF08040FEF79CFD0021CA48FEF798FD3D
:10295000C848FFF74CF8C84988804FF48061C348E5
:10296000FDF7EDFEC448838842880188C3A003F0C8
:102970003DFF284670BD10B504461021BB48FDF749
:10298000DEFE2021B948FDF7D8FE4FF48061B7483C
:10299000FDF7D3FE4021B548FDF7D1FE4FF480711D
:1029A000B248FDF7CCFE0020B14908800021B148B3
:1029B000FEF7FAFF01218807FEF762FD0121AD480D
:1029C000FEF75EFD00BFAB48FFF711F8FF28FADB0A
:1029D00000214FF08040FEF753FD0021A548FEF78F
:1029E0004FFDA348008820704FF480719F48FDF789
:1029F000A4FE00209E49088000219E48FEF7D4FFD7
:102A000001218807FEF73CFD01219A48FEF738FDB9
:102A100000BF9848FEF7EBFFFF28FADB00214FF0DC
:102A20008040FEF72DFD00219248FEF729FD9048D9
:102A30000088607040218D48FDF77FFE00208C49A2
:102A4000088000218B48FEF7AFFF01218807FEF7C1
:102A500017FD01218748FEF713FD00BF8548FEF7EB
:102A6000C6FFFF28FADB00214FF08040FEF708FD8B
:102A700000218048FEF704FD7D480088A0704FF4D7
:102A800080617A48FDF75BFEA3786278217883A0A5
:102A900003F0ACFE10BD10B58948FFF7B6FE7648CE
:102AA00083884288018875A003F0A0FE72480088E0
:102AB0005A2816DD704800886F498988401A3C28DA
:102AC0000FDD6D4800886C494988401A3C2808DDB4
:102AD0006948808868494988401A502801DA0320EB
:102AE00010BD654A1288644B9B88D11A002901DB0E
:102AF0000A4600E04A42322A0FDA5F4A12885E4BE9
:102B00005B88D01A002801DB024600E04242322AEC
:102B100003DA594A1288642A1ADC574A5288564BFB
:102B20009B88D21A0F2A07DA534A1288C82A03DD73
:102B3000514A5288502A0BDB4F4A1288C82A09DDB5
:102B40004D4A9288C82A05DD4B4A52880F2A01DA7D
:102B50000220C5E7484A1288474B9B88D11A0029B2
:102B600001DB0A4600E04A421E2A19DA424A12886C
:102B7000414B5B88D01A002801DB024600E042424C
:102B80001E2A0DDA3C4A1288282A09DA3A4A528863
:102B9000282A05DA384A9288282A01DA04209FE791
:102BA000354800883449498888420CDA32488088A0
:102BB00031494988884206DA2F4840882E490988D9
:102BC000401A0A2812DC2C4800882B494988884280
:102BD0000EDA2948808828494988884208DA264838
:102BE000408825490988401A052801DD052077E736
:102BF0002148808820494988401A50280ADD1E480B
:102C000040881D490988401A502803DD1A488088E9
:102C10005A2811DC1848808817494988401A3228F8
:102C20000CDD1548008814494988401A412805DD03
:102C300011484088502801DD012051E700204FE76E
:102C40002DE9F05F04468946A1B21E48FDF777FDE5
:102C50001FFA89F11B48FDF772FD00211A48FEF7A3
:102C6000A3FE1FFA89F1174830E000000018014068
:102C70004400002000040040600000205265643AD7
:102C80002025642020426C75653A20256420204769
:102C90007265656E3A2025640A0000005265642A58
:102CA0002A3A2025642020426C75652A2A3A20257C
:102CB000642020477265656E2A2A3A2025640A003E
:102CC0005A0000200010014000080040FDF735FDCB
:102CD0000A20FFF75DFD1FFA89F1F948FDF72FFD86
:102CE0006420FFF755FD00BFA1B2F548FDF70BFDCD
:102CF0000028F9D00121F348FEF7C2FB00BFA1B2C2
:102D0000EF48FDF700FD0028F9D10021ED48FEF75E
:102D1000B7FBEC48FEF76BFE8346584603F066FCB3
:102D20000746E94AE94B03F0F2FB054603F06FFC66
:102D300082465046BDE8F09F10B50120FFF70FFD19
:102D400001280AD10220FFF72FFD0120FFF707FD20
:102D5000012800D110BD0020FCE70020FAE710B5E3
:102D60000820FFF7FCFC01280DD10220FFF71CFD15
:102D70000220FFF719FD0820FFF7F1FC012800D120
:102D800010BD0020FCE70020FAE770B504460D46B0
:102D90002146CB48FDF7D1FC2846FFF7F9FC214638
:102DA000C748FDF7CCFC70BD10B501241BE04021E5
:102DB000C348FDF7C2FC40F2DC50FFF7E9FC4021BC
:102DC000BF48FDF7BCFC8021BD48FDF7B6FC40F2D2
:102DD000DC50FFF7DDFC8021B948FDF7B0FC142082
:102DE000FFF7E2FC641C022CE1DD10BD10B54FF4CE
:102DF000B9614020FFF7C9FF4FF4B9618020FFF7A8
:102E0000C4FF1420FFF7D0FC10BD10B54FF4BE6115
:102E10004020FFF7BAFF4FF4BE618020FFF7B5FFF7
:102E20001420FFF7C1FC10BD10B5044604E0FFF705
:102E3000DDFF0220FFF7B8FC201EA4F10104F6D14B
:102E400010BD10B5044604E0FFF7DFFF0220FFF7D6
:102E5000ABFC201EA4F10104F6D110BD10B5082072
:102E6000FFF7E2FF10E0FFF7C1FFFFF765FF58B182
:102E700097480068401C9649086008460068022888
:102E800002D10020086000E0EDE700BF10E0FFF78E
:102E9000ADFFFFF751FF58B98D480068401C8C49C1
:102EA000086008460068022802D10020086000E09F
:102EB000EDE700BFFFF778FF10BD10B50A20FFF760
:102EC000C0FF10E0FFF7A1FFFFF749FF58B18048AE
:102ED0000068401C7E49086008460068022802D14C
:102EE0000020086000E0EDE700BF10E0FFF78DFF75
:102EF000FFF735FF58B976480068401C74490860F0
:102F000008460068022802D10020086000E0EDE7D2
:102F100000BF10BD10B501216E48FDF7F4FB10BDD8
:102F200010B502216B48FDF7EEFB10BD10B5042172
:102F30006848FDF7E8FB10BD10B508216548FDF7AE
:102F4000E2FB10BD70B505460C4680215C48FDF7DC
:102F5000F4FB2846FFF71CFC80215948FDF7EFFBE6
:102F600040215748FDF7E9FB2046FFF711FC4021BF
:102F70005348FDF7E4FB1420FFF716FC70BD10B5B5
:102F800004465448FDF7C8FB00F00F005249087092
:102F9000084600780D284BD2DFE800F04A07111BE5
:102FA000254A404A2E4A4A4A370040F6B830001BAC
:102FB000A0F12D0103222046FFF702FC3FE040F67E
:102FC000B830001BA0F1230101222046FFF7F8FBD7
:102FD00035E040F6B830001BA0F123010122204665
:102FE000FFF7EEFB2BE040F6B830011B012204F1A5
:102FF0002300FFF7E5FB22E040F6B830011B032277
:1030000004F12D00FFF7DCFB19E040F6B830011B9E
:10301000022204F12300FFF7D3FB10E040F6B830A2
:10302000001BA0F1660104F16400FFF78BFF06E0CE
:1030300040F2AA5140F20E60FFF784FF00BF00BFCC
:1030400010BD10B504462348FDF766FB00F00F00E5
:1030500021490870084600780D284ED2DFE800F0BC
:103060004D070F171F4D464D274D4D4D3E00022277
:103070004FF4AF6140F2DC50FFF7A2FB44E00122C5
:103080004FF4AF6140F2DC50FFF79AFB3CE00122C5
:103090004FF4AF6140F2DC50FFF792FB34E00122C5
:1030A00040F2DC514FF4C860FFF78AFB2CE00222AB
:1030B00040F2DC514FF4C860FFF782FB24E00000CF
:1030C00000100140000800403108AC1C5A044E407A
:1030D00084000020001801406C000020012240F212
:1030E000DC514FF4C860FFF76BFB0DE040F6B830E1
:1030F000011B2046FFF726FF06E040F6B830011B13
:103100002046FFF71FFF00BF00BF10BD10B50446EB
:10311000FC48FDF701FB00F00F00FB490870084672
:1031200000780D2849D2DFE800F04807111B254838
:1031300040482E484848370040F6B830001BA0F100
:10314000320102222046FFF73BFB3EE040F6B8305A
:10315000001BA0F1280101222046FFF731FB34E0DB
:1031600040F6B830001BA0F1280101222046FFF7ED
:1031700027FB2AE040F6B830011B012204F12800A9
:10318000FFF71EFB21E040F6B830011B022204F1DC
:103190003200FFF715FB18E040F6B830011B0122A2
:1031A00004F12800FFF70CFB0FE040F6B830001BDD
:1031B000811E2046FFF7C6FE07E040F6B830001B30
:1031C000811E2046FFF7BEFE00BF00BF10BD10B538
:1031D000FFF728F9FFF775F9FFF769FAFFF736FAF5
:1031E000FFF758FAFFF7B0F9FFF777FAFFF7CDF9D5
:1031F000FFF70EFAFFF790FAFFF7A4FAFFF7E5F9E9
:10320000FFF774FA10BD10B5052240F2EB510846E5
:10321000FFF7D6FA00BFBB48FDF77EFA00F00F00BB
:10322000B9490870012240F2EB510846FFF7C8FA8D
:10323000B54800780628EED100BFB248FDF76CFA19
:1032400000F00F00B0490870084600780628F4D155
:10325000012240F2EB510846FFF7B2FA10BD10B55B
:103260000A2240F2CD510846FFF7AAFA00BFA5484E
:10327000FDF752FA00F00F00A3490870012240F256
:10328000CD510846FFF79CFA9F4800780628EED1FA
:103290000520FFF789FA00BF9A48FDF73DFA00F0D4
:1032A0000F0099490870084600780628F4D10122D9
:1032B00040F2CD510846FFF783FA10BD10B50F223A
:1032C00040F246510846FFF77BFA00BF8D48FDF7F4
:1032D00023FA00F00F008C49087001224FF4AF610F
:1032E0000846FFF76DFA884800780628EED10520D9
:1032F000FFF75AFA0CE08348FDF70EFA00F00F00D2
:103300008149087001224FF4B9610846FFF758FA65
:103310007D4800780628EED110BD10B5202240F27D
:10332000B9510846FFF74CFA00BF7648FDF7F4F9AB
:1033300000F00F0074490870012240F2B9510846AC
:10334000FFF73EFA704800780628EED140F2DC51D3
:103350000846FFF7F7FD10BD10B5232240F2B95122
:103360000846FFF72DFA00BF6648FDF7D5F900F0D3
:103370000F0065490870012240F2B9510846FFF775
:103380001FFA61480078062803D05F4800780F28AC
:10339000EAD1012240F2C3510846FFF711FA052095
:1033A000FFF702FA00BF5748FDF7B6F900F00F002B
:1033B00055490870012240F2B9510846FFF700FA5A
:1033C00051480078062803D04F4800780F28EAD1EA
:1033D00010BD10B50446224640F2F2510846FFF7F0
:1033E000EFF910BD10B50446224640F2C65108461A
:1033F000FFF7E6F910BD10B54248FDF78DF900F072
:103400000F00414908700DE03E48FDF785F900F0D6
:103410000F003D49087001224FF4BD6140F2CD50CC
:10342000FFF7CEF9384800780F28EDD110BD10B560
:10343000012240F2DC510846FFF7C2F9C820FFF72D
:10344000B3F900203149087009203149087010BDD6
:1034500010B5FFF703FDC820FFF7A6F90B202C4994
:10346000087010BD10B51E20FFF7BCFFFFF7F6FC7B
:10347000C820FFF799F901202549087010BD10B543
:10348000FFF7ECFCFFF7EAFC2320FFF7ABFFC820B7
:10349000FFF78AF900201D4908701E4908701B4972
:1034A00008701AE04FF400514810FFF7C9FB1A49A1
:1034B00008600846006840B108460068222804D227
:1034C00012480078401C11490870C820FFF76CF9B9
:1034D00010480078401C0F4908700E4800780628F4
:1034E000E0DB0A480078012837DA0220FFF77AFF8C
:1034F000C820FFF759F900200649087003490870F1
:1035000027E00000001801406C000020820000202D
:103510004C00002081000020740000204FF4005176
:103520004810FFF78DFBFD4908600846006840B170
:1035300008460068222804D2F9480078401CF8495F
:103540000870C820FFF730F9F6480078401CF549AC
:103550000870F44800780628E0DBF148007801287C
:103560002ADA0420FFF73EFFC820FFF71DF90020EC
:10357000EC490870EA4908701AE04FF4005148100D
:10358000FFF75EFBE54908600846006840B1084661
:103590000068222804D2E2480078401CE049087004
:1035A000C820FFF701F9DF480078401CDD490870AA
:1035B000DC4800780628E0DBD948007801282ADAC0
:1035C0000820FFF706FFC820FFF7EEF80020D549D6
:1035D0000870D34908701AE04FF400514810FFF703
:1035E0002FFBCE4908600846006840B108460068D5
:1035F000222804D2CA480078401CC9490870C82053
:10360000FFF7D2F8C7480078401CC6490870C54883
:1036100000780628E0DBC2480078012806DB642039
:10362000FFF7C2F80120C049087002E00020BE493F
:1036300008700020BA4908700B20BC49087010BD02
:1036400010B5FFF70BFCFFF709FC2620FFF7CAFEB9
:10365000C820FFF7A9F80020B249087016E04FF41F
:1036600000514810FFF7ECFAAC49086008460068C2
:1036700038B1084600681E2803D20120AC49087002
:1036800010BDA8480078401CA6490870A5480078DD
:103690000628E4DB0220FFF7A5FEC820FFF784F828
:1036A0000020A04908709E49087013E04FF40051B3
:1036B0004810FFF7C5FA994908600846006820B12C
:1036C000084600680A2800D2DAE796480078401CCD
:1036D00094490870934800780628E7DB0220FFF73A
:1036E00081FEC820FFF760F800208E4908708C49E1
:1036F000087016E04FF400514810FFF7A1FA87490F
:1037000008600846006838B1084600680A2803D2F5
:10371000012087490870B3E782480078401C81493E
:103720000870804800780628E4DB0820FFF751FE87
:10373000C820FFF739F800207A49087078490870E6
:1037400016E04FF400514810FFF77AFA7349086009
:103750000846006838B108460068222803D20120D4
:10376000734908708CE76F480078401C6D490870F9
:103770006C4800780628E4DB01206D49087000BF22
:103780007EE710B5FFF799FBFFF797FB2E20FFF7B9
:1037900020FEC820FFF708F8002061490870614941
:1037A00008705F49087016E04FF400514810FFF7A9
:1037B00047FA5A4908600846006838B10846006868
:1037C000222803D201205B49087010BD55480078BB
:1037D000401C54490870534800780A28E4DB022052
:1037E000FFF7F7FDC820FEF7DFFF00204D49087006
:1037F0004B49087016E04FF400514810FFF720FACB
:10380000464908600846006838B108460068222822
:1038100003D2012047490870D7E742480078401C8E
:10382000404908703F4800780A28E4DB0220FFF78F
:10383000D0FDC820FEF7B8FF00203A49087038498B
:10384000087016E04FF400514810FFF7F9F93349BA
:1038500008600846006838B108460068222803D28C
:10386000012034490870B0E72E480078401C2D49EB
:1038700008702C4800780A28E4DB0820FFF7B2FD26
:10388000C820FEF791FF00202649087024490870DF
:1038900016E04FF400514810FFF7D2F91F490860B5
:1038A0000846006838B108460068222803D2012083
:1038B0002049087089E71B480078401C19490870A6
:1038C000184800780A28E4DB00BF7EE710B5FFF750
:1038D000F4FAFFF7F2FA1520FFF77BFDC820FEF798
:1038E00063FF0120144908700B20104908704FF441
:1038F00080611248FCF721FF10BD10B51E20FFF7B4
:1039000068FDC820FEF750FFFFF7D7FAC820FEF782
:103910004BFF02200549087010BD00007400002014
:103920008200002081000020550000204C00002073
:1039300054000020530000205200002000180140D5
:1039400010B5FFF7BAFAC820FEF72EFF0820F84995
:10395000087010BD10B50020F6490860FEF758FE4B
:103960000121F548FDF78CFD00BF40F20E60FFF726
:1039700068FBF048006840F6FC018842F5D300215E
:10398000ED48FDF77DFD102240F20E6140F2AA5095
:10399000FEF716FFFFF792FC00BF40F20460FFF74E
:1039A00050FBE64800780F28F7D1E5480068E54964
:1039B000086005E040F2AA5140F20E60FFF7C2FA3B
:1039C000E04801680068401EDE4A10600029F1D11D
:1039D00002201146086003E040F22C60FFF7CFFAA6
:1039E000D84801680068401ED64A10600029F3D10B
:1039F000D5480078401CD449087010BD10B500208F
:103A0000CC490860FEF704FE0121CB48FDF738FDE4
:103A100000BF40F20E60FFF714FBC648006840F29A
:103A20006C718842F5D30021C348FDF729FD1022AF
:103A300040F20E6140F2AA50FEF7C2FEFFF73EFCD4
:103A400000BF40F20E60FFF7FCFABC4800780F2878
:103A5000F7D1BB480068BB49086005E040F2AA51B5
:103A600040F20E60FFF76EFAB64801680068401E2B
:103A7000B44A10600029F1D102201146086003E029
:103A800040F22C60FFF77BFAAE4801680068401EE8
:103A9000AC4A10600029F3D1AB480078401CAA4919
:103AA000087010BD10B50020A2490860FEF7B0FDF7
:103AB0000121A148FDF7E4FC00BF40F20E60FFF7D2
:103AC000C0FA9C48006840F2DC518842F5D30021DE
:103AD0009948FDF7D5FC102240F20E6140F2AA5041
:103AE000FEF76EFEFFF7EAFB00BF40F2FA50FFF769
:103AF000A8FA924800780F28F7D1914800689149B8
:103B0000086003E040F20960FFF79BFA8D48016806
:103B10000068401E8B4A10600029F3D10220114634
:103B2000086003E040F22C60FFF729FA854801683D
:103B30000068401E834A10600029F3D18248007853
:103B4000401C8149087010BD10B5002079490860FB
:103B5000FEF75EFD01217848FDF792FC00BF40F2C0
:103B60000E60FFF76EFA73480068B0F57A7FF6D3FF
:103B7000102240F20E6140F2AA50FEF721FEFFF73C
:103B8000CCFB00BF40F20E60FFF7F9F96B480078FC
:103B90000F28F7D16A4800686A49086005E04FF4C9
:103BA000AF6140F20E60FFF7CDF96648016800682A
:103BB000401E644A10600029F1D1022011460860BD
:103BC00003E040F22C60FFF7DAF95E480168006814
:103BD000401E5C4A10600029F3D15B480078401C0D
:103BE0005949087010BD10B5002052490860FEF711
:103BF0000FFD01215048FDF743FC00BF40F20E606D
:103C0000FFF71FFA4B480068B0F5487FF6D3002154
:103C10004948FDF735FCFFF780FB40F2DC510846D0
:103C2000FFF790F9322002F03EFC47480078401C34
:103C30004549087010BD10B5002443480078052898
:103C400013D2DFE800F00306090C0F00FFF782FE35
:103C50000CE0FFF7D3FE09E0FFF724FF06E0FFF7D3
:103C600073FF03E0FFF7BFFF00E000BF00BF641C6D
:103C7000222410BD10B508203249086005E040F24A
:103C8000AA5140F20E60FFF75DF92E480168006806
:103C9000401E2C4A10600029F1D1FFF7DFF80F20F9
:103CA0002849086003E040F20E60FFF768F92548F4
:103CB00001680068401E234A10600029F3D150209B
:103CC000FFF790FB00BF40F2AA5140F20E60FFF7F1
:103CD00039F91E48FCF720FD00F00F001749087065
:103CE000084600780F28EED108201649086005E044
:103CF00040F2AA5140F20E60FFF724F91148016822
:103D00000068401E0F4A10600029F1D1FFF7D5F876
:103D100000BF40F20E60FFF732F9084800780F2824
:103D2000F7D107480068801E0649086016E00000C9
:103D30004C00002048000020000C00406C000020D7
:103D4000940000207C000020560000200018014054
:103D500040F2AA5140F20E60FFF7F4F8FE48016805
:103D60000068401EFC4A10600029F1D10220114673
:103D7000086003E040F22C60FFF701F9F6480168A3
:103D80000068401EF44A10600029F3D110BD10B540
:103D90000A2240F2AA5140F20E60FEF711FDFFF731
:103DA0008CF80F20EC49086003E040F20E60FFF74A
:103DB000E6F8E94801680068401EE74A10600029FB
:103DC000F3D16420FFF705FB00BF40F2AA5140F297
:103DD0000E60FFF7B7F8E148FCF79EFC00F00F001B
:103DE000DF490870084600780F28EED10C20DA4928
:103DF000086005E040F2AA5140F20E60FFF7A2F819
:103E0000D54801680068401ED34A10600029F1D1EE
:103E1000FFF724F800BF40F20E60FFF7B0F8D0487B
:103E200000780F28F7D1CF480068801ECA49086083
:103E300005E040F2AA5140F20E60FFF783F8C64851
:103E400001680068401EC44A10600029F1D10220B8
:103E50001146086003E040F22C60FFF790F8BE487E
:103E600001680068401EBC4A10600029F3D110BDF3
:103E700010B50020BC49087000BF40F2B45140F2B8
:103E80000460FFF75FF8B548FCF746FC00F00F0050
:103E9000B34908704FF400514810FEF7D1FEB34902
:103EA00008600846006804280CD9AD4800780F283F
:103EB00008D10020AE490870FFF7DCFE0320AD49B1
:103EC000087010BDA94800680428D6D80F20A24960
:103ED000086000BF40F2AA5140F20E60FFF732F8CE
:103EE0009E48FCF719FC00F00F009D490870084639
:103EF00000780F28EED10D209749086005E040F2C8
:103F0000AA5140F20E60FFF71DF89348016800685F
:103F1000401E914A10600029F1D1FEF79FFF0D204D
:103F20008D49086003E040F20E60FFF728F88A48E8
:103F300001680068401E884A10600029F3D11922E8
:103F400040F20E6140F2AA50FEF73AFC5020FFF713
:103F500049FA05208049086005E040F2AA5140F284
:103F60000E60FEF7EFFF7C4801680068401E7A4A49
:103F700010600029F1D100BF40F2AA5140F20E605A
:103F8000FEF7E0FF7548FCF7C7FB00F00F0074492F
:103F90000870084600780028EED00E206E490860B0
:103FA00005E040F2AA5140F20E60FEF7CBFF6A48EE
:103FB00001680068401E684A10600029F1D1FEF7D0
:103FC0007CFF00BF40F20460FEF7D9FF6448007830
:103FD0000F28F7D163480068801E5F49086005E03C
:103FE00040F2AA5140F20E60FEF7ACFF5A48016859
:103FF0000068401E584A10600029F1D10220114685
:10400000086003E040F22C60FEF7B9FF52480168F7
:104010000068401E504A10600029F3D10320554922
:10402000087000BF4DE710B500205349087000BF6D
:1040300040F2B45140F20460FEF784FF4FF40051A7
:104040004810FEF7FDFD494908604448FCF764FB51
:1040500000F00F00424908704448006804280CD959
:10406000084600780F2808D1002041490870FFF762
:104070008EFE03203F49087010BD3C4800680428AC
:10408000D6D80F203449086005E040F2B45140F220
:104090000460FEF757FF304801680068401E2E4A52
:1040A00010600029F1D100BF40F2AA5140F20E6029
:1040B000FEF748FF2948FCF72FFB00F00F002849C6
:1040C0000870084600780F28EED10A2240F2AA5163
:1040D00040F20E60FEF774FBFEF7EFFE0D201E4966
:1040E000086003E040F20E60FEF749FF1A480168DD
:1040F0000068401E184A10600029F3D1192240F2CE
:104100000E6140F2AA50FEF75BFB5A20FFF761F9FF
:1041100005201149086005E040F2AA5140F20E6006
:10412000FEF710FF0C4801680068401E0A4A106044
:104130000029F1D100BF40F2AA5140F20E60FEF713
:1041400001FF0648FCF7E8FA00F00F000449087088
:1041500008460078002811E07C000020001801408B
:104160006C00002094000020530000207400002008
:104170009C0000204C00002054000020DBD00E20CA
:10418000FA49086005E040F2AA5140F20E60FEF7DD
:10419000D9FEF64801680068401EF44A1060002904
:1041A000F1D1FEF75BFE00BF40F20E60FEF7E7FEC6
:1041B000EF4800780F28F7D1EE480068801EEB49E1
:1041C000086005E040F2AA5140F20E60FEF7BAFE28
:1041D000E64801680068401EE44A10600029F1D1F9
:1041E00002201146086003E040F22C60FEF7C7FE93
:1041F000DE4801680068401EDC4A10600029F3D1E7
:104200000320DD49087000BF36E710B50020DB4908
:10421000087000BF40F20E60FEF7B1FED44800788F
:104220000028F7D11E20D149086003E040F20E605B
:10423000FEF7A5FECD4801680068401ECB4A10601D
:104240000029F3D1FFF769F800BF40F20E60FEF7D6
:1042500096FEC74800780F28F7D1C449086005E0EA
:1042600040F2AA5140F20E60FEF76CFEBF480168B2
:104270000068401EBD4A10600029F1D1FFF7DBFC49
:10428000BF480078401CBE490870084600780528E1
:1042900005D10B20B84908700120BA49087010BD3B
:1042A00010B50020B849087000BF40F20E60FEF75C
:1042B00066FEAF4800780028F7D12320AB4908609C
:1042C00003E040F20E60FEF75AFEA848016800685D
:1042D000401EA64A10600029F3D1FFF71EF8C8203F
:1042E000FEF762FA00BF40F20460FEF748FEA04805
:1042F00000780F28F7D112209C49086005E040F2B1
:10430000AA5140F20E60FEF71DFE98480168006851
:10431000401E964A10600029F1D1FEF79FFDFFF77D
:104320008AFC97480078401C954908700846007838
:10433000052805D10B20904908700120914908708B
:1043400010BD10B500209149087000BF40F20E600A
:10435000FEF715FE864800780028F7D1282083490B
:10436000086003E040F20E60FEF709FE7F48016836
:104370000068401E7D4A10600029F3D1FEF7CDFF92
:1043800000BF40F20E60FEF7FAFD794800780F2872
:10439000F7D10E207549086005E040F2AA5140F2BD
:1043A0000E60FEF7CFFD714801680068401E6F4A3D
:1043B00010600029F1D1FEF751FDFFF73CFC704879
:1043C0000078401C6E49087008460078052805D121
:1043D0000B206949087001206A49087010BD10B5AA
:1043E00000BF40F20E60FEF7CAFD61480078002869
:1043F000F7D123205D49086003E040F20E60FEF72C
:10440000BEFD5A4801680068401E584A10600029E5
:10441000F3D1FEF782FF00BF40F20E60FEF7AFFD62
:10442000534800780F28F7D114205049086005E060
:1044300040F2AA5140F20E60FEF784FD4B4801683D
:104440000068401E494A10600029F1D1FEF7ACFC1B
:104450000A20FEF7E9FCFEF730FDFFF7ECFB40F227
:10446000DC510846FEF76EFD322002F01CF844488D
:104470000078401C4249087008460078052805D19C
:104480000B203D49087001203E49087010BD10B551
:1044900000203F49087000BF40F20E60FEF76FFD3C
:1044A000334800780028F7D123203049086003E022
:1044B00040F20E60FEF763FD2C4801680068401E64
:1044C0002A4A10600029F3D1FEF727FF00BF40F20F
:1044D0000E60FEF754FD264800780F28F7D12349D7
:1044E000086005E040F2AA5140F20E60FEF72AFD96
:1044F0001E4801680068401E1C4A10600029F1D166
:10450000FEF7DBFCFFF797FB1D480078401C1C49B9
:10451000087008460078052805D10B201649087058
:1045200001201849087010BD10B519200F49086006
:1045300003E040F20460FEF722FD0C4801680068C9
:10454000401E0A4A10600029F3D1FEF7E6FE00BFC4
:1045500040F20E60FEF713FD054800780F28F7D1F2
:1045600004480068014908601AE000007C0000204F
:104570006C000020940000204C0000204F00002020
:10458000570000205800002050000020510000205B
:104590004D00002040F2AA5140F20E60FEF7D2FC1E
:1045A000F84801680068401EF64A10600029F1D101
:1045B00010BD10B5F4A002F019F90A20F149086005
:1045C00003E04FF4C360FEF7DAFCEE4801680068D0
:1045D000401EEC4A10600029F3D100BF4FF4C360C5
:1045E000FEF7CDFCEA48FCF797F800F00F00E94928
:1045F0000870084600780F28F0D12820E1490860AB
:1046000005E040F2AA5140F20E60FEF79BFCDD4847
:1046100001680068401EDB4A10600029F1D10D20BE
:10462000DD49087010BD10B5DC48007828B9FFF7E7
:10463000C0FF0D20D849087010BD1620D149086070
:1046400003E040F20E60FEF79AFCCE480168006875
:10465000401ECC4A10600029F3D12320FEF7C2FE91
:1046600000BF40F2AA5140F20E60FEF76BFCC84852
:10467000FCF752F800F00F00C649087008460078B1
:104680000F28EED10A20BF49086005E040F2AA5188
:1046900040F20E60FEF756FCBA4801680068401E02
:1046A000B84A10600029F1D1FEF7D8FB00BF40F2F4
:1046B0000460FEF72BFD4FF400514810FEF7C0FADE
:1046C000B7490860084600680428F0D80A20AD49B8
:1046D000086005E040F2AA5140F20E60FEF732FC9D
:1046E000A84801680068401EA64A10600029F1D160
:1046F0006E20FEF777FE0520A249086005E040F233
:10470000AA5140F20E60FEF71DFC9E480168006849
:10471000401E9C4A10600029F1D100BF40F2AA510E
:1047200040F20E60FEF70EFC9948FBF7F5FF00F033
:104730000F0098490870084600780028EED00E2037
:104740009049086005E040F2B45140F20460FEF781
:10475000F9FB8C4801680068401E8A4A10600029F5
:10476000F1D1FEF7AAFB0B208B49087000BF63E76D
:1047700010B58A48007828B9FFF71BFF0D2086493D
:10478000087010BD16207F49086003E040F20E60FB
:10479000FEF7F5FB7B4801680068401E794A10600F
:1047A0000029F3D11B20FEF714FE00BF40F2AA51EE
:1047B00040F20E60FEF7C6FB7548FBF7ADFF00F058
:1047C0000F0074490870084600780F28EED10A20BF
:1047D0006C49086005E040F2AA5140F20E60FEF715
:1047E000B1FB684801680068401E664A10600029F5
:1047F000F1D1FEF762FB00BF40F20460FEF786FCD9
:104800004FF400514810FEF71BFA6549086008464E
:1048100000680428F0D80A205A49086005E040F2F0
:10482000AA5140F20E60FEF78DFB56480168006801
:10483000401E544A10600029F1D14F20FEF7C9FDF7
:1048400005205049086005E040F2AA5140F20E6090
:10485000FEF778FB4B4801680068401E494A10602B
:104860000029F1D100BF40F2AA5140F20E60FEF7DC
:1048700069FB4748FBF750FF00F00F0045490870FF
:10488000084600780028EED00D203E49086005E07B
:1048900040F2AA5140F20E60FEF754FB394801681D
:1048A0000068401E374A10600029F1D1FEF7D6FAA1
:1048B0000B203949087000BF63E710B5394800681C
:1048C000401C384908600846016837A001F08EFF97
:1048D00000BF40F20E60FEF752FB2E480078002821
:1048E000F7D123202749086003E040F2FA50FEF791
:1048F00046FB244801680068401E224A10600029D7
:10490000F3D106E03220FDF74FFF40F2DE50FEF714
:1049100036FB1F48FBF700FF00F400400028F1D0F1
:10492000192240F20E6140F2AA50FDF749FFFEF74E
:10493000F4FC00BF40F20E60FEF721FB1548007842
:104940000F28F7D10A200F49086005E040F2AA516C
:1049500040F20E60FEF7F6FA0A4801680068401E51
:10496000084A10600029F1D10E480068062827DBAC
:104970000C2009490870084601780EA001F036FFA6
:1049800010BD00007C000020676F686F6D6500003F
:10499000001801406C0000204C0000209C0000200A
:1049A000740000206800002068616465646F6E65B3
:1049B0003A25640070726F636573733A2564000072
:1049C00000BF40F20460FEF7A1FB4FF40051481015
:1049D000FEF736F9FE490860084600680528F0D859
:1049E0000A20FC49086005E040F2AA5140F20E603E
:1049F000FEF7A8FAF74801680068401EF54A106003
:104A00000029F1D13220FDF7CFFEFEF786FC0B2006
:104A1000F149087000BF10BD10B5F0480068401C97
:104A2000EE49086008460168AFF2840001F0DEFE3E
:104A30000A20FEF7D7FCFEF711FAC820FDF7B4FEF6
:104A400000BF40F20E60FEF79AFAE54800780028B1
:104A5000F7D12320DF49086003E040F2FA50FEF767
:104A60008EFADC4801680068401EDA4A10600029AE
:104A7000F3D106E03220FDF797FE40F2DE50FEF75C
:104A80007EFAD848FBF748FE00F400400028F1D039
:104A9000192240F20E6140F2AA50FDF791FEFEF796
:104AA0003CFC00BF40F20E60FEF769FACC4800788B
:104AB0000F28F7D11420C749086005E040F2AA5139
:104AC00040F20E60FEF73EFAC24801680068401EE0
:104AD000C04A10600029F1D1FEF7EFF9C820FDF7B8
:104AE00063FEBE480068062809DB0C20BA4908703E
:104AF00008460178AFF2441001F078FE10BD00BF07
:104B000040F2FF50FEF702FB4FF400514810FEF751
:104B100097F8AF490860084600680528F0D80A20D1
:104B2000AC49086005E040F2AA5140F20E60FEF781
:104B300009FAA84801680068401EA64A10600029CA
:104B4000F1D13220FDF730FEFEF7E7FB0B20A24942
:104B5000087000BFD2E710B5A0480068401C9F490C
:104B6000086008460168AFF2C01001F03FFE08205F
:104B7000FEF738FCFEF772F9C820FDF715FEFEF7C8
:104B80006DF940F2DC510846FEF7DCF9322001F005
:104B90008AFC00BF40F20E60FEF7F1F99048007801
:104BA0000028F7D123208B49086003E040F2FA5037
:104BB000FEF7E5F9874801680068401E854A1060E5
:104BC0000029F3D106E03220FDF7EEFD40F2DE5081
:104BD000FEF7D5F98348FBF79FFD00F4004000285D
:104BE000F1D0192240F20E6140F2AA50FDF7E8FD23
:104BF000FEF793FB00BF40F20E60FEF7C0F9784865
:104C000000780F28F7D17349086003E040F2FA50AA
:104C1000FEF717FA6F4801680068401E6D4A106081
:104C20000029F3D1FEF749F9C820FDF7BDFD6B4817
:104C30000068062809DB0C206749087008460178DF
:104C4000AFF2902001F0D2FD10BD00BF40F2046031
:104C5000FEF75CFA4FF400514810FDF7F1FF5C4994
:104C60000860084600680528F0D80A2059490860FD
:104C700005E040F2AA5140F20E60FEF763F9554894
:104C800001680068401E534A10600029F1D13220AB
:104C9000FDF78AFDFEF741FB0B204F49087000BF6E
:104CA000D2E710B54D480068401C4C4908600846E2
:104CB0000168AFF20C3001F099FDFEF7FEF8C82054
:104CC000FDF772FD00BF40F20E60FEF758F9444850
:104CD00000780028F7D128203E49086003E04FF40F
:104CE000BE60FEF74CF93B4801680068401E394A37
:104CF00010600029F3D106E03220FDF755FD40F2A7
:104D0000DE50FEF73CF93748FBF706FD00F40040A3
:104D10000028F1D0192240F20E6140F2AA50FDF7AE
:104D20004FFDFEF7FAFA00BF40F20E60FEF727F9DA
:104D30002B4800780F28F7D112202649086005E09B
:104D400040F2AA5140F20E60FEF7FCF821480168DB
:104D50000068401E1F4A10600029F1D1FEF77EF85E
:104D60001E480068062809DB0C201B49087008460D
:104D70000178AFF2C03001F039FD10BD00BF40F244
:104D80000460FEF7C3F94FF400514810FDF758FFD7
:104D90000F490860084600680528F0D80A200D4928
:104DA000086005E040F2AA5140F20E60FEF7CAF832
:104DB000084801680068401E064A10600029F1D1C9
:104DC0003220FDF7F1FCFEF7A8FA0B2002490BE0B8
:104DD000740000207C0000204C00002068000020AF
:104DE0006C00002000180140087000BFC5E710B536
:104DF000F8480068401CF749086008460168AFF2AF
:104E0000584001F0F3FCFEF758F8C820FDF7CCFC41
:104E1000FEF753F8C820FDF7C7FC00BF40F20E6054
:104E2000FEF7ADF8EC4800780028F7D106E0322014
:104E3000FDF7BAFC40F2DE50FEF7A1F8E748FBF7B9
:104E40006BFC00F400400028F1D0C820FDF7ACFC5A
:104E500006E03220FDF7A8FC40F2DD50FEF78FF8A7
:104E6000DE48FBF759FC00F400400028F1D1C820CF
:104E7000FDF79AFC122240F20E6140F2AA50FDF7B3
:104E80009FFCFEF74AFA00BF40F20460FEF777F895
:104E9000D14800780F28F7D10E20D149086005E0ED
:104EA00040F2AA5140F20E60FEF74CF8CC4801687F
:104EB0000068401ECA4A10600029F1D1FDF7CEFFFC
:104EC000C820FDF771FCC3480068062803DB0C20EE
:104ED000C449087010BD00BF40F20460FEF716F927
:104EE0004FF400514810FDF7ABFEBF49086008467B
:104EF00000680528F0D80A20B949086005E040F2AA
:104F0000AA5140F20E60FEF71DF8B548016800682E
:104F1000401EB34A10600029F1D13220FDF744FC55
:104F2000FEF7FBF90B20AF49087000BFD2E710B5C0
:104F30000120AE490860A7480168ADA001F056FC09
:104F4000A4480068062803DB0C20A649087010BDA1
:104F500000BF40F2FA50FEF712F89F4800780F2881
:104F6000F7D1A7480068801E9D49086005E040F21F
:104F7000AA5140F20E60FDF7E5FF9948016800680C
:104F8000401E974A10600029F1D1022011460860A6
:104F900003E040F22C60FDF7F2FF914801680068E1
:104FA000401E8F4A10600029F3D1C820FDF7FCFB9A
:104FB000944800F0A6FB0446214693A001F016FC9D
:104FC00001209449087035E08E4800F09AFB924920
:104FD000086086480068401C844908608E48006864
:104FE000062822D2DFE800F02109150F031BFFF786
:104FF00064FC0020874908701BE0FFF70DFD0020CE
:105000008449087015E0FFF7A6FD0020814908706B
:105010000FE0FFF746FE00207E49087009E0FFF729
:10502000E6FE00207B49087003E001207949087002
:1050300000BF00BF774800780028C5D165480068E8
:10504000062805DB0C2067490870002071490870AC
:1050500000BF7CE710B500207049087000BF40F227
:10506000B45140F20460FDF76DFF4FF40051481059
:10507000FDF7E6FD5C4908605848FBF74DFB00F082
:105080000F005549087058480068042840D9084660
:1050900000780F283CD10A205149086005E040F211
:1050A000AA5140F20E60FDF74DFF4D4801680068BF
:1050B000401E4B4A10600029F1D1FDF7CFFE00BF22
:1050C00040F20E60FDF75BFF434800780F28F7D1F0
:1050D0000F2240F2AA5140F20E60FDF771FB322020
:1050E000FEF777F919203E49086005E040F2AA5121
:1050F00040F20E60FDF726FF394801680068401E47
:10510000374A10600029F1D10D203649087010BDD2
:10511000354800680428A2D819203149086005E004
:1051200040F2AA5140F20E60FDF70CFF2C480168D6
:105130000068401E2A4A10600029F1D15A20FEF76B
:1051400051F900BF40F2AA5140F20E60FDF7FAFE9D
:105150002248FBF7E1FA00F00F001F4908700846EB
:1051600000780F28EED10C2240F2AA5140F20E60D6
:10517000FDF726FBFDF772FE0B201A49087000BFF1
:10518000C5E710B526480078012872D100202449CF
:10519000087000BF40F2AA5140F20E60FDF7D2FE47
:1051A0004FF400514810FDF74BFD0F4908600B48C4
:1051B000FBF7B2FA00F00F00074908700A480068D0
:1051C000052869D9084600780F2865D10A200449C6
:1051D00008602DE0680000206C00002000180140ED
:1051E0007C0000204C000020740000209000002073
:1051F00068616465646F6E653A2025640A0000008A
:10520000940000205A000020436F6C6F723A2025F2
:10521000640A00008000002070000020550000207B
:105220005200002040F2AA5140F20E60FDF78AFEC3
:10523000BE4801680068401EBC4A10600029F1D1D8
:10524000FDF73BFE00BF40F20E60FDF798FEB84848
:1052500000780F28F7D1192240F2AA5140F20E60CF
:10526000FDF7AEFA1E20FEF7BDF81920AF49086021
:1052700006E054E040F2AA5140F20E60FDF762FEF3
:10528000AA4801680068401EA84A10600029F1D1B0
:105290000D20A849087010BDA748006805283FF6F2
:1052A00079AF1920A149086005E040F2AA5140F207
:1052B0000E60FDF747FE9D4801680068401E9B4A4E
:1052C00010600029F1D15A20FEF783F800BF40F2A8
:1052D000A55140F20E60FDF735FE9848FBF71CFA29
:1052E00000F00F0092490870084600780028EED0C0
:1052F0000E208E49086005E040F2AA5140F20E608F
:10530000FDF720FE894801680068401E874A10604A
:105310000029F1D1FDF7D1FD0B208649087000BFAF
:10532000B9E710B500BF40F20E60FDF728FE8048D7
:1053300000780F28F7D17D49086005E040F246511A
:1053400040F27260FDF7FEFD784801680068401E7B
:10535000764A10600029F1D100BF40F20E60FDF7DF
:105360000EFE734800780F28F7D175480068801E3C
:105370006E49086005E040F2AA5140F20E60FDF768
:10538000E1FD6A4801680068401E684A1060002913
:10539000F1D102201146086003E040F20E60FDF7F3
:1053A000EEFD624801680068401E604A10600029F6
:1053B000F3D110BD10B5FDF7B0FF0B205D490870AB
:1053C00010BD1FB501214420FBF7C6FB2020ADF81E
:1053D000000004208DF8030069465848FBF700F9E7
:1053E00001210846FBF7B8FB05210420FBF70EFA64
:1053F0002020029000208DF80C000C208DF80D006C
:1054000002A8FBF70DF817208DF8040002208DF894
:10541000050000208DF8060001208DF8070001A886
:10542000FAF787FF1FBD10B52020FBF75FF820B10A
:1054300044480068401C434908602020FBF767F897
:1054400010BDFDF7C4FE40F2CF214FF6EF7000F023
:10545000F7FD00F0EBFFFFF7B4FF032035490870BC
:105460000120394908604FF47A70FDF79DF900205A
:105470003649C1F8A8014FF47A70FDF795F9344820
:1054800000F078F80020304908603049C1F8A801E0
:105490004FF47A70FDF788F94FF47A70FDF784F9CC
:1054A000FFF73FFF41E0234800780D283BD2DFE8BB
:1054B00000F03A070C11161B20252A2F3A3437002A
:1054C000FDF7B5FFFEF7A1FE2EE0FDF7C1FFFEF7E9
:1054D00086FF29E0FDF7C6FFFEF7D9FF24E0FDF7C0
:1054E000CEFFFFF7B7FD1FE0FEF7AAF8FEF79BFD22
:1054F0001AE0FEF746F9FEF7BBFC15E0FEF7E6F909
:10550000FFF73FFE10E0FEF7F8F9FEF71AFF0BE099
:10551000FEF716FAFEF7C4FE06E0FFF708FD03E00B
:10552000FFF747F800E000BF00BFBCE77C000020A9
:105530006C0000204C000020740000200018014086
:1055400094000020A2000020A80123420000234272
:105550005A000020704700BFFEE700BFFEE700BF13
:10556000FEE700BFFEE7704770477047704770471F
:105570007047000010B504460120FB490860FB4954
:105580000860FB49C1F89C01F84918310860002007
:10559000F64908310860F54910310860F54908807E
:1055A000F54908800021F548FBF76AFF0021F34820
:1055B000FCF7FAF901221146F048FBF77CFF0121C4
:1055C000EE48FBF75DFFEE48006840F02000EC4934
:1055D0000860EB480830006840F02000E8490831D6
:1055E000086000BFE4480088FF28FBDBE348FCF7C5
:1055F000FEF9E049088008460088208008460088B7
:10560000E04908600020D949083108600120D849E4
:10561000C1F8A0010020D7490880D749088000219F
:10562000D648FBF72DFF0021D448FCF7BDF9012235
:105630001146D248FBF73FFF0121D048FBF720FF7E
:10564000CF48006840F02000CD490860CC480830C1
:10565000006840F02000CA490831086000BFC64811
:105660000088FF28FBDBC548FCF7C1F9C149088069
:1056700008460088608008460088C3490860012009
:10568000BA4908310860BA49C1F8A0010020B949F7
:105690000880B94908800021B848FCF785F9012243
:1056A0001146B648FBF707FF0121B448FBF7E8FEB7
:1056B000B348006840F02000B1490860B0480830A5
:1056C000006840F02000AE490831086000BFAA48D9
:1056D0000088FF28FBDBA948FCF789F9A549088069
:1056E00008460088A08008460088A8490860A3886A
:1056F00062882188A6A001F079F800209A49086004
:1057000010BD10B5044640F2CF214FF6EF7000F007
:1057100097FC012094490860944918310860944925
:10572000C1F8900191490C3108600020091F086000
:105730008E49103108608F4908808F4908809C4944
:1057400008609048008881B28C48FCF72FF900214E
:105750008A48FCF729F9012211468848FBF7ABFE7D
:1057600001218648FBF78CFE8548006840F0200048
:105770008349086082480830006840F02000804972
:105780000831086000BF8A4800680028FBD000206C
:105790008749086000217948FBF772FE7848006865
:1057A000002077490860744800888249086000201A
:1057B0006E490831086001206D49C1F8A001002040
:1057C0006C4908806C490880794908606E480088F7
:1057D00081B26A48FCF7EAF800216848FCF7E4F86F
:1057E000012211466548FBF766FE01216348FBF77D
:1057F00047FE6348006840F0200061490860604847
:105800000830006840F020005D490831086000BFA2
:10581000674800680028FBD0002065490860002127
:105820005648FBF72DFE5648006800205449086092
:10583000514800886049086001204C4908310860DF
:105840004B49C1F8A00100204A4908804A49088014
:10585000574908604D48008881B24848FCF7A6F8CF
:1058600000214648FCF7A0F8012211464348FBF707
:1058700022FE01214148FBF703FE4148006840F049
:1058800020003F4908603E480830006840F0200092
:105890003B490831086000BF454800680028FBD03C
:1058A00000204349086000213448FBF7E9FD3448F3
:1058B00000680020324908602F4800883F4908608E
:1058C00000202A49183108604FF400513C48FAF78B
:1058D00036FF3A48036838480268364801682CA009
:1058E00000F084FF33480068C82821DD3148006893
:1058F000B0F5967F1CDA30480068C82818DD2E48BD
:105900000068B0F5967F13DA2C480068C8280FDDD0
:1059100001202C4908602CA000F068FF2FA131481D
:1059200000F074FF2F4800F0EBFD2F490860F3E012
:1059300020480068142866DD1E4800683C2862DAAA
:105940001D48006814285EDD1B48006832285ADABA
:105950001A480068142856DD18480068442852DAAE
:1059600002201849086041E0D00000209001234245
:1059700000002342A0000020A2000020000C0040F4
:1059800000040140B0000020B4000020B800002056
:105990005265643A2025642020426C75653A2025C2
:1059A000642020477265656E3A2025640A00000075
:1059B000BC000020C4000020C8000020CC00002053
:1059C00000100140AC000020636F6C6F757220699D
:1059D000732077686974650D0A000000B0D7C9AB01
:1059E00000000000D4000020F40000204EA000F0D1
:1059F000FDFE52A1534800F009FF524800F080FD1F
:105A00005149086088E051480068B42825DD4F48B6
:105A10000068B0F5967F20DA4D48006850281CDDFC
:105A20004B480068962818DA4A480068962814DD22
:105A300048480068B0F5E17F0FDA03204649086066
:105A400046A000F0D3FE4AA13E4800F0DFFE3D48EC
:105A500000F056FD3C4908605EE03C48006896282E
:105A600023DD3A480068C8281FDA394800681E2834
:105A70001BDD374800686E2817DA36480068192899
:105A800013DD3448006864280FDA042032490860C6
:105A900039A000F0ABFE3CA12A4800F0B7FE29482F
:105AA00000F02EFD2849086036E0284800680A28E2
:105AB00023DD2648006823281FDA254800682828A7
:105AC0001BDD234800683F2817DA224800680A28AF
:105AD00013DD2048006828280FDA05201E490860D9
