:020000040800F2
:10000000D0040020E1220008B5520008B7520008D1
:10001000BB520008BF520008C35200080000000095
:10002000000000000000000000000000C7520008AF
:10003000C952000800000000CB520008CD52000851
:10004000FB220008FB220008FB220008FB2200081C
:10005000FB220008FB220008FB220008D152000806
:10006000FB220008FB220008FB220008FB220008FC
:10007000FB220008FB220008FB220008FB220008EC
:10008000FB220008FB220008FB220008FB220008DC
:10009000FB220008FB220008FB220008FB220008CC
:1000A000FB220008FB220008FB220008FB220008BC
:1000B000E9520008D3520008FB220008FB22000886
:1000C000FB220008FB220008FB220008FB2200089C
:1000D000FB220008CF520008FB220008FB22000888
:1000E000FB220008FB220008FB220008FB2200087C
:1000F000FB220008FB220008FB220008FB2200086C
:10010000FB220008FB22000809530008FB2200081C
:10011000FB220008FB220008FB220008FB2200084B
:10012000FB220008FB220008FB220008FB2200083B
:10013000DFF80CD005F022FA00480047E95100082A
:10014000D00400200CB50020019000906C4800689D
:1001500040F480306A49086000BF6948006800F4D4
:10016000003000900198401C0190009818B9019847
:10017000B0F5A06FF1D16248006800F4003010B112
:100180000120009001E0002000900098012843D158
:100190005C48006840F010005A4908600846006852
:1001A00020F0030008600846006840F00200086084
:1001B00053484068524948600846406848600846CD
:1001C000406840F4806048600846406820F47C1035
:1001D00048600846406840F4E810486008460068F7
:1001E00040F08070086000BF4548006800F0007073
:1001F0000028F9D04248406820F003004049486098
:100200000846406840F00200486000BF3C48406833
:1002100000F00C000828F9D10CBD10B5FFF792FFD3
:1002200010BD10B53648006840F001003449086040
:10023000084640683449084031494860084600682B
:10024000324908402E4908600846006820F48020A2
:1002500008600846406820F4FE0048604FF41F0024
:100260008860FFF7DAFF4FF000602949086010BD91
:1002700010B5002100200022214B5B6803F00C0127
:1002800021B1042906D0082928D107E0214B224CAE
:10029000236027E01F4B204C236023E0184B5B6852
:1002A00003F47010164B5B6803F48032022303EBF7
:1002B000904022B9194B4343174C23600DE0104B7B
:1002C0005B6803F4003323B1144B4343124C2360A7
:1002D00003E0104B4343104C236003E00D4B0E4CE6
:1002E000236000BF00BF064B5B68C3F303130C4CD5
:1002F000E15C094B1B68CB40074C236010BD00003C
:1003000000100240002002400000FFF8FFFFF6FE50
:1003100008ED00E000127A000000002000093D0016
:100320000400002031490143314A1160704770B523
:10033000002100230F22C47804B32D4C246804F458
:10034000E064C4F5E064210AC1F10403CA404478C2
:1003500004FA03F18478144021430901254C0678FE
:10036000A155047804F01F050124AC4005786D11F7
:10037000AD0005F1E025C5F8004109E0047804F07E
:100380001F050124AC401C4D0678761145F8264027
:1003900070BD1A4A0A400243154B1B1F1A60704772
:1003A00039B1134A121D12680243114B1B1D1A600A
:1003B00006E00F4A121D126882430D4B1B1D1A6086
:1003C0007047042808D14FF0E021096941F0040189
:1003D0004FF0E022116107E04FF0E021096921F0C0
:1003E00004014FF0E0221161704700000000FA059F
:1003F0000CED00E000E400E080E100E080FFFF1F82
:1004000010B50446CC48844208D10121042000F0F4
:100410002DFB0021042000F029FB46E0C748844260
:1004200008D10121082000F021FB0021082000F064
:100430001DFB3AE0C248844208D10121102000F09F
:1004400015FB0021102000F011FB2EE0BD48844276
:1004500008D10121202000F009FB0021202000F01C
:1004600005FB22E0B848844208D10121402000F079
:10047000FDFA0021402000F0F9FA16E0B34884426A
:1004800008D10121802000F0F1FA0021802000F045
:10049000EDFA0AE0AE48844207D10121801500F050
:1004A000E5FA0021A01500F0E1FA10BD10B5012118
:1004B000084600F0DBFA0021012000F0D7FA10BD59
:1004C0002DE9F041024600250026002000230024EB
:1004D000002791F803C00CF00F0591F803C00CF051
:1004E000100CBCF1000F03D091F802C04CEA0505D6
:1004F00091F800C0BCF1000F31D0146800202BE04F
:100500004FF0010C0CFA00F3B1F800C00CEA03063E
:100510009E4220D183004FF00F0C0CFA03F7BC432E
:1005200005FA03FC4CEA040491F803C0BCF1280F5F
:1005300006D14FF0010C0CFA00FCC2F814C00AE01E
:1005400091F803C0BCF1480F05D14FF0010C0CFA33
:1005500000FCC2F810C0401C0828D1D31460B1F8C8
:1005600000C0BCF1FF0F34DD546800202EE000F124
:10057000080C4FF0010808FA0CF3B1F800C00CEABF
:1005800003069E4221D183004FF00F0C0CFA03F7B3
:10059000BC4305FA03FC4CEA040491F803C0BCF127
:1005A000280F05D100F1080C08FA0CF8C2F81480E5
:1005B00091F803C0BCF1480F07D100F1080C4FF0CF
:1005C000010808FA0CF8C2F81080401C0828CED3A5
:1005D0005460BDE8F0814FF6FF7101800221817007
:1005E0000421C17070470246002093680B400BB194
:1005F000012000E0002070470146886880B2704703
:1006000002460020D3680B400BB1012000E000201F
:1006100070470146C86880B2704701617047416108
:1006200070470AB1016100E041617047C1607047E5
:100630004FF480320A4382618161826182698269FA
:10064000704702460020434B18684FF680731840ED
:1006500040EA021008433F4B186070473E49C861AA
:100660007047F0B50A46002300240021002500F061
:100670000046B6F1004F02D1364EF16901E0354E29
:100680007168C0F3034583B200F44016B6F5401F0D
:1006900008D121F070612F4E766826F070662D4FDC
:1006A0007E6012E000F48016B6F5801F06D10326A6
:1006B00006FA05F4A14341F0706106E0460D3601EB
:1006C00003FA06F6B14341F0706122B1460D3601DE
:1006D00003FA06F6314300F00046B6F1004F02D1AE
:1006E0001C4EF16101E01B4E7160F0BD30B500227F
:1006F0008B071C0F0F2303FA04F2164B08338C10E0
:1007000053F824309343134C08348D1044F82530AB
:1007100023468C1053F824308C07240F00FA04F47D
:1007200023430C4C08348D1044F8253030BD0A4961
:10073000DC3108607047000000080140000C0140F7
:10074000001001400014014000180140001C01404D
:10075000002001400000014000002042DF48006806
:1007600040F00100DD49086008464068DC49084067
:10077000DA49486008460068DA490840D749086005
:100780000846006820F4802008600846406820F48D
:10079000FE0048604FF41F0088607047CF49096829
:1007A00021F48031CD4A11601146096821F480217D
:1007B0001160B0F5803F03D0B0F5802F0ED106E078
:1007C000C649096841F48031C44A116007E0C34951
:1007D000096841F4A021C14A116000E000BF00BFD8
:1007E000704710B501460022002300204A11012A5B
:1007F00002D1BA4C236806E0022A02D1B74C236A20
:1008000001E0B64C636A01F01F02012494401C40D1
:100810000CB1012000E0002010BD38B50020009090
:100820000024002500BF3120FFF7DBFF05460098BC
:10083000401C00900098B0F5A06F01D0002DF2D0C0
:100840003120FFF7CEFF08B1012400E0002420464C
:1008500038BD01460020A14A106820F0F80040EAA7
:10086000C10010607047A049086070470246002030
:100870009A4B586820F47C1042EA01031843974BC6
:100880005860704798490866704701460020934AAF
:10089000506820F003000843506070478F4840685C
:1008A00000F00C007047014600208C4A506820F090
:1008B000F00008435060704701460020874A5068A6
:1008C00020F4E06008435060704701460020834AEE
:1008D000506820F4605040EAC1005060704729B170
:1008E0007E4A527A02437D4B5A7204E07B4A527A26
:1008F00082437A4B5A7270477B49D83108607047FF
:1009000001460020754A506820F44040084350607A
:1009100070470021714A20321170704A82F820100D
:10092000012802D004280AD104E001216B4A2032B8
:10093000117005E00521694A2032117000E000BF06
:1009400000BF70476949086070476449096A0143FC
:10095000624A11627047654944390860704730B592
:1009600000210022002400235C4D6D6805F00C017D
:1009700021B1042905D0082923D105E05C4D05608B
:1009800022E05B4D05601FE0544D6D6805F4701268
:10099000524D6D6805F48034022505EB92421CB976
:1009A000544D554305600BE04C4D6D6805F4003522
:1009B0001DB1504D5543056002E04D4D5543056056
:1009C00002E04B4D056000BF00BF444D6D6805F06F
:1009D000F0010909484D6B5C0568DD4045603F4DFD
:1009E0006D6805F4E061090A434D6B5C4568DD40C4
:1009F00085603A4D6D6805F46051C90A3E4D6B5CE7
:100A00004568DD40C560354D6D6805F44041890B92
:100A10003A4D6B5CC568B5FBF3F5056130BD29B196
:100A20002E4A526902432D4B5A6104E02B4A526907
:100A300082432A4B5A61704729B1284A926902437E
:100A4000264B9A6104E0254A92698243234B9A61BE
:100A5000704729B1214AD2690243204BDA6104E090
:100A60001E4AD26982431D4BDA61704729B11B4A85
:100A7000D2680243194BDA6004E0184AD268824314
:100A8000164BDA60704729B1144A12690243134BBE
:100A90001A6104E0114A12698243104B1A617047CF
:100AA00012494039086070470F49C86470470B49C4
:100AB000C87170470948406A40F080700749486231
:100AC000704701460020054A92680A400AB1012099
:100AD00000E0002070470149887270470010024012
:100AE0000000FFF8FFFFF6FE000042428004424291
:100AF00000127A0000093D001400002024000020AC
:100B000010B50446FE48844208D10121C014FFF705
:100B1000ADFF0021E014FFF7A9FFC4E0B4F1804F5E
:100B200008D101210846FFF7AEFF00210120FFF7A1
:100B3000AAFFB8E0F348844208D101210220FFF760
:100B4000A2FF00210220FFF79EFFACE0EE488442A6
:100B500008D101210420FFF796FF00210420FFF7B0
:100B600092FFA0E0E948844208D101210820FFF764
:100B70008AFF00210820FFF786FF94E0E4488442C2
:100B800008D101211020FFF77EFF00211020FFF780
:100B90007AFF88E0DF48844208D101212020FFF756
:100BA00072FF00212020FFF76EFF7CE0DA488442CC
:100BB00008D101214014FFF759FF00216014FFF70D
:100BC00055FF70E0D548844209D10121C804FFF7E0
:100BD0004DFF00214FF40020FFF748FF63E0D048AD
:100BE000844209D101210805FFF740FF00214FF49D
:100BF0008010FFF73BFF56E0CA48844209D101212B
:100C00004805FFF733FF00214FF40010FFF72EFFD8
:100C100049E0C548844208D101214020FFF733FF55
:100C200000214020FFF72FFF3DE0C048844208D15B
:100C300001218020FFF727FF00218020FFF723FFFD
:100C400031E0BB48844208D101218015FFF71BFF2A
:100C50000021A015FFF717FF25E0B648844209D10F
:100C600001210804FFF702FF00214FF48030FFF755
:100C7000FDFE18E0B048844209D101214804FFF785
:100C8000F5FE00214FF40030FFF7F0FE0BE0AB481B
:100C9000844208D101218804FFF7E8FE00214FF4C7
:100CA0008020FFF7E3FE10BD00220288944B98429B
:100CB0000ED0994B98420BD0B0F1804F08D0914B99
:100CC000984205D0904B984202D0904B984204D164
:100CD0004FF68F731A404B881A438D4B984207D0BA
:100CE0008C4B984204D04FF6FF431A40CB881A43EE
:100CF00002808B8883850B880385814B98420BD0BB
:100D0000854B984208D08B4B984205D08A4B98422D
:100D100002D08A4B984201D10B7A03860123838249
:100D2000704770B5002400220023058C4FF6FE7634
:100D300035400584028C8388048B4FF68F752C40D8
:100D4000B51E2C400D882C43751E2A400D892A4360
:100D50004D882A436A4DA8420BD06F4DA84208D057
:100D6000744DA84205D0744DA84202D0734DA842DC
:100D700013D14FF6F7752A404D892A434FF6FB757C
:100D80002A408D882A434FF6FF652B404FF6FF55CA
:100D90002B408D892B43CD892B4383800483CD88C1
:100DA0008586028470BD70B5002400220023058C66
:100DB0004FF6EF7635400584028C8388048B48F625
:100DC000FF752C404FF6FF452C400D884FF6FF76FF
:100DD00006EA05252C434FF6DF752A400D8906EA01
:100DE00005152A434D8806EA05152A43444DA842B5
:100DF00002D0494DA8421DD14FF67F752A404D893A
:100E00004FF6FF7606EA05152A434FF6BF752A40CE
:100E10008D8806EA05152A434FF6FF352B404FF221
:100E2000FF752B408D8906EA85052B43CD8906EA9F
:100E300085052B4383800483CD880587028470BD9C
:100E400070B5002400220023058C4FF6FF66354064
:100E50000584028C8388848B4FF68F752C404FF667
:100E6000FC752C400D882C434FF6FF552A400D8908
:100E70004FF6FF7606EA05252A434D8806EA052542
:100E80002A431F4DA84202D0234DA8421DD14FF244
:100E9000FF752A404D894FF6FF7606EA05252A435D
:100EA0004FF6FF352A408D8806EA05252A434EF67F
:100EB000FF752B404DF6FF752B408D8906EA051511
:100EC0002B43CD8906EA05152B4383808483CD8887
:100ED0008587028470BD70B5002200230024058C34
:100EE0004EF6FF7635400584038C8488828B48F665
:100EF000FF752A404FF6FF452A400D8820E000008C
:100F0000002C01400004004000080040000C00409C
:100F1000001000400014004000340140004C01402B
:100F2000005001400054014000180040001C0040E7
:100F300000200040004001400044014000480140C2
:100F40004FF6FF7606EA05252A434DF6FF752B403E
:100F50000D8906EA05352B434D8806EA05352B43F6
:100F6000FA4DA84202D0FA4DA84208D14BF6FF75BF
:100F70002C408D894FF6FF7606EA85152C43848038
:100F80008283CD88A0F84050038470BD828B4FF2DD
:100F9000FF331A408283828B4FF6FF7303EA0123EB
:100FA0001A4382837047F0B50C4615460022002193
:100FB0000026078C4EF6FF7C07EA0C070784828B1D
:100FC000018C4FF6FF7707EA043640F6FF473A40B8
:100FD0004FF6FF7707EA05273A434FF6FF7707EA10
:100FE00003373A43D94FB8420ED0D94FB8420BD04D
:100FF000B0F1804F08D0D74FB84205D0D64FB84295
:1010000002D0D64FB84206D14DF6FF77394046F4AC
:101010008057394305E047F6FF57394044F480577D
:10102000394382830184F0BD828B4FF6F3731A40FB
:101030008283828B0A4382837047F0B50C46154643
:10104000002200210026078C4FF6FF6C07EA0C07F0
:101050000784828B018C4FF6FF7707EA04264FF650
:101060000C773A404FF6FF7707EA03172F433A43CE
:10107000B64FB8420ED0B64FB8420BD0B0F1804F49
:1010800008D0B44FB84205D0B34FB84202D0B34FE6
:10109000B84206D14FF6FF57394046F480773943BE
:1010A00005E04FF2FF57394044F48077394382839B
:1010B0000184F0BD028B4FF2FF331A400283028B92
:1010C0004FF6FF7303EA01231A4302837047F0B51A
:1010D0000C461546002200210026078C4FF6EF7CB7
:1010E00007EA0C070784028B018C4FF6FF7707EAAB
:1010F000041640F6FF473A404FF6FF7707EA0337FA
:101100003A434FF6FF7707EA05273A438F4FB84235
:101110000ED08F4FB8420BD0B0F1804F08D08D4F1A
:10112000B84205D08C4FB84202D08C4FB84206D19D
:101130004FF6DF77394046F01007394305E04FF6A8
:101140005F77394044F01007394302830184F0BDD2
:10115000028B4FF6F3731A400283028B0A43028319
:101160007047F0B50C46154600220021068C4FF65C
:10117000FE773E400684028B018C4FF60C7632409F
:101180007E1C06EA03162E433243704EB0420ED048
:101190006F4EB0420BD0B0F1804F08D06D4EB042D0
:1011A00005D06D4EB04202D06C4EB04206D14FF623
:1011B000FD76314044F00106314305E04FF6F57607
:1011C000314044F00106314302830184F0BD70B523
:1011D00005460C465D4885420ED05D4885420BD0E1
:1011E000B5F1804F08D05B48854205D05A4885420A
:1011F00002D05A48854200D100E000BF208850B993
:101200002389A28861882846FFF7ABFFE18828463A
:10121000FFF79EFF25E0208804280AD12389A288B1
:1012200061882846FFF753FFE1882846FFF742FF11
:1012300017E0208808280AD12389A28861882846D7
:10124000FFF7FBFEE1882846FFF7EEFE09E0238961
:10125000A28861882846FFF7A6FEE1882846FFF7A6
:1012600095FE70BD2DE9F04105460C46002601278C
:10127000608808B9022600E00026A088012801D174
:10128000022700E001272088A0B92389A28861886D
:101290002846FFF766FFE1882846FFF759FF2389B4
:1012A0003A4631462846FFF712FFE1882846FFF705
:1012B00001FF13E02389A28861882846FFF707FF12
:1012C000E1882846FFF7F6FE23893A46314628464C
:1012D000FFF747FFE1882846FFF73AFFBDE8F081B6
:1012E0000A884B881A438B881A43CB881A430B8988
:1012F0001A434B891A438B891A43A0F8442070473C
:101300004FF6FF71818000210180C1804180017210
:1013100070470021018041808180C180018141812D
:101320008181C1817047002101804180012181803C
:101330000021C180018170470021018041808180AE
:10134000C18001814181818170470000002C0140F2
:10135000003401400004004000080040000C004040
:1013600021B1028842F00102028004E002884FF6B7
:10137000FE731A400280704731B1B0F8442042F445
:101380000042A0F8442005E0B0F84420C2F30E0269
:10139000A0F8442070471AB183890B43838102E08F
:1013A00083898B43838170478182704741EA0203BE
:1013B000A0F8483070471AB183890B43838102E05B
:1013C00083898B438381704701894FF6F8721140FE
:1013D000018170470A46002101894FF68F73194039
:1013E00011430181704730B504460D462946204619
:1013F000FFF7F0FF208940F00700208130BD2DE984
:10140000F04104460D4616461F46602D06D13B4668
:10141000012231462046FFF75AFE05E03B460122F5
:1014200031462046FFF79DFE29462046FFF7D2FFB2
:10143000208940F007002081BDE8F08130B50C46DE
:1014400000210189C9B24FF6FF7505EA032515434E
:1014500025432943018130BD2DE9F04105460E4663
:1014600017469846002443463A4631462846FFF739
:10147000E5FF2C894FF6F870044044F007044FF65E
:101480008F70044044F070042C81BDE8F081F0B509
:1014900004460D4616461F463B4632462946204620
:1014A000FFF7CCFF208940F480402081F0BD01850A
:1014B000828270470A46002101884FF68F731940D7
:1014C000114301807047F0B50C4615461E460021B9
:1014D000002200230189028B038C4FF6F8773940F4
:1014E00021434FF6FC473A4040F201173A434FF68A
:1014F000DD773B404FF6FF7707EA06172F433B4364
:10150000018102830384F0BD0A460021018B4FF65E
:101510008F7319401143018370470A460021018BE4
:1015200048F6FF7319404FF6FF7303EA022319438D
:10153000018370470A460021818B4FF68F73194053
:101540001143818370470A460021818B48F6FF735F
:1015500019404FF6FF7303EA022319438183704752
:1015600021B1028842F08002028004E002884FF636
:101570007F731A400280704721B1828842F00402D2
:10158000828004E082884FF6FB731A4082807047A5
:1015900021B1828842F00802828004E082884FF6FE
:1015A000F7731A408280704721B1828842F00102AD
:1015B000828004E082884FF6FE731A408280704772
:1015C0000A460021018B4FF6F7731940114301833E
:1015D00070470A460021018B4FF2FF7319404FF606
:1015E000FF7303EA02231943018370470A4600216F
:1015F000818B4FF6F77319401143818370470A4678
:101600000021818B4FF2FF7319404FF6FF7303EAFD
:1016100002231943818370470A460021018B4FF64C
:10162000FB7319401143018370470A460021018B67
:101630004FF6FF3319404FF6FF7303EA02231943B5
:10164000018370470A460021818B4FF6FB731940D6
:101650001143818370470A460021818B4FF6FF3387
:1016600019404FF6FF7303EA022319438183704741
:101670000A460021018B4FF67F7319401143018305
:1016800070470A460021018BC1F30E014FF6FF732C
:1016900003EA02231943018370470A460021818B24
:1016A0004FF67F7319401143818370470A4600212A
:1016B000818BC1F30E014FF6FF7303EA0223194336
:1016C000818370470A460021018C4FF6FD73194053
:1016D0001143018470470A460021018C4FF6F773CD
:1016E00019401143018470470A460021018C4FF6CE
:1016F000DF7319404FF6FF7303EA021319430184A5
:1017000070470A460021018C4FF67F7319404FF64F
:10171000FF7303EA02131943018470470A4600214C
:10172000018C4FF6FF5319404FF6FF7303EA022373
:101730001943018470470A460021018C4FF2FF7360
:1017400019404FF6FF7303EA0223194301847047DF
:101750000A460021018C4DF6FF7319404FF6FF73C6
:1017600003EA023319430184704730B50023012492
:101770008C40A3B2048C9C430484048C02FA01F5CF
:10178000ADB22C43048430BD30B5002304248C401A
:10179000A3B2048C9C430484048C02FA01F5ADB21C
:1017A0002C43048430BD70B5034600200024184645
:1017B000183001258D40ACB21D8CA5431D8409B1A4
:1017C000082909D100EB6100056825F07005056066
:1017D0000568154305600EE00D1FC5F34E0528444E
:1017E000056825F4E045056005684FF6FF7606EAD2
:1017F00002263543056070BD21B1028842F0020225
:10180000028004E002884FF6FD731A4002807047A0
:1018100021B1028842F00402028004E002884FF6FF
:10182000FB731A400280704721B1828842F0800227
:10183000828004E082884FF67F731A40828070476E
:1018400002884FF6F7731A40028002880A4302802A
:10185000704782884FF68F731A40828082880A43CD
:101860008280704702894FF6F8731A40028102891C
:101870000A430281704702894FF67F731A40028142
:1018800002890A43028170478184704781857047CD
:10189000818670470187704781877047A0F84010A4
:1018A000704702884FF6FF431A40028002880A43BD
:1018B000028070470146888E70470146088F704746
:1018C0000146888F70470146B1F8400070470146D5
:1018D000888C70470146088D704702460020138AA5
:1018E0000B400BB1012000E000207047CA43028288
:1018F000704730B50246002000230024158A05EA0F
:101900000103958905EA010413B10CB1012000E03F
:10191000002030BDCA4302827047000010B5044663
:10192000FB48844209D101218803FFF79FF8002179
:101930004FF48040FFF79AF832E0F648844209D12C
:1019400001214804FFF79FF800214FF40030FFF712
:101950009AF825E0F048844209D101218804FFF774
:1019600092F800214FF48020FFF78DF818E0EB4843
:10197000844209D10121C804FFF785F800214FF402
:101980000020FFF780F80BE0E548844208D10121F0
:101990000805FFF778F800214FF48010FFF773F87F
:1019A00010BD2DE9F04786B005460E460024A2463C
:1019B00000BFA1460027B08900B100BF2F462C8A86
:1019C0004CF6FF700440F08804432C82AC894EF63C
:1019D000F3100440B08831890843718908430443F7
:1019E000AC81AC8A4FF6FF400440B0890443AC821E
:1019F00001A8FEF7B4FFC648874202D1DDF810A067
:101A000001E0DDF80CA0A88900F4004040B10AEB29
:101A1000CA0000EB0A1031684900B0FBF1F807E09A
:101A20000AEBCA0000EB0A1031688900B0FBF1F83C
:101A30006420B8FBF0F004012009642101FB108947
:101A4000A88900F4004040B1322000EBC900B0FB8F
:101A5000F1F000F00700044308E0322000EB091029
:101A60006421B0FBF1F000F00F0004432C8106B0BC
:101A7000BDE8F0874FF41651016000218180C180DC
:101A800001810C21418100218181704710B50246FE
:101A90000020108A4FF2FF0318400B884C88234324
:101AA0008C882343CC8823431843108210BD002127
:101AB000018041808180C180704721B1828942F4D8
:101AC0000052828104E082894DF6FF731A408281C0
:101AD0007047F0B50346002400260025002040F69C
:101AE0006A17B94200D100BF1846C1F3421401F091
:101AF0001F06012707FA06F5012C01D10C3004E07E
:101B0000022C01D1103000E014301AB107682F43C5
:101B1000076002E00768AF430760F0BD1AB1838A2F
:101B20000B43838202E0838A8B4383827047028A5D
:101B30004FF6F0731A400282028A0A43028270470B
:101B400082894FF2FF731A40828182890A4382811F
:101B5000704721B1828942F00202828104E08289C9
:101B60004FF6FD731A4082817047028A4FF6DF7389
:101B70001A400282028A0A430282704721B1028A15
:101B800042F48042028204E0028A4BF6FF731A405C
:101B900002827047C1F3080282807047014688883C
:101BA000C0F308007047818941F0010181817047CD
:101BB000028BD2B20283028B42EA01220283704777
:101BC000028B02F47F420283028B0A430283704736
:101BD00021B1828A42F02002828204E0828A4FF69A
:101BE000DF731A408282704721B1828A42F010026C
:101BF000828204E0828A4FF6EF731A408282704735
:101C000021B1828A42F00802828204E0828A4FF681
:101C1000F7731A408282704721B1828942F40042F0
:101C2000828103E08289C2F30E028281704721B172
:101C3000828A42F40062828204E0828A4FF2FF7359
:101C40001A4082827047828A4FF6FB731A40828262
:101C5000828A0A438282704721B1828A42F002025C
:101C6000828204E0828A4FF6FD731A4082827047B6
:101C700002460020B1F5007F00D100BF13880B4061
:101C80000BB1012000E00020704701F40072B2F5B2
:101C9000007F00D100BFCA430280704770B5024682
:101CA000002400230025002040F66A16B14200D12E
:101CB00000BFC1F3421501F01F03012606FA03F32A
:101CC000012D02D19689334006E0022D02D1168AF9
:101CD000334001E0968A33400C12012606FA04F4E0
:101CE0001688344013B10CB1012000E0002070BD13
:101CF00010B50022002340F66A14A14200D100BFB3
:101D00000A1201249440A3B2DC43048010BD0000F9
:101D1000003801400044004000480040004C0040B2
:101D20000050004001460020FE4A106800F03800D4
:101D3000084310607047FB49096821F00801F94A1F
:101D4000116011460968014311607047F54909683F
:101D500021F01001F34A1160114609680143116036
:101D60007047F148EF494860F04848607047EE48D6
:101D7000EC494860ED4848607047EA48006940F027
:101D80008000E84908617047E648006940F080003B
:101D9000E449086170470420E249C96801F0010183
:101DA00009B101200EE0DF49C96801F0040109B161
:101DB000022007E0DB49C96801F0100109B10320E6
:101DC00000E00420704700B502460423FFF7E3FF5C
:101DD000034603E0FFF7DFFF0346521E012B01D14C
:101DE000002AF7D102B90523184600BD30B50446D4
:101DF00004254FF43020FFF7E6FF0546042D17D1E8
:101E0000C848006940F00200C649086108464461BC
:101E1000006940F0400008614FF43020FFF7D3FF25
:101E20000546C048006941F6FD710840BD4908619A
:101E3000284630BD10B504244FF43020FFF7C3FF0F
:101E40000446042C16D1B748006940F00400B54997
:101E500008610846006940F0400008614FF43020F6
:101E6000FFF7B1FF0446AF48006941F6FB71084037
:101E7000AC490861204610BD00B502460423FFF7B7
:101E80008AFF034603E0FFF786FF0346521E012B3D
:101E900001D1002AF7D102B90523184600BD10B5BB
:101EA00004244FF43020FFF7E7FF0446042C16D13A
:101EB0009C48006940F004009A490861084600699E
:101EC00040F0400008614FF43020FFF7D5FF044692
:101ED0009448006941F6FB71084092490861204628
:101EE00010BD00208F49C96901F0020109B101202C
:101EF00000E00020704730B5A5250424FFF7F1FF6E
:101F000000B100254FF43020FFF75DFF0446042C9C
:101F10003AD18548834988608448886008460069CA
:101F200040F0200008610846006940F04000086168
:101F30004FF43020FFF747FF0446042C1BD17948AB
:101F4000006941F6DF71084076490861084600697A
:101F500040F01000086176480580E002FFF733FF8B
:101F60000446052C10D06F48006941F6EF71084017
:101F70006C49086108E0052C06D06A48006941F602
:101F8000EF71084067490861204630BD78B50646C4
:101F90000C46042500200090E802FFF714FF0546D8
:101FA000042D24D15F48006940F001005D490861BB
:101FB0003480E802FFF707FF0546042D10D1B01C5E
:101FC0000090200C00990880E802FFF7FCFE05460F
:101FD0005448006941F6FE7108405249086106E024
:101FE0005048006941F6FE7108404E490861284694
:101FF00078BD70B504460D460426F002FFF7E3FEF7
:102000000646042E11D14748006940F001004549B9
:1020100008612580F002FFF7D6FE064641480069B8
:1020200041F6FE7108403F490861304670BD70B509
:1020300005460E460424E002FFF7C5FE0446042CC4
:1020400017D13948374988603848886008460069A0
:1020500040F0100008612E80E002FFF7B4FE044655
:10206000052C06D02F48006941F6EF7108402D4934
:102070000861204670BD2DE9F04304464FF6FF7617
:102080003746B046B1460425E443E6B2C4F3072719
:10209000C4F307484FEA1469E802FFF794FE0546C7
:1020A000042D49D120481F4988602048886008468F
:1020B000006940F010000861FF2E06D01C4808306F
:1020C0000680E802FFF77FFE0546042D08D1FF2FAA
:1020D00006D017480A300780E802FFF774FE05466D
:1020E000042D0AD1B8F1FF0F07D011480C30A0F829
:1020F0000080E802FFF767FE0546042D0AD1B9F11A
:10210000FF0F07D00A480E30A0F80090E802FFF752
:102110005AFE0546052D0FD00248006941F6EF71C1
:10212000084007E00020024023016745AB89EFCD5E
:1021300000F8FF1F664908612846BDE8F08330B506
:10214000054604244FF43020FFF73DFE0446042CDE
:1021500041D160485E4988605F48886008460069F0
:1021600040F0200008610846006940F04000086126
:102170004FF43020FFF727FE0446042C22D15448A8
:10218000006941F6DF71084051490861084600695D
:1021900040F0100008611DB100205049088002E0A5
:1021A000A5204E4908804FF43020FFF70CFE04466E
:1021B000052C10D04648006941F6EF7108404449AB
:1021C000086108E0052C06D04148006941F6DF713E
:1021D00008403F490861204630BDF0B505460E462F
:1021E000174604243B483A4988603B488860E0022F
:1021F000FFF7E9FD0446042C19D13548006940F089
:1022000010003349086147F0F80030432843334950
:10221000891C0880E002FFF7D6FD0446052C06D095
:102220002B48006941F6EF710840294908612046B2
:10223000F0BD2748C069800870472548006A70478C
:1022400000202349096801F0200109B1012000E0C4
:102250000020704729B11E4A126902431C4B1A61C3
:1022600004E01B4A12698243194B1A617047014608
:102270000020012908D1164AD26902F001020AB1F0
:10228000012008E0002006E0114AD2680A400AB1A5
:10229000012000E0002070470D49C860704704200D
:1022A0000B49C96801F0010109B101200EE008499C
:1022B000C96801F0040109B1022007E00449C968B6
:1022C00001F0100109B1032000E004207047000074
:1022D0000020024023016745AB89EFCD00F8FF1FC6
:1022E0000648804706480047FEE7FEE7FEE7FEE7B0
:1022F000FEE7FEE7FEE7FEE7FEE7FEE72302000853
:102300003101000810B5FEF729FA4FF48030FEF7CE
:1023100045FAFEF782FAFE4908700846007801285F
:1023200026D11020FFF712FD0220FFF7FBFC002052
:10233000FEF7B9FA4FF48060FEF7BEFA0020FEF710
:10234000C4FA4FF4E0114FF48030FEF78FFA012009
:10235000FEF798FA00BF3920FEF743FA0028FAD0BA
:102360000220FEF792FA00BFFEF798FA0828FBD188
:1023700001217D20FEF760FB01210846FEF769FB85
:1023800001210220FEF765FB01210420FEF761FB1D
:1023900001210820FEF75DFB01218803FEF74CFBBD
:1023A00010BD10B500214FF00060FDF7F2FF4FF4B3
:1023B000E060FDF7B7FF4FF4C060FDF7B3FF1C20EE
:1023C000D44908700020487088700120C870084601
:1023D000FDF7ADFF3220CF49087000204870012082
:1023E0008870C8700846FDF7A2FF4FF4A060FDF7A3
:1023F00099FF1D20C749087000204870887001208F
:10240000C8700846FDF793FF4FF48060FDF78AFF20
:102410001E20C04908700020487088700120C870D4
:102420000846FDF784FF10BD10B54FF08040FEF761
:1024300067FB6320B849888041F61F400880002070
:10244000C88048804FF08040FEF72EFC01218807AD
:10245000FFF74CFA012211469007FEF79CFF00217E
:102460004FF08040FEF77CFF10BD10B54FF6FF70B7
:10247000A949888000200880C8804880A748FEF7C6
:1024800013FC00231A461946A448FFF700F8002160
:10249000A248FFF7F9F901221146A048FEF77BFF99
:1024A00000219E48FEF75CFF10BD10B59C48FEF76A
:1024B00027FB00209849088048804FF6FF708880ED
:1024C0000020C88008729648FEF7EEFB01224721E3
:1024D0009348FEF7ECFF00219148FFF741F80021F7
:1024E0008F48FFF7D1F900218D48FEF739FF10BD65
:1024F00010B58C48FEF704FB09208749888041F617
:102500001F4008800020C88048808648FEF7CCFB2A
:1025100001218448FFF7EAF9012211468148FEF7BC
:102520003AFF00217F48FEF71BFF10BD10B54FF4A6
:10253000E1307D49086000208880C880088188815A
:102540000C2048817948FFF72CFA00207849088050
:1025500048804FF4007088800020C8807348FFF7DF
:1025600095FA40217148FFF790FB01216F48FFF772
:10257000A4FA10BD10B54FF4AE606E490880032078
:1025800088701020C8706C48FDF79AFF10BD10B518
:102590004FF4007067490880032088701820C870C5
:1025A0006648FDF78DFF4FF4806062490880042083
:1025B000C8706248FDF784FF10BD10B504205D4966
:1025C0000880C8705E48FDF77BFF10BD10B54FF462
:1025D0008050584908800420C8705A48FDF770FFA1
:1025E0004FF40050534908801020C87003208870B1
:1025F0005448FDF765FF10BD10B540204D490880D7
:102600001020C870032088704E48FDF759FF8020C5
:10261000484908801020C870032088704948FDF799
:102620004FFF10BD10B50F2042490880032088706D
:102630000420C8704048FDF743FF10BD10B50446A4
:1026400021463D48FDF7CFFF10BD70B504460D464D
:1026500036480088E1B23548FFF79CFA00BF4021B8
:102660003248FFF705FB0028F9D0204670BD05E091
:10267000082100BF0A00A1F10101FBD10200A0F175
:102680000100F5D1704710B5044603E040F24C401C
:10269000FFF7EDFF2000A4F10104F7D110BD2DE9F3
:1026A000F04107460C461546002619E080212548D2
:1026B000FDF7B3FF3846FFF7DAFF80212148FDF729
:1026C000AEFF40211F48FDF7A8FF2046FFF7CFFFD0
:1026D00040211C48FDF7A3FF1420FFF7D4FF761C10
:1026E000AE42E3D3BDE8F08170B504460025102169
:1026F0001148FDF794FF20210F48FDF78EFF4FF49E
:1027000080610D48FDF789FF40210B481CE0000067
:1027100028000020380000209C0000200004004019
:1027200000080040000C0040C000002000380140BC
:102730003C0000202A000020001801400008014051
:102740000014014000100140FDF769FF4FF4807153
:10275000FE48FDF764FF0020FD4908800021FD4888
:10276000FFF792F801218807FEF7FAFD0121F948E9
:10277000FEF7F6FD00BF2078F54909888842FAD1B6
:1027800000214FF08040FEF7EBFD0021F148FEF7FD
:10279000E7FDF048FFF79BF8EF4908704FF48071B0
:1027A000EA48FDF73AFF0020E94908800021E9489E
:1027B000FFF76AF801218807FEF7D2FD0121E548FD
:1027C000FEF7CEFD00BF6078E14909888842FAD162
:1027D00000214FF08040FEF7C3FD0021DD48FEF7E9
:1027E000BFFDDC48FFF773F8DB4948704021D7484C
:1027F000FDF713FF0020D64908800021D548FFF7D8
:1028000043F801218807FEF7ABFD0121D148FEF70F
:10281000A7FD00BFA078CE4909888842FAD10021DF
:102820004FF08040FEF79CFD0021CA48FEF798FD5E
:10283000C848FFF74CF8C84988704FF48061C34816
:10284000FDF7EDFEC448837842780178C3A002F01A
:10285000B7FE284670BD10B504461021BB48FDF7F1
:10286000DEFE2021B948FDF7D8FE4FF48061B7485D
:10287000FDF7D3FE4021B548FDF7D1FE4FF480713E
:10288000B248FDF7CCFE0020B14908800021B148D4
:10289000FEF7FAFF01218807FEF762FD0121AD482E
:1028A000FEF75EFD00BFAB48FFF711F8FF28FADB2B
:1028B00000214FF08040FEF753FD0021A548FEF7B0
:1028C0004FFDA348008820704FF480719F48FDF7AA
:1028D000A4FE00209E49088000219E48FEF7D4FFF8
:1028E00001218807FEF73CFD01219A48FEF738FDDB
:1028F00000BF9848FEF7EBFFFF28FADB00214FF0FE
:102900008040FEF72DFD00219248FEF729FD9048FA
:102910000088607040218D48FDF77FFE00208C49C3
:10292000088000218B48FEF7AFFF01218807FEF7E2
:1029300017FD01218748FEF713FD00BF8548FEF70C
:10294000C6FFFF28FADB00214FF08040FEF708FDAC
:1029500000218048FEF704FD7D480088A0704FF4F8
:1029600080617A48FDF75BFEA3786278217883A0C6
:1029700002F026FE10BD10B58948FFF7B5FE764877
:1029800000785A2816DD7448007873498978401A0F
:102990003C280FDD704800786F494978401A3C2880
:1029A00008DD6D4880786C494978401A502801DA72
:1029B000032010BD684A1278674B9B78D11A002912
:1029C00001DB0A4600E04A42322A0FDA624A1278F4
:1029D000614B5B78D01A002801DB024600E04242DE
:1029E000322A03DA5C4A1278642A0ADC5A4A1278DC
:1029F000594B9B78D21A0F2A05DA574A5278C82ABF
:102A000001DD0220D5E7544A1278534B9B78D11A46
:102A1000002901DB0A4600E04A421E2A15DA4E4A26
:102A200012784D4B5B78D01A002801DB024600E09B
:102A300042421E2A09DA484A1278282A05DA464A0A
:102A40005278282A01DA0420B3E743480078424943
:102A5000497888420CDA404880783F494978884272
:102A600006DA3D4840783C490978401A0A2812DCC9
:102A7000394800783849497888420EDA36488078F3
:102A800035494978884208DA33484078324909782C
:102A9000401A052801DD05208BE72F4880782E4954
:102AA0004978401A50280ADD2B4840782A4909788D
:102AB000401A502803DD284880785A2811DC26481F
:102AC000807825494978401A32280CDD2248007860
:102AD00021494978401A412805DD1F48407850288F
:102AE00001DD012065E7002063E72DE9F05F044682
:102AF0008946A1B22B48FDF792FD1FFA89F12948BA
:102B0000FDF78DFD00212848FEF7BEFE1FFA89F172
:102B10002448FDF782FD0A20FFF7A9FD1FFA89F17D
:102B20002048FDF77CFD6420FFF7A1FD00BFA1B2A6
:102B30001C48FDF758FD0028F9D001211A48FEF77E
:102B40000FFC00BFA1B2174830E0000000180140A0
:102B500044000020000400405D0000205265643AFB
:102B60002025642020426C75653A2025642020478A
:102B70007265656E3A2025640A0000005265642A79
:102B80002A3A2025642020426C75652A2A3A20259D
:102B9000642020477265656E2A2A3A2025640A005F
:102BA0005A0000200010014000080040FDF71BFD06
:102BB0000028C7D10021F948FEF7D2FBF748FEF7FD
:102BC00086FE8346584602F026FC0746F44AF54B3B
:102BD00002F0B2FB054602F02FFC82465046BDE8EB
:102BE000F09F10B50120FFF729FD01280AD102202E
:102BF000FFF749FD0120FFF721FD012800D110BD9D
:102C00000020FCE70020FAE710B50820FFF716FDCA
:102C100001280DD10220FFF736FD0220FFF733FD1A
:102C20000820FFF70BFD012800D110BD0020FCE7B4
:102C30000020FAE770B504460D462146DA48FDF754
:102C4000ECFC2846FFF713FD2146D748FDF7E7FCCB
:102C500070BD10B501241BE04021D348FDF7DDFC19
:102C600040F2DC50FFF703FD4021CF48FDF7D7FCD1
:102C70008021CD48FDF7D1FC40F2DC50FFF7F7FC96
:102C80008021C948FDF7CBFC1420FFF7FCFC641C35
:102C9000022CE1DD10BD10B54FF4B9614020FFF703
:102CA000C9FF4FF4B9618020FFF7C4FF1420FFF77C
:102CB000EAFC10BD10B54FF4BE614020FFF7BAFF2B
:102CC0004FF4BE618020FFF7B5FF1420FFF7DBFC57
:102CD00010BD10B5044604E0FFF7DDFF0220FFF74A
:102CE000D2FC2000A4F10104F6D110BD10B50446B9
:102CF00004E0FFF7DFFF0220FFF7C5FC2000A4F18E
:102D00000104F6D110BD10B50A20FFF7E2FF10E074
:102D1000FFF7C1FFFFF765FF58B1A4480068401CEA
:102D2000A249086008460068022802D10020086015
:102D300000E0EDE700BF10E0FFF7ADFFFFF751FF48
:102D400058B99A480068401C9849086008460068CD
:102D5000022802D10020086000E0EDE700BFFFF785
:102D600078FF10BD10B50A20FFF7C0FF10E0FFF795
:102D7000A1FFFFF749FF58B18C480068401C8B4900
:102D8000086008460068022802D10020086000E0C0
:102D9000EDE700BF10E0FFF78DFFFFF735FF58B9F3
:102DA00082480068401C8149086008460068022883
:102DB00002D10020086000E0EDE700BFFFF749FF07
:102DC00010BD10B501217A48FDF70DFC10BD10B5FE
:102DD00002217748FDF707FC10BD10B504217448A7
:102DE000FDF701FC10BD10B508217148FDF7FBFB94
:102DF00010BD70B505460C4680216B48FDF70DFCF3
:102E00002846FFF734FC80216748FDF708FC402185
:102E10006548FDF702FC2046FFF729FC4021624887
:102E2000FDF7FDFB1420FFF72EFC70BD10B5044626
:102E30005F48FDF7E1FB00F00F005E4908700846AF
:102E400000780D284BD2DFE800F04A07111B254A15
:102E5000404A2E4A4A4A370040F6B830001BA0F1DB
:102E60002D0103222046FFF71AFC3FE040F6B83060
:102E7000001BA0F1230101222046FFF710FC35E0E2
:102E800040F6B830001BA0F1230101222046FFF7D5
:102E900006FC2BE040F6B830011B012204F12300B0
:102EA000FFF7FDFB22E040F6B830011B032204F1DE
:102EB0002D00FFF7F4FB19E040F6B830011B0222A9
:102EC00004F12300FFF7EBFB10E040F6B830001BE5
:102ED000A0F1660104F16400FFF78BFF06E040F209
:102EE000AA5140F20E60FFF784FF00BF00BF10BD83
:102EF00010B504462E48FDF77FFB00F00F002D496A
:102F00000870084600780D283FD2DFE800F03E0741
:102F10000F171F3E373E273E3E3E2F0002224FF442
:102F2000AF6140F2DC50FFF7BAFB35E001224FF40D
:102F3000AF6140F2DC50FFF7B2FB2DE001224FF40D
:102F4000AF6140F2DC50FFF7AAFB25E0012240F21E
:102F5000DC514FF4C860FFF7A2FB1DE0022240F2F3
:102F6000DC514FF4C860FFF79AFB15E0012240F2F4
:102F7000DC514FF4C860FFF792FB0DE040F6B8302B
:102F8000011B2046FFF735FF06E040F6B830011B75
:102F90002046FFF72EFF00BF00BF10BD0008004015
:102FA0003108AC1C5A044E40001001407C00002047
:102FB000001801406400002010B50446FE48FDF7EB
:102FC0001BFB00F00F00FD490870084600780D2833
:102FD00049D2DFE800F04807111B254840482E4839
:102FE0004848370040F6B830001BA0F132010222F9
:102FF0002046FFF754FB3EE040F6B830001BA0F13E
:10300000280101222046FFF74AFB34E040F6B830A1
:10301000001BA0F1280101222046FFF740FB2AE017
:1030200040F6B830011B012204F12800FFF737FBFE
:1030300021E040F6B830011B022204F13200FFF714
:103040002EFB18E040F6B830011B012204F12800E5
:10305000FFF725FB0FE040F6B830001B811E20462D
:10306000FFF7C7FE07E040F6B830001B811E204680
:10307000FFF7BFFE00BF00BF10BD10B5FFF742F95C
:10308000FFF78FF9FFF783FAFFF750FAFFF772FAAD
:10309000FFF7CAF9FFF791FAFFF7E7F9FFF728FA08
:1030A000FFF7AAFAFFF7BEFAFFF7FFF9FFF78EFA6C
:1030B00010BD10B5052240F2EB510846FFF7EFFABC
:1030C00000BFBD48FDF798FA00F00F00BB4908703B
:1030D000012240F2EB510846FFF7E1FAB7480078C9
:1030E0000628EED100BFB448FDF786FA00F00F00C5
:1030F000B2490870084600780628F4D1012240F24F
:10310000EB510846FFF7CBFA10BD10B50A2240F28A
:10311000CD510846FFF7C3FA00BFA748FDF76CFA88
:1031200000F00F00A5490870012240F2CD51084679
:10313000FFF7B5FAA14800780628EED10520FFF781
:10314000A2FA00BF9C48FDF757FA00F00F009B4918
:103150000870084600780628F4D1012240F2CD51CB
:103160000846FFF79CFA10BD10B50F2240F24651F9
:103170000846FFF794FA00BF8F48FDF73DFA00F0CC
:103180000F008E49087001224FF4AF618C20FFF7C9
:1031900086FA8A4800780628EED10520FFF773FAF0
:1031A0000CE08548FDF728FA00F00F00834908700D
:1031B00001224FF4B9610846FFF771FA7F480078A1
:1031C0000628EED110BD10B5232240F2B9510846B1
:1031D000FFF765FA00BF7848FDF70EFA00F00F0020
:1031E00076490870012240F2B9510846FFF757FAB4
:1031F000724800780628EED1012240F2C3510846F9
:10320000FFF74DFA0520FFF73EFA00BF6A48FDF7C9
:10321000F3F900F00F0069490870012240F2B9513A
:103220000846FFF73CFA654800780628EED110BD45
:1032300010B50446224640F2F2510846FFF72FFA35
:1032400010BD10B50446224640F2C6510846FFF7AD
:1032500026FA10BD10B55848FDF7CEF900F00F0062
:10326000564908700DE05448FDF7C6F900F00F000C
:103270005249087001224FF4BD6140F2CD50FFF772
:103280000EFA4E4800780F28EDD110BD10B501227E
:1032900040F2DC510846FFF702FAC820FFF7F3F9C5
:1032A00000204749087009204649087010BD10B534
:1032B000FFF729FDC820FFF7E6F901204149087012
:1032C00010BD10B51E20FFF7BCFFFFF71CFDC82086
:1032D000FFF7D9F902203B49087010BD10B55920FD
:1032E000FFF7AFFFC820FFF7CEF900203449087080
:1032F00035490870324908701AE04FF400514810FF
:10330000FFF7F3FB314908600846006840B1084602
:103310000068222804D22A480078401C28490870F6
:10332000C820FFF7B0F928480078401C26490870EB
:10333000254800780628E0DB2148007801282ADAB1
:103340000220FFF77EFFC820FFF79DF900201E49ED
:1033500008701B4908701AE04FF400514810FFF73D
:10336000C4FB1A4908600846006840B10846006876
:10337000222804D212480078401C11490870C82045
:10338000FFF781F910480078401C0F4908700E487B
:1033900000780628E0DB0A480078012837DA0420A4
:1033A000FFF74FFFC820FFF76EF9002006490870AD
:1033B0000349087027E00000001801406400002065
:1033C0007A0000204C000020790000206C000020D2
:1033D0004FF400514810FFF788FBFE49086008468B
:1033E000006840B108460068222804D2FA480078F4
:1033F000401CF9490870C820FFF745F9F7480078E4
:10340000401CF6490870F54800780628E0DBF248D1
:10341000007801282ADA0820FFF70AFFC820FFF702
:1034200032F90020ED490870EB4908701AE04FF4BA
:1034300000514810FFF759FBE6490860084600684C
:1034400040B108460068222804D2E3480078401CB6
:10345000E1490870C820FFF716F9E0480078401CE1
:10346000DE490870DD4800780628E0DBDA4800789D
:10347000012806DB6420FFF706F90120D84908700F
:1034800002E00020D64908700020D34908700B20C4
:10349000D449087010BD10B55A20FFF7D2FEC820DD
:1034A000FFF7F1F80020CD49087016E04FF4005105
:1034B0004810FFF71AFBC74908600846006838B192
:1034C000084600681E2803D20120C749087010BDB5
:1034D000C2480078401CC1490870C04800780628DE
:1034E000E4DB0220FFF7ADFEC820FFF7CCF8002098
:1034F000BA490870B849087013E04FF400514810F9
:10350000FFF7F3FAB34908600846006820B108469F
:1035100000680A2800D2DAE7B0480078401CAF49BA
:103520000870AE4800780628E7DB0220FFF789FE26
:10353000C820FFF7A8F80020A8490870A64908701D
:1035400016E04FF400514810FFF7CFFAA149086088
:103550000846006838B1084600680A2803D20120EE
:10356000A1490870B3E79D480078401C9B4908704A
:103570009A4800780628E4DB0820FFF759FEC820A7
:10358000FFF781F80020954908709349087016E00C
:103590004FF400514810FFF7A8FA8E49086008461A
:1035A000006838B108460068222803D201208E49FD
:1035B00008708CE789480078401C88490870874863
:1035C00000780628E4DB01208749087000BF7EE709
:1035D00010B56420FFF72CFEC820FFF754F8002038
:1035E0007D4908707D4908707B49087016E04FF4EA
:1035F00000514810FFF779FA7649086008460068DC
:1036000038B108460068222803D2012077490870A3
:1036100010BD72480078401C704908706F480078EF
:103620000628E4DB0220FFF703FEC820FFF72BF893
:1036300000206A4908706849087016E04FF400518C
:103640004810FFF752FA634908600846006838B12D
:1036500008460068222803D2012064490870D7E791
:103660005E480078401C5D4908705C480078062878
:10367000E4DB0220FFF7DCFDC820FFF704F80020A0
:10368000564908705449087016E04FF4005148102C
:10369000FFF72BFA4F4908600846006838B1084622
:1036A0000068222803D2012050490870B0E74B4837
:1036B0000078401C49490870484800780628E4DB37
:1036C0000820FFF7BEFDC820FEF7DDFF00204349BC
:1036D00008704149087016E04FF400514810FFF798
:1036E00004FA3C4908600846006838B1084600689A
:1036F000222803D201203D49087089E73748007825
:10370000401C36490870354800780628E4DB00BFC5
:103710007EE710B54620FFF78BFDC820FEF7B3FF0C
:1037200000202D4908702D4908702B4908701AE0B7
:103730004FF400514810FFF7D8F9264908600846B1
:10374000006840B108460068222804D22248007868
:10375000401C214908703220FEF795FF1F48007871
:10376000401C1E4908701D4800780628E0DB1A48F6
:10377000007801282ADA0220FFF75AFDC820FEF758
:1037800082FF002015490870134908701AE04FF4B1
:1037900000514810FFF7A9F90E4908600846006873
:1037A00040B1084600681E2804D20B480078401C2F
:1037B000094908703220FEF766FF08480078401C6F
:1037C00006490870054800780628E0DB02480078C2
:1037D00001280DE06C0000207A0000207900002014
:1037E000550000204C000020540000205300002011
:1037F0002ADA0220FFF71CFDC820FEF744FF002054
:10380000FE490870FE4908701AE04FF40051481054
:10381000FFF76BF9FB4908600846006840B10846AD
:103820000068222804D2F6480078401CF449087049
:10383000C820FEF728FFF1480078401CEF490870C7
:10384000EE4800780628E0DBED48007801282ADA07
:103850000820FFF7F6FCC820FEF715FF0020E74917
:103860000870E74908701AE04FF400514810FFF75C
:103870003CF9E44908600846006840B10846006821
:10388000222804D2DE480078401CDD490870C82098
:10389000FEF7F9FED9480078401CD8490870D7488F
:1038A00000780628E0DBD6480078012806DB642093
:1038B000FEF7E9FE0120D449087002E00020D24959
:1038C00008700020CE4908700120D04908600B2004
:1038D000CF4908704FF48061CE48FCF79EFE10BDC2
:1038E00010B51E20FFF7A4FCC820FEF7CCFEFFF7A2
:1038F00039FAC820FEF7C7FE0B20C549087010BD75
:1039000010B5FFF72FFAC820FEF7BDFE0820C0490A
:10391000087010BD10B50020BF4908600121BF48E4
:10392000FDF71EFD00BF40F20E60FFF7E1FABA4856
:10393000006840F6FC018842F5D30021B748FDF746
:103940000FFD102240F20E6140F2AA50FEF7A7FED2
:10395000FFF70AFC00BF40F20460FFF7C9FAB04865
:1039600000780F28F7D1AF480068AF49086005E03C
:1039700040F2AA5140F20E60FFF73BFAAA480168F4
:103980000068401EA84A10600029F1D102201146AB
:10399000086003E040F22C60FFF748FAA248016893
:1039A0000068401EA04A10600029F3D19F480078AB
:1039B000401C9E49087010BD10B500209649086053
:1039C00001219648FDF7CCFC00BF40F20E60FFF7E6
:1039D0008FFA9148006840F29E718842F5D3002129
:1039E0008E48FDF7BDFC102240F20E6140F2AA5055
:1039F000FEF755FEFFF7B8FB00BF40F20E60FFF781
:103A000077FA874800780F28F7D1864800688649FA
:103A1000086005E040F2AA5140F20E60FFF7E9F9B4
:103A2000814801680068401E7F4A10600029F1D17A
:103A300002201146086003E040F22C60FFF7F6F91F
:103A4000794801680068401E774A10600029F3D168
:103A500076480078401C7549087010BD10B50020EC
:103A60006D49086001216D48FDF77AFC00BF40F206
:103A70000E60FFF73DFA68480068B0F5C86FF6D3EE
:103A800000216648FDF76CFC102240F20E6140F206
:103A9000AA50FEF704FEFFF767FB00BF40F2FA50A2
:103AA000FFF726FA5E4800780F28F7D15D480068D6
:103AB0005D49086003E040F20960FFF719FA5A48CF
:103AC00001680068401E584A10600029F3D10220A6
:103AD0001146086003E040F22C60FFF7A7F9524856
:103AE00001680068401E504A10600029F3D14F4819
:103AF0000078401C4D49087010BD10B500204649A3
:103B0000086001214548FDF72BFC00BF40F20E6024
:103B1000FFF7EEF940480068B0F57A7FF6D3FFF77B
:103B200052FB42480078401C4049087010BD10B557
:103B300000203949086001213848FDF711FC00BF19
:103B400040F20E60FFF7D4F93348006840F24C4170
:103B50008842F5D300213148FDF702FC3348007854
:103B6000401C3249087010BD10B530480078052857
:103B700013D2DFE800F00306090C0F00FFF7CAFEBE
:103B80000CE0FFF719FF09E0FFF768FF06E0FFF719
:103B9000B4FF03E0FFF7CBFF00E000BF00BF10BDA4
:103BA00010B508202049086005E040F2AA5140F213
:103BB0000E60FFF71EF91C4801680068401E1A4A93
:103BC00010600029F1D1FFF79EF80F201649086018
:103BD00003E040F20E60FFF729F91348016800681E
:103BE000401E114A10600029F3D15020FFF729FB35
:103BF00000BF40F2AA5140F20E6019E079000020A7
:103C00007A0000206C000020520000208400002078
:103C10004C0000200018014048000020000C00402B
:103C2000640000208C00002074000020560000205A
:103C3000FFF7DFF8FE48FCF7DFFC00F00F00FD495E
:103C40000870084600780F28D3D10820FA49086088
:103C500005E040F2AA5140F20E60FFF7CAF8F648BC
:103C600001680068401EF44A10600029F1D1FFF796
:103C700079F800BF40F20E60FFF7D8F8ED48007801
:103C80000F28F7D1ED480068801EEB49086005E079
:103C900040F2AA5140F20E60FFF7ABF8E648016827
:103CA0000068401EE44A10600029F1D1022011464C
:103CB000086003E040F22C60FFF7B8F8DE480168C6
:103CC0000068401EDC4A10600029F3D110BD10B519
:103CD0000A2240F2AA5140F20E60FEF7E0FCFFF724
:103CE00041F80F20D449086003E040F20E60FFF76E
:103CF0009DF8D14801680068401ECF4A1060002935
:103D0000F3D15A20FFF794FA00BF40F2AA5140F2D3
:103D10000E60FFF76EF8C648FCF76EFC00F00F006F
:103D2000C4490870084600780F28EED10C20C2491B
:103D3000086005E040F2AA5140F20E60FFF759F822
:103D4000BD4801680068401EBB4A10600029F1D1DF
:103D5000FEF7D9FF00BF40F20E60FFF767F8B548E5
:103D600000780F28F7D1B5480068801EB249086076
:103D700005E040F2AA5140F20E60FFF73AF8AE4873
:103D800001680068401EAC4A10600029F1D1022091
:103D90001146086003E040F22C60FFF747F8A648A0
:103DA00001680068401EA44A10600029F3D110BDCC
:103DB00010B50020A249087000BF40F2B45140F293
:103DC0000460FFF716F89A48FCF716FC00F00F00A5
:103DD000984908704FF400514810FEF786FE994943
:103DE00008600846006804280CD9924800780F281B
:103DF00008D1002094490870FFF7D2FE02209349B1
:103E0000087010BD8F4800680428D6D80F208A4952
:103E1000086000BF40F2AA5140F20E60FEF7E9FFD1
:103E20008348FCF7E9FB00F00F0082490870084660
:103E300000780F28EED10D207F49086005E040F2A0
:103E4000AA5140F20E60FEF7D4FF7B48016800687B
:103E5000401E794A10600029F1D1FEF754FF0D2071
:103E60007549086003E040F20E60FEF7DFFF72481C
:103E700001680068401E704A10600029F3D11922C1
:103E800040F20E6140F2AA50FEF709FC5020FFF705
:103E9000D8F900BF40F2AA5140F20E60FEF7A9FF28
:103EA0006348FCF7A9FB00F00F0062490870084660
:103EB00000780F28EED108205F49086005E040F245
:103EC000AA5140F20E60FEF794FF5B48016800685B
:103ED000401E594A10600029F1D1FEF743FF00BF90
:103EE00040F20E60FEF7A2FF524800780F28F7D18B
:103EF00052480068801E5049086005E040F2AA510F
:103F000040F20E60FEF775FF4B4801680068401EE6
:103F1000494A10600029F1D102201146086003E0EF
:103F200040F22C60FEF782FF434801680068401EA3
:103F3000414A10600029F3D102204449087000BFB3
:103F40005FE710B500204249087000BF40F2B4514D
:103F500040F20460FEF74DFF4FF400514810FEF7A9
:103F6000C4FD384908603248FCF746FB00F00F00FA
:103F7000304908703348006804280CD90846007896
:103F80000F2808D1002030490870FFF7A0FE032059
:103F90002E49087010BD2B4800680428D6D80F2081
:103FA0002549086005E040F2B45140F20460FEF794
:103FB00020FF214801680068401E1F4A1060002948
:103FC000F1D100BF40F2AA5140F20E60FEF711FF9E
:103FD0001748FCF711FB00F00F001649087008465F
:103FE00000780F28EED10A2240F2AA5140F20E606A
:103FF000FEF755FBFEF7B6FE0D200F49086003E003
:1040000040F20E60FEF712FF0B4801680068401E88
:10401000094A10600029F3D1192240F20E6140F2E2
:10402000AA50FEF73CFB5320FFF702F900BF11E056
:104030000018014064000020740000208C00002063
:10404000530000206C000020940000204C00002051
:104050005400002040F2AA5140F20E60FEF7C9FE63
:10406000F948FCF7C9FA00F00F00F8490870084653
:1040700000780F28DBD10C20F549086005E040F2FC
:10408000AA5140F20E60FEF7B4FEF14801680068E4
:10409000401EEF4A10600029F1D1FEF734FE00BF48
:1040A00040F20E60FEF7C2FEE84800780F28F7D114
:1040B000E8480068801EE649086005E040F2AA5121
:1040C00040F20E60FEF795FEE14801680068401E70
:1040D000DF4A10600029F1D102201146086003E098
:1040E00040F22C60FEF7A2FED94801680068401E2D
:1040F000D74A10600029F3D10320D749087000BFC8
:1041000048E710B50020D549087000BF40F20E60A6
:10411000FEF78CFECD4800780028F7D11E20CC4950
:10412000086003E040F20E60FEF780FEC8480168B8
:104130000068401EC64A10600029F3D1FFF743F81B
:1041400000BF40F20E60FEF771FEC04800780F28F5
:10415000F7D1BF49086005E040F2AA5140F20E6075
:10416000FEF747FEBA4801680068401EB84A106072
:104170000029F1D1FFF7F8FCB9480078401CB84994
:10418000087008460078052805D10B20B249087050
:104190000120B449087010BD10B50020B249087064
:1041A00000BF40F20E60FEF741FEA84800780028EC
:1041B000F7D12320A649086003E040F20E60FEF725
:1041C00035FEA34801680068401EA14A106000291E
:1041D000F3D1FEF7F8FFC820FEF755FA00BF40F212
:1041E0000460FEF723FE994800780F28F7D11220CB
:1041F0009749086005E040F2AA5140F20E60FEF7D0
:10420000F8FD934801680068401E914A106000293B
:10421000F1D1FEF778FDFFF7A7FC91480078401C2C
:104220008F49087008460078052805D10B208A4977
:10423000087001208B49087010BD10B500208B4913
:10424000087000BF40F20E60FEF7F0FD7F48007876
:104250000028F7D128207E49086003E040F20E6074
:10426000FEF7E4FD7A4801680068401E784A106055
:104270000029F3D1FEF7A7FF00BF40F20E60FEF762
:10428000D5FD724800780F28F7D10E2070490860DC
:1042900005E040F2AA5140F20E60FEF7AAFD6C481C
:1042A00001680068401E6A4A10600029F1D1FEF7DB
:1042B0002AFDFFF759FC6A480078401C68490870DD
:1042C00008460078052805D10B20634908700120B5
:1042D0006449087010BD10B500BF40F20E60FEF7D3
:1042E000A5FD5A4800780028F7D1232058490860D6
:1042F00003E040F20E60FEF799FD55480168006842
:10430000401E534A10600029F3D1FEF75CFF00BF46
:1043100040F20E60FEF78AFD4C4800780F28F7D176
:1043200014204B49086005E040F2AA5140F20E60AB
:10433000FEF75FFD464801680068401E444A106071
:104340000029F1D1FEF70EFDFFF70EFC444800787E
:10435000401C4349087008460078052805D10B2009
:104360003D49087001203F49087010BD10B500207C
:104370003F49087000BF40F20E60FEF757FD33481A
:1043800000780028F7D123203149086003E040F28B
:104390000E60FEF74BFD2E4801680068401E2C4A57
:1043A00010600029F3D1FEF70EFF00BF40F20E604F
:1043B000FEF73CFD254800780F28F7D12449086016
:1043C00005E040F2AA5140F20E60FEF712FD2048CF
:1043D00001680068401E1E4A10600029F1D1FEF7F6
:1043E000C1FCFFF7C1FB1E480078401C1C49087047
:1043F00008460078052805D10B20174908700120D0
:104400001849087010BD10B519201149086003E063
:1044100040F20460FEF70AFD0D4801680068401E86
:104420000B4A10600029F3D1FEF7CDFE00BF40F229
:104430000E60FEF7FBFC054800780F28F7D1054811
:104440000068034908601BE0001801406400002078
:10445000740000208C0000204C0000204F00002041
:10446000570000205800002050000020510000207C
:104470004D00002040F2AA5140F20E60FEF7B9FC58
:10448000F84801680068401EF64A10600029F1D122
:1044900010BD10B5F4A001F093F80A20F1490860AE
:1044A00003E04FF4C360FEF7C1FCEE48016800680A
:1044B000401EEC4A10600029F3D100BF4FF4C360E6
:1044C000FEF7B4FCEA48FCF797F800F00F00E94962
:1044D0000870084600780F28F0D12820E1490860CC
:1044E00005E040F2AA5140F20E60FEF782FCDD4882
:1044F00001680068401EDB4A10600029F1D10D20E0
:10450000DD49087010BD10B5DC48007828B9FFF708
:10451000C0FF0D20D849087010BD1620D149086091
:1045200003E040F20E60FEF781FCCE4801680068AF
:10453000401ECC4A10600029F3D12320FEF781FEF3
:1045400000BF40F2AA5140F20E60FEF752FCC8488C
:10455000FCF752F800F00F00C649087008460078D2
:104560000F28EED10820BF49086005E040F2AA51AB
:1045700040F20E60FEF73DFCBA4801680068401E3C
:10458000B84A10600029F1D1FEF7BDFB00BF40F230
:104590000460FEF711FD4FF400514810FEF7A5FA34
:1045A000B7490860084600680428F0D80720AD49DC
:1045B000086005E040F2AA5140F20E60FEF719FCD7
:1045C000A84801680068401EA64A10600029F1D181
:1045D0006720FEF736FE00BF40F2AA5140F20E609F
:1045E000FEF707FCA248FCF707F800F00F00A1490E
:1045F0000870084600780F28EED108209949086015
:1046000005E040F2AA5140F20E60FEF7F2FB954839
:1046100001680068401E934A10600029F1D1FEF73E
:10462000A1FB0B209449087000BF75E710B59348B3
:10463000007828B9FFF72DFF0D208F49087010BDB5
:1046400016208849086003E040F20E60FEF7EEFB9A
:10465000844801680068401E824A10600029F3D136
:104660001B20FEF7E5FD00BF40F2AA5140F20E60AC
:10467000FEF7BFFB7E48FBF7BFFF00F00F007D4950
:104680000870084600780F28EED1082075490860A8
:1046900005E040F2AA5140F20E60FEF7AAFB714815
:1046A00001680068401E6F4A10600029F1D1FEF7D2
:1046B00059FB00BF40F20460FEF77EFC4FF400514E
:1046C0004810FEF712FA6E49086008460068042890
:1046D000F0D807206349086005E040F2AA5140F293
:1046E0000E60FEF786FB5F4801680068401E5D4A69
:1046F00010600029F1D14F20FEF79AFD00BF40F273
:10470000AA5140F20E60FEF774FB5948FBF774FFA4
:1047100000F00F0057490870084600780F28EED1C6
:1047200008205049086005E040F2AA5140F20E60AE
:10473000FEF75FFB4B4801680068401E494A106065
:104740000029F1D1FEF7DFFA0B204B49087000BFBA
:1047500075E710B54B480068401C4A490860084698
:10476000016849A000F02CFF00BF40F20E60FEF788
:104770005DFB404800780028F7D146480068394979
:10478000086003E040F20E60FEF750FB3548016818
:104790000068401E334A10600029F3D1192240F20C
:1047A0000E6140F2AA50FDF77AFFFEF70CFD00BF44
:1047B00040F20E60FEF73AFB2E4800780F28F7D142
:1047C0000A202849086005E040F2AA5140F20E6034
:1047D000FEF70FFB234801680068401E214A106065
:1047E0000029F1D127480068062808DB0C2022495F
:1047F00008700846017828A000F0E2FE10BD2148AC
:104800000068052802DBFFF77EFEF7E700BF40F2F5
:104810000460FEF7D1FB4FF400514810FEF765F934
:1048200017490860084600680528F0D808200D4997
:10483000086005E040F2AA5140F20E60FEF7D9FA96
:10484000084801680068401E064A10600029F1D13E
:104850003220FDF718FFFEF7B6FC0B200649087062
:1048600000BFCBE774000020676F686F6D650000C4
:1048700000180140640000204C000020940000203B
:104880006C0000206000002068616465646F6E65E4
:104890003A2564008000002070726F636573733A7C
:1048A0002564000010B5FE480068401CFC49086003
:1048B00008460168AFF2300000F082FE0A20FEF7E1
:1048C000C0FCFEF720FAC820FDF7DDFE00BF40F275
:1048D0000E60FEF7ABFAF34800780028F7D1F248F3
:1048E0000068401CF149086003E040F20E60FEF7EA
:1048F0009DFAEE4801680068401EEC4A10600029ED
:10490000F3D1192240F20E6140F2AA50FDF7C7FE22
:10491000FEF759FC00BF40F20E60FEF787FAE1484F
:1049200000780F28F7D11420E049086005E040F234
:10493000AA5140F20E60FEF75CFADC48016800689C
:10494000401EDA4A10600029F1D1FEF70BFAC820A8
:10495000FDF799FED2480068062809DB0C20D449EF
:10496000087008460178AFF2D00000F029FE10BDB3
:10497000CB480068052802DBFFF7C5FDF7E700BF5D
:1049800040F2FF50FEF718FB4FF400514810FEF7BD
:10499000ACF8C8490860084600680528F0D8082027
:1049A000C249086005E040F2AA5140F20E60FEF7ED
:1049B00020FABE4801680068401EBC4A1060002909
:1049C000F1D13220FDF75FFEFEF7FDFB0B20B84969
:1049D000087000BFCBE710B5B1480068401CB04973
:1049E000086008460168AFF2601000F0E9FD082099
:1049F000FEF727FCFEF787F9C820FDF744FEFEF717
:104A000082F900BF40F20E60FEF710FAA548007868
:104A10000028F7D1A4480068A449086003E040F2E8
:104A20000E60FEF703FAA14801680068401E9F4A25
:104A300010600029F3D1192240F20E6140F2AA5011
:104A4000FDF72DFEFEF7BFFB00BF40F20E60FEF744
:104A5000EDF9944800780F28F7D19449086003E0F5
:104A600040F2FA50FEF744FA904801680068401E90
:104A70008E4A10600029F3D1FEF774F9C820FDF7C3
:104A800002FE87480068062809DB0C208849087068
:104A900008460178AFF2002000F092FD10BD80487A
:104AA0000068052802DBFFF72EFDF7E700BF40F2A4
:104AB0000460FEF781FA4FF400514810FEF715F834
:104AC0007C490860084600680528F0D80820774926
:104AD000086005E040F2AA5140F20E60FEF789F945
:104AE000724801680068401E704A10600029F1D1C8
:104AF0003220FDF7C8FDFEF766FB0B206C490870FD
:104B000000BFCBE710B566480068401C64490860E8
:104B100008460168AFF2902000F052FDFEF722F93E
:104B2000C820FDF7B0FD00BF40F20E60FEF77EF931
:104B30005C4800780028F7D15B480068401C5B495E
:104B4000086003E040F20E60FEF770F95748016814
:104B50000068401E554A10600029F3D1192240F226
:104B60000E6140F2AA50FDF79AFDFEF72CFB00BF44
:104B700040F20E60FEF75AF94A4800780F28F7D144
:104B800012204A49086005E040F2AA5140F20E6046
:104B9000FEF72FF9454801680068401E434A10603F
:104BA0000029F1D1FEF7AFF83D480068062809DB7F
:104BB0000C203F49087008460178AFF2243000F01D
:104BC000FFFC10BD36480068052802DBFFF79BFCA0
:104BD000F7E700BF40F20460FEF7EEF94FF4005132
:104BE0004810FDF782FF3349086008460068052831
:104BF000F0D808202D49086005E040F2AA5140F2A3
:104C00000E60FEF7F6F8294801680068401E274A42
:104C100010600029F1D13220FDF735FDFEF7D3FAFF
:104C20000B202349087000BFCBE710B51C48006873
:104C3000401C1B49086008460168AFF2B43000F020
:104C4000BFFCFEF78FF8C820FDF71DFDFEF78AF8C0
:104C5000C820FDF718FD00BF40F20E60FEF7E6F831
:104C6000104800780028F7D10F480068C01C0F4991
:104C7000086003E040F20E60FEF7D8F80B480168C8
:104C80000068401E094A10600029F3D1122240F248
:104C90000E6140F2AA50FDF702FDFEF794FA0BE018
:104CA00060000020640000208000002074000020CC
:104CB0004C0000206C00002000BF40F20460FEF7B2
:104CC000B5F8FD4800780F28F7D10E20FB490860A1
:104CD00005E040F2AA5140F20E60FEF78AF8F7486C
:104CE00001680068401EF54A10600029F1D1FEF706
:104CF0000AF8C820FDF7C7FCF1480068062803DB66
:104D00000C20F049087010BDED480068052802DB52
:104D1000FFF7F9FBF7E700BF40F20460FEF74CF93C
:104D20004FF400514810FDF7E0FEE74908600846DF
:104D300000680528F0D80820E049086005E040F246
:104D4000AA5140F20E60FEF754F8DC480168006892
:104D5000401EDA4A10600029F1D13220FDF793FCA1
:104D6000FEF731FA0B20D749087000BFCBE710B52A
:104D70000120D6490860D2480168D5A000F020FC87
:104D8000CF480068062803DB0C20CE49087010BD10
:104D900000BF40F2FA50FEF749F8C74800780F28E4
:104DA000F7D1CF480068801EC449086005E040F292
:104DB000AA5140F20E60FEF71CF8C0480168006876
:104DC000401EBE4A10600029F1D102201146086041
:104DD00003E040F22C60FEF729F8B848016800684B
:104DE000401EB64A10600029F3D1C820FDF74BFCE5
:104DF000FDF7C1FD04462146BAA000F0E1FB012009
:104E0000BB4908703DE0FDF7B6FDBA490860AF4800
:104E10000068401CAD490860B6480068062822D2E8
:104E2000DFE800F0210F0903151BFFF792FC0020BB
:104E3000AF4908701BE0FFF735FD0020AC49087052
:104E400015E0FFF7C8FD0020A94908700FE0FFF743
:104E500059FE0020A649087009E0FFF7E6FE002091
:104E6000A349087003E00120A149087000BF00BFFA
:104E700096480068052804DBFFF7ADFD00209C493B
:104E800008709B4800780028BDD100BF7FE710B5AF
:104E900000209949087000BF40F2B45140F204600C
:104EA000FDF7A7FF4FF400514810FDF71EFE86499D
:104EB00008609248FBF7A0FB00F00F007E490870E5
:104EC00081480068042840D9084600780F283CD162
:104ED0000A207A49086005E040F2AA5140F20E60CB
:104EE000FDF787FF754801680068401E734A10602F
:104EF0000029F1D1FDF707FF00BF40F20E60FDF77A
:104F000095FF6D4800780F28F7D10F2240F2AA5183
:104F100040F20E60FDF7C3FB1E20FEF789F9192051
:104F20006649086005E040F2AA5140F20E60FDF7C4
:104F300060FF624801680068401E604A10600029F6
:104F4000F1D10D205F49087010BD5F48006804284A
:104F5000A2D819205949086005E040F2AA5140F250
:104F60000E60FDF746FF554801680068401E534A31
:104F700010600029F1D16920FEF763F900BF40F20B
:104F8000AA5140F20E60FDF734FF5C48FBF734FB9A
:104F900000F00F0048490870084600780F28EED14D
:104FA0000A2240F2AA5140F20E60FDF778FBFDF7AD
:104FB000AAFE0B204349087000BFC5E710B5504852
:104FC0000078012877D100204D49087000BF40F2D9
:104FD000B45140F20460FDF70CFF4FF4005148104B
:104FE000FDF783FD384908604448FBF705FB00F0F6
:104FF0000F003149087034480068042840D9084639
:1050000000780F283CD10A202C49086005E040F2C6
:10501000AA5140F20E60FDF7ECFE284801680068D6
:10502000401E264A10600029F1D1FDF79BFE00BF0B
:1050300040F20E60FDF7FAFE1F4800780F28F7D106
:10504000192240F2AA5140F20E60FDF728FB1E2003
:10505000FEF7F7F819201949086005E040F2AA5157
:1050600040F20E60FDF7C5FE144801680068401E5E
:10507000124A10600029F1D10D201249087010BDAC
:10508000114800680428A2D819200C49086005E0DE
:1050900040F2AA5140F20E60FDF7ABFE07480168EE
:1050A0000068401E054A10600029F1D14420FEF737
:1050B000BFF800BF26E04DE064000020740000202F
:1050C000600000204C0000206C00002088000020C0
:1050D00068616465646F6E653A2025640A000000AB
:1050E0008C000020436F6C6F723A2025640A000028
:1050F00078000020680000205500002000180140C2
:105100005200002040F2AA5140F20E60FDF771FEFD
:105110005F48FBF771FA00F00F005E49087008461F
:1051200000780028C6D008205B49086005E040F2FE
:10513000AA5140F20E60FDF75CFE57480168006816
:10514000401E554A10600029F1D1FDF70BFE0B20DF
:105150005249087000BF92E710B514204E4908600C
:1051600005E040F2465140F27260FDF742FE4A48C7
:1051700001680068401E484A10600029F1D100BF54
:1051800040F22C60FDF752FE424800780F28F7D11C
:1051900043480068801E4049086005E040F2AA517B
:1051A00040F20E60FDF725FE3B4801680068401E96
:1051B000394A10600029F1D102201146086003E04D
:1051C00040F22C60FDF732FE334801680068401E53
:1051D000314A10600029F3D110BD10B5FDF7F3FF7F
:1051E0000B202E49087010BDFDF747FF06202B4904
:1051F00008702C48FDF72FFBFFF7AEFF46E027486D
:10520000017829A000F0DCF9244800780D283BD271
:10521000DFE800F03A070C11161B20252A2F3A343C
:105220003700FEF733F8FEF76CFF2EE0FEF73FF88D
:10523000FFF751F829E0FEF744F8FFF797F824E06C
:10524000FEF74CF8FFF723FE1FE0FEF724F9FEF708
:1052500078FE1AE0FEF7BCF9FEF7AAFD15E0FEF7AE
:1052600058FAFFF7ABFE10E0FEF73AFBFEF7E5FF5A
:105270000BE0FEF745FBFEF78FFF06E0FFF777FD3B
:1052800003E0FFF706F900E000BF00BFB7E700004A
:105290000018014064000020740000204C00002031
:1052A0008C0000205A00002070726F636573733A9F
:1052B00025640A00704700BFFEE700BFFEE700BF9D
:1052C000FEE700BFFEE770477047704770477047C2
:1052D000704710B501211448FCF70BFB18B10121F0
:1052E0001148FCF717FB10BD10B501218807FCF72A
:1052F00000FB40B101218807FCF70CFB0B4800883C
:10530000401C0A49088010BD10B501210848FCF76F
:10531000F0FA40B101210648FCF7FCFA05480068A4
:10532000401C0449086010BD0004004044000020F7
:10533000000C0040480000202DE9F04D81EA0304F4
:1053400004F0004B21F0004514464FF0000A23F012
:10535000004150EA050220D054EA01021DD0C5F3F5
:105360000A570246C5F31303C1F31300C1F30A56EB
:1053700040F4801543F48013A7EB0608101BD646B3
:1053800008F2FD3873EB050002D308F1010801E0D3
:1053900092185B41B8F1000F03DA00200146BDE826
:1053A000F08D00204FF48011064684460EE0171B56
:1053B00073EB050705D3121B63EB050306434CEAA9
:1053C000010C49084FEA300092185B4150EA01078E
:1053D000EDD152EA030012D082EA040083EA05010B
:1053E000084305D0101BAB4106D20122002306E082
:1053F00000224FF0004302E06FF0010253101AEB5D
:1054000006004CEB085110EB0A0041EB0B01BDE824
:10541000F04D00F056B80EB5C10F80EAE0700844B8
:10542000CA07002140F233438DE80E000A460B46BE
:1054300000F056F803B000BD70B5C1F30A5201F098
:1054400000450024C1F3130140F2FF3341F4801101
:105450009A4201DA002070BD40F233439A42A2F230
:10546000334203DC524200F01CF800E090402C4331
:10547000F1D0404270BD30B50B46014600202022DD
:10548000012409E021FA02F59D4205D303FA02F551
:10549000491B04FA02F52844151EA2F10102F1DCB1
:1054A00030BD202A04DB203A21FA02F000217047A7
:1054B00021FA02F3D040C2F120029140084319467C
:1054C000704710B5141E73F1000408DA401C41F156
:1054D000000192185B411A4301D120F0010010BD78
:1054E0002DE9F04D92469B4611B1B1FA81F202E0EE
:1054F000B0FA80F22032904600F052F804460F468F
:1055000040EA0A0041EA0B0153465A46084313D0C9
:10551000114653EA010019D0C8F140025046FFF786
:10552000C0FF05460E4650465946424600F038F840
:10553000084305D0012004E020463946BDE8F08D3F
:105540000020054346EAE0762C4337430A9863057A
:10555000E40AA0EB08000022FD0A44EA47540A309E
:1055600002D500200146E9E7010510196941DDE98E
:10557000084500196941BDE8F04DA2E7064C074D0A
:1055800006E0E06840F0010394E807009847103413
:10559000AC42F6D3FAF7D0FD545700087457000810
:1055A000202A04DB203A00FA02F1002070479140E3
:1055B000C2F1200320FA03F3194390407047000022
:1055C0000FB4054B10B503A9044A029800F018F86F
:1055D00010BC5DF814FB00004B260008980000206A
:1055E00002E008C8121F08C1002AFAD170477047AC
:1055F000002001E001C1121F002AFBD1704700000A
:105600002DE9FF4F89B09B460446002506E025287A
:105610000BD05A460B999047641C6D1C20780028CB
:10562000F5D10DB02846BDE8F08F0027B84601221D
:10563000474900E0074314F8013F203B02FA03F01A
:105640000842F7D120782E2819D114F8010F47F01D
:1056500004072A280ED06FF02F022078A0F1300125
:1056600009290CD808EB880102EB410100EB010885
:10567000641CF2E70A98641C50F8048B0A902078A6
:105680000028CED0642808D0692806D075281ED0FE
:105690005A460B9990476D1C58E00A994FF00A0939
:1056A00001C90A91002802DA40422D2102E03905A1
:1056B00004D52B218DF82010012103E0F90704D037
:1056C0002021F7E78A4608AE0DE00021FAE70A99A3
:1056D0004FF00A0901C90A91F7E74946FFF7CBFEE7
:1056E000303106F8011D0028F7D1ADEB060000F1BE
:1056F0002009780701D44FF00108C84502DDA8EB66
:10570000090000E000208046002706E008A85A466D
:10571000C05D0B9990476D1C7F1C5745F6DB04E07C
:1057200030205A460B9990476D1CB8F10001A8F142
:105730000108F5DC05E016F8010B5A460B99904775
:105740006D1CB9F10001A9F10109F4DC641C65E7E5
:105750000928010074570008000000209C00000088
:10576000E0550008105800089C0000203404000098
:10577000F055000800A24A040000000000000000EC
:1057800001020304060708090000000001020304E7
:1057900001020304060708090204060800000000CD
:1057A00000000000000000000000000000000000F9
:1057B00000000000000000000000000000000000E9
:1057C00000010101010100000000000000050000CF
:1057D00000000000010000000000000000000000C8
:1057E00000000000000000000000000001000000B8
:1057F0000000000026000000000000000100000082
:105800000C00000007000000010000000000000084
:04000005080022E1EC
:00000001FF
