:020000040800F2
:10000000A01F0020C97D0008595B0008D37D0008AF
:100010005B5B00085F5B0008635B0008000000009A
:10002000000000000000000000000000675B000806
:10003000695B000800000000DF7D00086D5C0008BF
:10004000E37D0008E37D0008E37D0008E37D000810
:10005000E37D0008E37D0008E37D0008E37D000800
:10006000E37D0008E37D0008E37D0008E37D0008F0
:10007000E37D0008E37D0008E37D0008E37D0008E0
:10008000E37D0008E37D0008E37D0008E37D0008D0
:10009000E37D0008E37D0008E37D00086B5B00085A
:1000A000E37D0008E37D0008E37D0008E37D0008B0
:1000B000DB6600087D5B0008855B0008E37D0008C7
:1000C000E37D0008E37D0008E37D0008E37D000890
:1000D000E37D0008CF5B0008D75B0008DF5B00080A
:1000E000E37D0008E37D0008E37D0008E37D000870
:1000F000E37D0008E37D0008E37D0008E37D000860
:10010000E37D0008E37D0008E37D0008E37D00084F
:10011000E75B0008EF5B0008E37D0008B55B0008C3
:10012000E37D0008E37D0008E37D0008E37D00082F
:10013000E37D0008E37D0008E37D0008E37D00081F
:10014000E37D0008E37D0008E37D0008E37D00080F
:10015000E37D0008E37D0008E37D0008F75B00080D
:10016000E37D0008E37D0008E37D0008E37D0008EF
:10017000E37D0008E37D0008E37D0008E37D0008DF
:10018000E37D0008E37D0008DFF810D010F096FB57
:10019000004800474B020008AFF30080A01F00207A
:1001A00010B54A1D3F4B1A60FD223F4B1A700022CA
:1001B0005A708A1C52B29A700122DA7000221A71A7
:1001C0003A4B1A600DE0394A1268825C53B2364CE1
:1001D000364A1268521DA354344A1268521C334BDB
:1001E0001A60324A12688A42EDDB00222F4B1A60F5
:1001F00012E000BF2E4A128802F04002002AF9D015
:10020000294A2A4B1B68D256294B1B1D1A80274AA4
:100210001268521C254B1A60244A1268214B1B6835
:100220009A42E6DB10BD0EB522A207CA8DE8070090
:1002300068460FF0CBFD2249086008460168684611
:10024000FFF7AEFF0EBD00BFFEE704F093F8FFF727
:10025000EAFF00201B4908601B49C1F884024FF4E3
:100260007A7005F03BFD0120164908601649C1F877
:100270008402C10315480AF042FD4FF47A7005F07C
:100280002DFD00200F4908600F49C1F884024FF48A
:100290007A7005F023FD00F0A8F801E000F0CBF83B
:1002A000FCE7000000000020DC0500200400002026
:1002B000004800405B76365DB5E7C8FC47CCE200FD
:1002C00008000020BC82414200804042000C0240F5
:1002D00070477047704710B52DED088B694800785E
:1002E000012824D10020674908706748006810F091
:1002F00039F941EC1B0B9FED650B53EC102B10F003
:1003000050F841EC1A0B9FED630B53EC102B10F0DF
:1003100048F841EC190B9FED610B53EC102B10F0DA
:10032000B2F841EC180B10F02EF95E4908605E48F7
:100330000078012824D100205B4908705B480068E0
:1003400010F010F941EC1B0B9FED500B53EC102BF0
:1003500010F027F841EC1A0B9FED4E0B53EC102BCD
:1003600010F01FF841EC190B9FED4C0B53EC102BC8
:1003700010F089F841EC180B10F005F94C490860B1
:10038000BDEC088B10BD10B502F067FB10BD10B5B9
:1003900048480078022806DB46480078062802DC38
:1003A00001F0C6F81FE0434800780B2806DB4148FF
:1003B00000780E2802DC01F0D0F814E03D48007807
:1003C000102806DB3B480078152802DC01F0B0F865
:1003D00009E038480078192805DB364800781D28E0
:1003E00001DC01F0BAF810BD7047002000BF1FE02B
:1003F00000EB4001304A02EB810189884FF47A72A8
:1004000092FBF1F100EB40022B4B03EB8202D18017
:1004100000EB40011A4602EB8101C988012905DA87
:10042000012100EB400203EB8202D180411CC8B2E3
:100430000728DDD3704770B5002400BF1EE005F02B
:100440001FFC054604EB44001B4901EB800080685B
:10045000281A04EB4401184A02EB8101C98888423A
:100460000AD304EB4400114601EB8000856004EBE5
:10047000440152F821008047601CC4B2072CDED32F
:1004800070BD000068050020600500202D431CEBB6
:10049000E2361A3F00000000009AE0400000000031
:1004A00000000040B4000020690500206405002021
:1004B000B800002020040020C000002030B58BB020
:1004C00004460D46012104200BF024FA01210820E6
:1004D0000BF043FA02220C21FE480AF01DFD4FF4F6
:1004E0008050099002208DF828008DF8290009A974
:1004F000F8480AF0FDF944F61F6006904820ADF870
:1005000014000020ADF81C00ADF8160005A9F24853
:100510000BF01EFD1E208DF8200000208DF821001C
:1005200001208DF822008DF8230008A807F081FD36
:1005300001221146E8480DF097FE6020ADF800005A
:100540000120ADF802000020ADF80C004FF46170FE
:1005500002906946E0480CF0B4F80021DE480CF047
:10056000BEFD0121DC480CF064F80BB030BD30B5A5
:100570000024DA4D2C806C80AC80D94C247814B1E6
:10058000012C12D105E0D54CE38020816181A2814C
:100590000CE0D24CE380444224B2D04D2C814C423A
:1005A00024B26C812C46A28100E000BF00BF01256F
:1005B000CC4C84F8875130BD10B540F2DC50CA49AC
:1005C000086008460168C4480CF010FC0020C749C8
:1005D0000860C7490860C7490870C749087010BD5E
:1005E00010B5C448007860B90120C249087040F2D3
:1005F0001450BD49086008460168B7480CF0F6FB86
:100600000EE0BA48006840F65431884208DB40F2F8
:10061000DC50B549086008460168AF480CF0E6FBBD
:1006200010BD10B5B448007860B90120B249087017
:1006300040F2A460AC49086008460168A6480CF086
:10064000D5FB0EE0AA48006840F65431884208DB2A
:1006500040F2DC50A4490860084601689E480CF04E
:10066000C5FB10BD10B54FF400419A480AF047FB96
:100670000120A249087010BD70B52DED028B054612
:100680009F48B0F90060AC1BB42C02DDA4F5B47433
:100690000DE020460FF066FF41EC180B9FED990B23
:1006A00053EC102B0FF0A2FF01D204F5B47460429A
:1006B00000EBD0714C1014F1140F09DD142C07DA83
:1006C0000A2C00DD072414F10A0F01DA6FF006048A
:1006D00020B28E490880BDEC028B70BD10B52DEDA7
:1006E0000C8BB0EE408AF0EE608AB0EE419A8848FA
:1006F00090ED000A874880ED000A18EE100A0FF00E
:1007000061FF41EC1D0B844890ED000B53EC102B66
:1007100051EC1D0B0FF03FFE41EC1B0B7F480068B6
:100720000FF050FF41EC1C0B53EC1B2B0FF039FE6C
:1007300041EC1A0B0FF08AFF79490860084690EDEA
:10074000000ABDEEC00A10EE100A00B2754908801A
:100750000846B0F90000072801DD0720088071482D
:10076000B0F9000010F1070F03DA6FF006006D49D1
:1007700008806D48007802281CDB6B48007806284A
:1007800018DC6A480068642876DC684800682A2813
:1007900004DA6FF00600634908806DE06348006882
:1007A000342803DD07205F49088065E000205D49AB
:1007B000088061E05C4800780B281CDB5A48007810
:1007C0000E2818DC5A480068642855DC5848006830
:1007D0002A2803DA0720534908804DE0544800686E
:1007E000342804DD6FF006004E49088044E0002004
:1007F0004C49088040E04C48007810281CDB4A48EF
:100800000078152818DC49480068642834DC47481B
:1008100000682A2804DA6FF00600424908802BE0BD
:1008200042480068342803DD07203E49088023E061
:1008300000203C4908801FE03B48007819281BDB5A
:10084000394800781D2817DC39480068642813DC13
:10085000374800682A2803DA0720324908800BE06D
:1008600033480068342804DD6FF006002D49088005
:1008700002E000202B4908802A48B0F90000052832
:1008800007DA2848B0F90000002802DD05202549D4
:1008900008802448B0F90000002809DA2148B0F99E
:1008A000000010F1050F03DD6FF004001D49088002
:1008B00018EE900A0FF086FE41EC1D0B1D4890EDDE
:1008C000000B53EC102B51EC1D0B0FF064FD41ECB1
:1008D0001A0B31E0000C024000080040F40D00202B
:1008E0002204002088060020840300200004002049
:1008F000F803002004040020FC030020D2030020A1
:100900004C04002000000000008066C0AA03002004
:10091000AC050020DC030020680300209C030020BD
:1009200094030020A403002020040020B400002031
:10093000B800002070030020FE4800680FF042FE5F
:1009400041EC1C0B53EC1A2B0FF02BFD41EC1B0B55
:100950000FF07CFEF8490860084690ED000ABDEEF5
:10096000C00A10EE100A00B2F44908800846B0F937
:100970000000072801DD07200880F048B0F90000DA
:1009800010F1070F03DA6FF00600EC490880EB481E
:10099000B0F90000052807DAE848B0F9000000289F
:1009A00002DD0520E5490880E448B0F90000002890
:1009B00009DAE248B0F9000010F1050F03DD6FF02D
:1009C0000400DE490880DE4890ED000AB8EEC00A57
:1009D00039EE400ADB48D0ED000A20EE200ADA4862
:1009E00080ED000A90ED000ABDEEC00A10EE100A7C
:1009F00000B2D6490880D6480068D6490860084643
:100A00000068FFF739FED448B0F90030CF48B0F99C
:100A10000020CA48B0F90010D048B0F90000FFF734
:100A2000A6FDCF4800684FF4967190FBF1F201FBF0
:100A3000120000281FD1CB480078002874D1C74885
:100A4000B0F90000002817DDBC48B0F9000000280C
:100A500012DDC5A1012002F040FDC7A1C94810F078
:100A60001DF9C8480FF0B2F9C74908600846016887
:100A7000C448FFF795FBCAE0B848B0F90000002869
:100A800017DDAE48B0F90000002812DABFA101203E
:100A900002F023FDC1A1BB4810F000F9B9480FF0E6
:100AA00095F9B949086008460168B648FFF778FB30
:100AB000ADE0AA48B0F90000002817DA9F48B0F965
:100AC0000000002812DDB8A1012002F006FDBAA145
:100AD000AC4810F0E3F8AB480FF078F9AA49086089
:100AE00008460168A748FFF75BFB90E09B48B0F918
:100AF00000000028BFDA9148B0F900000028BADAF7
:100B0000B0A1012002F0E9FCB2A19E4810F0C6F8A5
:100B10009C480FF05BF99C490860084601689948B9
:100B2000FFF73EFB73E0FFE78C48B0F900000028B8
:100B300017DD8248B0F90000002812DDA1A10120D4
:100B400002F0CBFCA3A18F4810F0A8F88D480FF05D
:100B50003DF98D490860084601688A48FFF720FB87
:100B600055E07E48B0F90000002817DD7348B0F961
:100B70000000002812DA8CA1012002F0AEFC8EA148
:100B8000804810F08BF87F480FF020F97E4908600C
:100B9000084601687B48FFF703FB38E06F48B0F96F
:100BA0000000002817DA6548B0F90000002812DDBF
:100BB00076A1012002F091FC78A1724810F06EF845
:100BC00070480FF003F970490860084601686D48E5
:100BD000FFF7E6FA1BE06148B0F90000002816DADA
:100BE0005648B0F90000002811DA5FA1012002F098
:100BF00074FC61A1634810F051F862480FF0E6F808
:100C000061490860084601685E48FFF7C9FABDEC13
:100C10000C8B10BD10B52DED048BB0EE408AF0EEBC
:100C2000608AB0EE419A9FED6E0A30EE680A6D4818
:100C300080ED000A90ED000ABDEEC00A10EE100A29
:100C400000B2464908800846B0F900000A2801DDD4
:100C5000052008804148B0F9000010F10A0F03DABE
:100C60006FF004003D4908803C48B0F900000528B9
:100C700007DA3A48B0F90000002802DD02203749BF
:100C800008803648B0F90000002809DA3348B0F986
:100C9000000010F1050F03DD6FF001002F490880FF
:100CA0009FED510A30EE480A234880ED000A90ED8E
:100CB000000ABDEEC00A10EE100A00B21F490880FB
:100CC0000846B0F900000A2801DD052008801B480D
:100CD000B0F9000010F10A0F03DA6FF004001749B1
:100CE00008801648B0F90000052807DA1348B0F963
:100CF0000000002802DD0220104908800F48B0F9EA
:100D00000000002809DA0D48B0F9000010F1050FC5
:100D100003DD6FF0010009490880094890ED000AE1
:100D2000B8EEC00A39EE400A074880ED000A0748CD
:100D30005CE000009C03002098030020A603002034
:100D4000380400208C03002090030020A80300201A
:100D50001C03002018030020AA030020A403002085
:100D60003003002022040020C7B0BDF82B312CCF67
:100D7000F2D7F32B310000005B73395DC7B0D7F3B6
:100D8000000000001000002008000020C7B0BDF8DF
:100D90002B312CCFF2D3D22B310000005B73395DA5
:100DA000C7B0D3D200000000BAF3CDCB2B312CCF8B
:100DB000F2D7F32B310000005B73395DBAF3D7F340
:100DC00000000000BAF3CDCB2B312CCFF2D3D22BC5
:100DD000310000005B73395DBAF3D3D2000000002C
:100DE0000000F0429403002000002043B0F900000E
:100DF000FE490880FE480068FE4908600846006811
:100E0000FFF73AFCFC48B0F90030F848B0F9002090
:100E1000FA48B0F90010FA48B0F90000FFF7A7FB54
:100E2000F748B0F90000002819DDF448B0F90000D7
:100E3000002814DDAFF2D001012002F04EFBAFF22A
:100E4000C801F0480FF02AFFEE480EF0BFFFEE4950
:100E5000086008460168EB48FFF7A2F95BE0E84844
:100E6000B0F90000002819DDE448B0F900000028BE
:100E700014DAAFF2E801012002F02FFBAFF2E40137
:100E8000E0480FF00BFFDF480EF0A0FFDE490860DE
:100E900008460168DB48FFF783F93CE0D848B0F921
:100EA0000000002819DAD548B0F90000002814DD48
:100EB000AFF20C11012002F010FBAFF20411D14887
:100EC0000FF0ECFECF480EF081FFCF4908600846D6
:100ED0000168CC48FFF764F91DE0C948B0F900008B
:100EE000002818DAC548B0F90000002813DAAFF27C
:100EF0002C11012002F0F1FAAFF22811C1480FF0D5
:100F0000CDFEC0480EF062FFBF4908600846016888
:100F1000BC48FFF745F9BDEC048B10BD00B52DEDC5
:100F2000068B89B0B0EE408AF0EE608AB0EE419A4E
:100F3000202101A80EF03FFFB4480078022803D01A
:100F4000B248007801287BD1B0480078022878D1D7
:100F5000AF48B0F9000000EE100AB8EEC00ADFEDAD
:100F6000AD0A30EE600A10EE101A08460FF02AFBA8
:100F700041EC1A0BA84890ED000B53EC102B51ECF0
:100F80001A0B0FF033FB5DD8A148B0F9000000EE5A
:100F9000100AB8EEC00ADFED9F0A30EE200A10EE0C
:100FA000101A08460FF00EFB41EC1A0B9A4890ED10
:100FB000000B53EC102B51EC1A0B0FF02FFB41D808
:100FC0009648B0F9000000EE100AB8EEC00ADFED56
:100FD000910A30EE600A10EE101A08460FF0F2FA8D
:100FE00041EC1A0B8E4890ED000B53EC102B51EC9A
:100FF0001A0B0FF0FBFA25D28848B0F9000000EE7A
:10100000100AB8EEC00ADFED830A30EE200A10EEB7
:10101000101A08460FF0D6FA41EC1A0B804890EDF2
:10102000000B53EC102B51EC1A0B0FF0F7FA09D808
:1010300010207C490870012009B0BDEC068B00BD72
:101040009CE014E0784890ED001A7448B0F9000074
:1010500000EE100AF8EEC00A6D48B0F9000000EE8C
:10106000100AB8EEC00AFFF7D5FD0020E4E76F488C
:10107000B0F9000000EE100AB8EEC00ADFED650A14
:1010800030EE600A10EE101A08460FF09BFA41ECA1
:101090001A0B614890ED000B53EC102B51EC1A0B1E
:1010A0000FF0A4FA55D86148B0F9000000EE100A1C
:1010B000B8EEC00ADFED570A30EE200A10EE101A23
:1010C00008460FF07FFA41EC1A0B534890ED000BE5
:1010D00053EC102B51EC1A0B0FF0A0FA39D85448EE
:1010E000B0F9000000EE100AB8EEC00ADFED490AC0
:1010F00030EE600A10EE101A08460FF063FA41EC69
:101100001A0B474890ED000B53EC102B51EC1A0BC7
:101110000FF06CFA1DD24648B0F9000000EE100A3C
:10112000B8EEC00ADFED3B0A30EE200A10EE101ACE
:1011300008460FF047FA41EC1A0B394890ED000BC6
:1011400053EC102B51EC1A0B0FF068FA01D8012068
:1011500072E7354890ED001A3548B0F9000000EE0E
:10116000100AF8EEC00A3148B0F9000000EE100A8B
:10117000B8EEC00AFFF74EFD00205DE79FED2D0A97
:1011800038EE400A10EE101A08460FF01BFA41EC38
:101190001A0B214890ED000B53EC102B51EC1A0B5D
:1011A0000FF024FA7DD89FED230A38EE000A10EEE6
:1011B000101A08460FF006FA41EC1A0B164890ED8B
:1011C000000B53EC102B51EC1A0B0FF027FA77D8C9
:1011D0009FED180A38EEC00A10EE101A08460FF0FC
:1011E000F1F941EC1A0B0E4826E00000A80300209C
:1011F0001C03002018030020AA030020A6030020DF
:10120000A40300201000002008000020E0030020BC
:1012100028030020CDCC4C3D680300202A03002089
:1012200070030020B2030020880300202003002068
:1012300022030020CDCC4C3E90ED000B53EC102B44
:1012400051EC1A0B0FF0D2F93AD21FED060A38EE24
:10125000800A10EE101A08460FF0B4F941EC1A0B90
:10126000FB4890ED000B53EC102B51EC1A0B0FF0D8
:10127000D5F925D8F7A1FC480FF010FDFA480EF07B
:10128000A5FDFA49086008460168F748FEF788FF9F
:10129000F7480078F749097888420FD0F448027877
:1012A00000E00DE0F4A101A80FF0F8FC01A9012075
:1012B00002F013F9EE480078EE4908700120BBE611
:1012C000B0EE491AF0EE680AB0EE480AFFF706FAE7
:1012D0000120ED4908700020AEE61CB5EB4800780F
:1012E00001281CD1EA48EB49EB4BEC4ACDE9001050
:1012F000EBA1F1480EF072FD0446E74890ED000BBB
:10130000EE4880ED000BE34890ED000BD04880EDF7
:10131000000B0020DD490870E949087000BF1CBDC2
:1013200030B504460D46002107E014F81100904244
:1013300002D14FF0FF3030BD491CA942F5DBE14836
:10134000006804F81020DF48006804EB4000437098
:101350000120F0E7F8B5DC480078012873D1DB48BC
:101360000079FF2803D10020D949087066E00020E9
:10137000D7490870D5480479002000900025BC4862
:101380000078012808DBBA480078062804DCB84851
:101390000078401EC5B225E0B5480078092808DB72
:1013A000B34800780E2804DCB1480078C01EC5B2EE
:1013B00018E0AF480078102808DBAD480078152801
:1013C00004DCAB480078001FC5B20BE0A8480078E9
:1013D000182807DBA64800781D2803DCA4480078FD
:1013E000801FC5B224208DF800008DF801408DF8D3
:1013F00002500A208DF803000421684605F05DFBC9
:101400002B462246B3480168B348FFF789FF0646DA
:10141000701C90B124208DF800008DF801408DF8EB
:1014200002500A208DF803000421684605F045FBB0
:10143000A8480068401CA749086000BF0020A249D6
:1014400008709F490870F8BDF8B5904800780128E9
:101450006DD199480079FF2803D100209C4908707C
:1014600060E000209A4908709348057900200090B8
:101470007F480078012808DB7D480078062804DCD6
:101480007B480078401EC4B225E0794800780928DE
:1014900008DB774800780E2804DC75480078C01E09
:1014A000C4B218E072480078102808DB7048007851
:1014B000152804DC6E480078001FC4B20BE06C48AD
:1014C0000078182807DB6A4800781D2803DC684884
:1014D0000078801FC4B224208DF800008DF80150E0
:1014E0008DF802400A208DF803000421684605F0BB
:1014F000E4FA23462A46774801687748FFF710FF49
:101500000646701C68B124208DF800008DF801504B
:101510008DF802400A208DF803000421684605F08A
:10152000CCFA00BF00205949087065490870F8BD21
:1015300010B500206949086001206949C1F8B0026E
:10154000322004F0BFFB0020644908600120654997
:10155000087000206449086010BD10B500205F4984
:10156000091D086001205E49C1F8B402322004F070
:10157000A9FB00205949091D08600120594908703C
:1015800000205A49086010BD10B52DED028B584857
:1015900090F83800002841F05A825548B0F94400CC
:1015A000B0F5487F2BDD5248B0F94400B0F5966F96
:1015B00025DA5048007818B902F0FFFB4D49087051
:1015C00001204D4908704D4800780978884219D0AB
:1015D000494800784949087049A123480FF05EFB4B
:1015E00021480EF0F3FB21490860084601681E48B7
:1015F000FEF7D6FD46A1012001F06FFF02E00020BA
:101600003C4908703A48B0F9440040F2145188420D
:101610001CDD3748B0F9440040F2A461884215DA75
:101620003C480078002812D13B49087001203B4912
:1016300008700220304908703048007809788842E4
:1016400005D02D4800782D49087069E08BE08DE0C9
:10165000700300205B73395DB5BDB4EFB5DAD2BB62
:10166000B8F6C7F8D3F200001000002008000020F0
:101670002004002021040020B5BDB4EFB5DA2564B4
:10168000B8F6C7F8D3F20000230400206C05002050
:101690005003002048030020400300203F030020A7
:1016A000244B5425632C20256C662C256C662C203D
:1016B000256C6620000000006C10002068030020EC
:1016C00073050020C4030020760500209810002038
:1016D000E00300202404002024060020B0824142C0
:1016E00000804142190100201C010020200100203F
:1016F0005E0E0020290400202C0400202B04002072
:101700005B78315D20736F756E643230312000007C
:1017100031B5B500280400202A040020B2030020BF
:10172000FAA1FE480FF0BAFAFC480EF04FFBFC4954
:10173000086008460168F948FEF732FDF9A101206A
:1017400001F0CBFE0120F84908700020F74908702D
:10175000F7490870F749087000231A4619461846D9
:10176000FEF705FF02E00020F3490870F348B0F9E6
:10177000440040F2A461884214DDF048B0F944000E
:1017800040F6980188420DDAED48007820B9012032
:10179000EB490870EB4908700320EB490870EB49EE
:1017A000087002E00020E6490870E548007801284A
:1017B00041F05081E34800781E2881F04681DFE83F
:1017C00010F01E002600350059007E00A600CB0058
:1017D000ED00570179023F03F6030805CB05C20669
:1017E0004409440944094409440944094409440991
:1017F00044094409840762080E0935093E0900209E
:10180000D34908600120C849087001F01FB9CD48CC
:101810000078401CCB4908700120C34908700023A0
:101820001A4619461846FEF7A2FEEEE702F012FA33
:10183000C44909780844C3490870BB4800780128A6
:1018400014D1C4A1B5480FF029FAB4480EF0BEFA7D
:10185000B349086008460168B048FEF7A1FCBEA184
:10186000012001F03AFE0020AF4908700120AE4986
:101870000870CAE7B6480068B0F5FA7F13DAB448D2
:1018800000681430B249086008460068FA2815DA82
:1018900008460068642811DD00231A4619461846D8
:1018A000FEF765FE0AE00020A9490860A548007817
:1018B000401CA449087001209B490870A5E702203C
:1018C00002F000FA9F49097808449E4908700020F8
:1018D0009F49086094480078012814D1A0A18F483E
:1018E0000FF0DCF98D480EF071FA8D49086008465A
:1018F00001688A48FEF754FC9AA1012001F0EDFD31
:101900000020894908700120874908707DE79048C8
:101910000068B0F5FA7F13DA8D48006814308C49FE
:10192000086008460068FA2815DA08460068642846
:1019300011DD00231A4619461846FEF718FE0AE084
:101940000020834908607F480078401C7D4908706A
:1019500001207549087058E7642002F0F4F97949CC
:1019600009780844774908700020794908606E4872
:101970000078012811D17FA168480FF08FF96748DE
:101980000EF024FA66490860084601686348FEF7CD
:1019900007FC79A1012001F0A0FD36E76C48006842
:1019A000B0F57A7F43DA6A48006814306849086005
:1019B00008460068642190FBF1F201FB1200002848
:1019C00055D1704908807049088070480068704996
:1019D00008607048D0ED000A6F4890ED000AB8EE3C
:1019E000C00A30EEC00A6D48D0ED000A20EE200A91
:1019F0006B4880ED000A90ED000ABDEEC00A10EEC3
:101A0000100A00B26749088061480068FEF734FE9A
:101A10006548B0F900306348B0F900205948B0F982
:101A200000105948B0F90000FEF7A1FD1FE05FA1CA
:101A30003A480FF033F939480EF0C8F938490860D0
:101A4000084601683548FEF7ABFB59A1012001F0BB
:101A500044FD00203E4908603A480078401C39495E
:101A60000870012030490870002054490870CCE605
:101A700053480068143052490860524800681430D6
:101A80005049086008460068B0F57A7F01DB002005
:101A90000860FFF722FCFFF75DFC4B480078012847
:101AA00015D13C4890ED001A4848B0F9000000EE0E
:101AB000100AF8EEC00A4648B0F9000000EE100A1D
:101AC000B8EEC00AFFF72AFA424908608CE03B48AA
:101AD000007800EB4000404901EB8000D0ED021A95
:101AE000B0EE611A3548007800EB400001EB800051
:101AF000D0ED011AF0EE610A3048007800EB4000AA
:101B000001EB8000D0ED001A68E000005B78315DE9
:101B100020736F756E643230332000001000002097
:101B20000800002032B5B500B7030020750500207D
:101B30007305002074050020280400205E0E00209C
:101B40002A040020B20300202C0400202B040020D3
:101B5000300400205B73385DBDE2CBF8000000006C
:101B60005B73395DC4A3CABD32A3AC7AD6E1C1E3CD
:101B7000CBD900005B73395DD2BBBCFCC6F0B7C9E2
:101B800000000000A6030020A40300201003002092
:101B90001803002088030020380400208C03002054
:101BA00090030020A8030020AA0300205B73395D86
:101BB000C0EBBFAAC6F0B7C9B5E3000020040020FF
:101BC0000C03002030030020E0030020220300204B
:101BD00020030020F403002024010020B0EE610A5D
:101BE000FFF79CF9FE490860FD48006810B9002025
:101BF000FC490860FA48006801285AD1F948006891
:101C0000C82856DB0020F8490860F8490860012020
:101C1000F74908600020F7490860F7480078012874
:101C200005D1F6A101F059FC0020F3490870F748EE
:101C30000078012819D1EB480068B0F52F7F14DB3C
:101C40000020E8490860F2A1012001F046FCF3A160
:101C5000F6480FF023F8F5480EF0B8F8F44908609C
:101C600008460168F148FEF79BFADE480068B0F5C7
:101C70002F7F1EDBE5480078D8B9EE480078401C7D
:101C8000EC4908700120DC4908700020D849086040
:101C9000E8480078072805D10920E74908700120A5
:101CA000D5490870E5A1012001F017FC0020CD49BD
:101CB0000860AAE5CB4800681430CA490860CB48E0
:101CC00000681430C949086008460068B0F57A7F9A
:101CD00001DB00200860FFF700FB0020CB49087003
:101CE000D448007809287CDA08460078012815D104
:101CF000D74890ED001AD748B0F9000000EE100A5E
:101D0000F8EEC00AD448B0F9000000EE100AB8EEB0
:101D1000C00AFFF703F9B249086022E0C54800781D
:101D200000EB4000CD4901EB8000D0ED021AB0EE8F
:101D3000611AC048007800EB400001EB8000D0ED54
:101D4000011AF0EE610ABB48007800EB400001EB9D
:101D50008000D0ED001AB0EE610AFFF7DFF8A0496D
:101D600008609F48006810B900209E4908609C48A0
:101D70000068012863D19B480068C8285FDB002009
:101D800099490860994908609A4908609A4800781A
:101D9000012805D199A101F0A0FB00209649087007
:101DA0009A480078012819D18E480068B0F52F7F35
:101DB00014DB00208B49086095A1012001F08DFB08
:101DC00096A19A480EF06AFF98480DF0FFFF9849D7
:101DD0000860084601689548FEF7E2F98148006806
:101DE00000E021E0B0F52F7F29DB8848007830BB88
:101DF00090480078401C8F49087001207E49087087
:101E00008C480078082803D18CA1012001F065FBE3
:101E100088480078092803D191A1012001F05DFBD9
:101E20000020704908600AE083480078401C82491D
:101E300008700120704908708CA101F04EFBE4E4A9
:101E400068480068143067490860684800681430C2
:101E50006649086008460068B0F57A7F01DB00201B
:101E60000860FFF73AFAFFF7EFFA684800780128B0
:101E700015D1774890ED001A7648B0F9000000EED1
:101E8000100AF8EEC00A7448B0F9000000EE100A1B
:101E9000B8EEC00AFFF742F85149086022E06548F1
:101EA000007800EB40006D4901EB8000D0ED021A94
:101EB000B0EE611A5F48007800EB400001EB800053
:101EC000D0ED011AF0EE610A5A48007800EB4000AC
:101ED00001EB8000D0ED001AB0EE610AFFF71EF8AA
:101EE0003F4908603E48006810B900203D4908603D
:101EF0003B480068012859D13A480068C82855DB9A
:101F000001206049086000203749086037490860AF
:101F10003849086038480078012805D137A101F018
:101F2000DCFA00203449087038480078012819D1BB
:101F30002C480068B0F52F7F14DB00202949086089
:101F400033A1012001F0C9FA34A138480EF0A6FEF1
:101F500036480DF03BFF36490860084601683348B3
:101F6000FEF71EF91F480068B0F52F7F1EDB2748DB
:101F70000078D8B90020434908602E480078401CFA
:101F80002C49087001201C4908702A4800780F2845
:101F900005D10B202849087001201749087027A196
:101FA000012001F09AFA00200E4908602DE40D4846
:101FB000006814300B4908600C48006814300B4965
:101FC000086008460068B0F57A7F01DB00200860F1
:101FD000FFF783F900200D4908701648007853E098
:101FE000F40300200C030020300400203003002004
:101FF000BC82414214040020B7030020B5BDB4EFF9
:10200000B5DA78B8F6C7F8D3F2000000E003002094
:10201000C7B0CDF9D7C5BBF0B5E300005B73395D40
:10202000C7B0CDF9D7C5BBF0B5E300001000002064
:102030000800002020040020B2030020C7B0CDF922
:10204000CFC2D2BBB8F6D7AAD5DBB5E300000000FB
:102050008803002022030020200300202401002008
:10206000D7BCB1B8B5F4CDB700000000B2BBD0E822
:10207000D2AAB5F4CDB7A3ACD7BCB1B8C8A562C7D6
:10208000BD0000008482404210287DDA08460078B6
:10209000012815D1FD4890ED001AFD48B0F9000067
:1020A00000EE100AF8EEC00AFA48B0F9000000EE9F
:1020B000100AB8EEC00AFEF731FFF749086022E0C7
:1020C000F648007800EB4000F54901EB8000D0EDC8
:1020D000021AB0EE611AF148007800EB400001EB03
:1020E0008000D0ED011AF0EE610AEC48007800EBB8
:1020F000400001EB8000D0ED001AB0EE610AFEF75F
:102100000DFFE5490860E448006810B90020E54982
:102110000860E148006801285AD1E2480068C828F0
:1021200056DB0020E0490860E0490860E0490860AB
:10213000E0480078012806D1AFF2401101F0CDF956
:102140000020DC490870DC48007801281BD1D54804
:102150000068B0F52F7F16DB0020D2490860AFF28F
:102160005011012001F0B9F9AFF25011D3480EF02F
:1021700095FDD2480DF02AFED14908600846016855
:10218000CE48FEF70DF800E017E0C6480068B0F54D
:102190002F7F1DDBC848007870B9C0480078401C0C
:1021A000BE4908700120C3490870AFF24C1101F01C
:1021B00094F90020BB4908600AE0C2480078401C3E
:1021C000C04908700120BB490870BFA101F085F922
:1021D0004DE4B44800681430B2490860B348006860
:1021E0001430B249086008460068B0F57A7F01DB18
:1021F00000200860FFF771F8FFF7ACF8A7480078F7
:1022000016283CDAAC480078012815D19F4890ED9B
:10221000001A9F48B0F9000000EE100AF8EEC00A5C
:102220009C48B0F9000000EE100AB8EEC00AFEF7B4
:1022300075FE9949086022E09848007800EB40005C
:10224000974901EB8000D0ED021AB0EE611A934875
:10225000007800EB400001EB8000D0ED011AF0EEB9
:10226000610A8E48007800EB400001EB8000D0ED61
:10227000001AB0EE610AFEF751FE874908608648F1
:10228000006810B900208749086083480068012869
:1022900061D184480068C8285DDB0120904908604E
:1022A00000208149086081490860814908608148AF
:1022B0000078012806D1AFF2BC2101F00EF9002010
:1022C0007C4908707C48007801281BD1754800685B
:1022D000B0F52F7F16DB002072490860AFF2D021E5
:1022E000012001F0FAF8AFF2CC2174480EF0D6FCD0
:1022F00072480DF06BFD72490860084601686F482E
:10230000FDF74EFF67480068B0F52F7F23DB6A4872
:10231000007800BB002072490860604800781628E9
:1023200007D05E480078401C5C4908700120614974
:1023300008705A480078162805D10D2061490870A8
:1023400001205C490870AFF20C31012001F0C5F8A2
:1023500000205449086079E352480068143051491C
:102360000860524800681430504908600846006808
:10237000B0F57A7F01DB00200860FEF7AEFF002099
:102380004D4908704548007818287DDA08460078DD
:10239000012815D13D4890ED001A3D48B0F90000E4
:1023A00000EE100AF8EEC00A3A48B0F9000000EE5C
:1023B000100AB8EEC00AFEF7B1FD3749086022E006
:1023C0003648007800EB4000354901EB8000D0ED45
:1023D000021AB0EE611A3148007800EB400001EBC0
:1023E0008000D0ED011AF0EE610A2C48007800EB75
:1023F000400001EB8000D0ED001AB0EE610AFEF75C
:102400008DFD254908602448006810B90020254941
:10241000086021480068012837D122480068C82890
:1024200033DB00202049086020490860204908600B
:1024300020480078012806D1AFF2404101F04DF864
:1024400000201C4908701C48007801281BD1154841
:102450000068B0F52F7F16DB002012490860AFF24C
:102460005041012001F039F8AFF2504113480EF00D
:1024700015FC12480DF0AAFC1149086008460168D5
:102480000E48FDF78DFE2DE051E05BE08803002053
:102490002203002020030020F40300202004002059
:1024A000240100200C030020300400203003002011
:1024B00014040020B7030020E003002010000020D7
:1024C00008000020B2030020B2BBD0E8D2AAB5F4C5
:1024D000CDB7A3ACD7BCB1B8C8A563C7BD000000D9
:1024E000BC824142FD480068B0F52F7F2ADBFC48E2
:1024F000007838BBFB480078401CFA49087001207E
:10250000F9490870F7480078172804D1AFF2D44190
:10251000012000F0E2FFF3480078182803D1F3A16E
:10252000012000F0DAFF0020EC4908600AE0F448DE
:102530000078401CF24908700120EB490870F1A1B5
:1025400000F0CBFF82E2E54800681430E349086000
:10255000F24800681430F149086008460068B0F598
:102560007A7F01DB00200860FEF7B7FEFEF76CFF04
:10257000DC4800781E283CDAD9480078012815D1BB
:10258000E74890ED001AE748B0F9000000EE100AA5
:10259000F8EEC00AE448B0F9000000EE100AB8EE08
:1025A000C00AFEF7BBFCE149086022E0CD48007894
:1025B00000EB4000DE4901EB8000D0ED021AB0EEE6
:1025C000611AC848007800EB400001EB8000D0EDB4
:1025D000011AF0EE610AC348007800EB400001EBFD
:1025E0008000D0ED001AB0EE610AFEF797FCCF49EB
:1025F0000860CE48006810B90020B8490860CB4890
:102600000068012860D1B5480068C8285CDB01205B
:10261000C84908600020C8490860C0490860C74927
:102620000860B1480078012806D1AFF2306100F0AF
:1026300054FF0020AC490870A948007801281DD13A
:10264000A6480068B0F52F7F18DB0020B949086064
:10265000A2490860AFF24861012000F03EFFAFF2EE
:102660004461B7480EF01AFBB5480DF0AFFBB54911
:10267000086008460168B248FDF792FD9748006877
:10268000B0F52F7F20DB96480078E8B995480078B0
:102690001E2804D093480078401C924908700120FD
:1026A000914908708F4800781E2805D11920944957
:1026B000087001208C490870AFF28061012000F0A1
:1026C0000CFF002085490860C0E194480068143080
:1026D0009249086008460068B0F57A7F01DB002067
:1026E0000860FEF7FAFD7F48007800EB4000904A52
:1026F00002EB800090ED000ADFED930A30EE600AF5
:1027000010EE101A08460DF05DFF41EC180B8F48D3
:1027100090ED000B53EC102B51EC180B0DF066FFF5
:102720007ED87048007800EB4000814A02EB8000C0
:1027300090ED000ADFED840A30EE200A10EE101A48
:1027400008460DF03FFF41EC180B804890ED000B60
:1027500053EC102B51EC180B0DF060FF69D8614859
:10276000007800EB4000724A02EB800090ED010A15
:10277000DFED750A30EE600A10EE101A08460DF013
:1027800021FF41EC180B724890ED000B53EC102B1D
:1027900051EC180B0DF02AFF4BD25248007800EB99
:1027A0004000634A02EB800090ED010ADFED660A0B
:1027B00030EE200A10EE101A08460DF003FF41EC2F
:1027C000180B634890ED000B53EC102B51EC180BD9
:1027D0000DF024FF2DD8FDF745FF00205D4908705E
:1027E0005DA157480EF05AFA55480DF0EFFA5549D9
:1027F0000860084601685248FDF7D2FC3A48007864
:10280000012805D155A100F068FE00203649087066
:102810000020494908603A480078401C384900E0E7
:1028200007E0087001203049087000203B4908602B
:1028300028E02C48007800EB40003D4901EB800087
:10284000D0ED021AB0EE611A2648007800EB400085
:1028500001EB8000D0ED011AF0EE610A214800780A
:1028600000EB400001EB8000D0ED001AB0EE610AF1
:10287000FEF754FB3F4800683F490860084600687F
:10288000FDF7FAFEE2E025480068143023490860AD
:1028900008460068642190FBF1F201FB1200E0B9E8
:1028A000002036490880364908809FED360A3648B0
:1028B00080ED000A90ED000ABDEEC00A10EE100A8D
:1028C00000B2324908802B4800682B49086008464E
:1028D0000068FDF7D1FE2E485CE068E00C030020A4
:1028E000E003002020040020B7030020D7BCB1B8CB
:1028F000B5F4CDB7A3ACC3E6CFE064C7BD0000001C
:10290000B2030020B2BBD0E8D2AAB5F4CDB7A3ACD5
:10291000D7BCB1B8C8A564C7BD0000003003002013
:10292000880300202203002020030020F40300205D
:10293000240100208482404230040020140400203E
:1029400010000020080000209A99193E680300201A
:1029500070030020D50300205B73395DB5BDB4EF73
:10296000C6F0BDB5B5E3A3ACD7BCB1B87AD6E130FB
:10297000CBD900001C03002018030020A403002072
:10298000A60300200000000090030020A803002000
:10299000AA030020B0F900306648B0F9002066486C
:1029A000B0F900106548B0F90000FDF7E0FD64489B
:1029B0000068B0F57A7F11DB62A1012000F08DFD87
:1029C00000206549086065480078401C634908702C
:1029D00001206349087000205949086036E001F081
:1029E000ECF900205C4908605C480078401C5B49B9
:1029F00008705B480078012814D15AA15C480EF099
:102A00004DF95B480DF0E2F95A4908600846016843
:102A10005748FDF7C5FB54A1012000F05EFD0020E2
:102A20004F4908700020544908700FE04A48006878
:102A300014304949086000204949087006E04648BA
:102A4000006814304449086000E000BF02E0002044
:102A500042490870BDEC028B10BD10B547480078A4
:102A600020BB40F2DC5146480AF0C0F9012043493E
:102A70000870444908700020434908704348B0F981
:102A80000000434908600846006842490860404821
:102A90000068002805DB3E480068B4383E490860FD
:102AA00004E03B480068B4303B4908603548007892
:102AB00010B101283AD136E038480078002831D0EA
:102AC0000020364908703648C078364908703448C6
:102AD000007935490870A520344908705A2048709B
:102AE000032088700020C870FD20087105212F4840
:102AF00003F094FE2B480078012805D12A4800787D
:102B0000012801D11F49087029A119480EF0C6F803
:102B100017480DF05BF9174908600846016814482A
:102B2000FDF73EFB03E0FEF72FFD00E000BF00BF16
:102B300010BD0000A8030020A6030020A40300206D
:102B4000300300207AD6E130CBD92CD7BCB1B8D233
:102B5000BBBCFCBDB5C2E40030040020B2030020C1
:102B6000B70300205B73395DBDB5C2E4000000000F
:102B70001000002008000020200400201801002080
:102B800000080040B0000020220400204C04002077
:102B9000100300201C0300201403002076050020F1
:102BA00098100020E2030020E3030020E40300204B
:102BB0005B73385DD7BCB1B8D2D1CDEAB3C9A3AC91
:102BC000B6FEBCB6D2D1BDE2CBF80000FF20FA4978
:102BD00081F8C0030021F848A0F8C213A0F8C4137C
:102BE000FF20F54981F8C6030021F348A0F8C81377
:102BF000A0F8CA13FF20F04981F84E006421EE4886
:102C0000A0F850100121A0F85210FF20EA4981F8E5
:102C100080011421E848A0F882110021A0F8841155
:102C2000FF20E54981F820010021E348A0F82211A6
:102C3000A0F82411FF20E04981F832010021DE488C
:102C4000A0F83411A0F83611FF20DB4981F83801D3
:102C50000021D948A0F83A11A0F83C11FF20D6492C
:102C600081F886010021D448A0F88811A0F88A11C3
:102C7000FF20D14981F840050021CF48A0F8421536
:102C8000A0F84415FF20CC4981F84C050021CA4822
:102C9000A0F84E15A0F85015FF20C74981F8A605E9
:102CA0000021C548A0F8A815A0F8AA15704770B56E
:102CB00004460D462946204604F002FD70BDBE4A7A
:102CC00010700122BC4B5A707047BB4A82F84C0509
:102CD000012382F84D3570472DE9F04104460D4639
:102CE00000260027E178A81F814201D0BDE8F081CD
:102CF000002006E0215C3144CEB2B919CFB2411CAC
:102D0000C8B2A91E8142F5DC601910F8020CB0426D
:102D100004D1601910F8010CB84200D0E6E7207821
:102D2000AA2805D16078612803D06078FF2800D0F8
:102D3000DCE7A078202811D1A088A0490880E0888D
:102D40004880208988806089C880A0890881E089BE
:102D50004881208A8881608AC881AEE0A0780F28E7
:102D60000DD1207940B296490870607940B2487020
:102D7000A07940B28870E07940B2C8709DE0A07838
:102D800006280CD120798F4948706079C870A079E5
:102D90000871E1798B484171217A81718DE0A078C9
:102DA0000728DAD0A078E0281ED12079012806D0A3
:102DB000022805D0102804D0112804D102E003E035
:102DC00002E001E000E000BF00BF20797A4981F80D
:102DD0000C06084680F80D6680F80E7600F20C614D
:102DE000AF20FFF76CFF68E0A078B0B9724890F8A8
:102DF0000F062179884260D16F4890F810066179FA
:102E000088425AD16C4890F81106A179884254D171
:102E10000020694981F800064FE0A078E12811D12F
:102E20002179607901EB00201FFA80F86248A0F850
:102E300014860021C0F8181600F21461FF20FFF775
:102E400044FF3AE0A078E2280ED120795A4981F86F
:102E50000C06084680F80D6680F80E7600F20C61CC
:102E6000FF20FFF72CFF28E0A078052806D156495F
:102E7000606808605549A06808601EE0A0780828CE
:102E800006D15349606808605249A068086014E0A0
:102E9000A078032811D1A0884F490880E0884F49C5
:102EA000088020894E4908800846B0F90000642156
:102EB00090FBF1F000B24A49088000BF16E710B558
:102EC00004464848007838B9AA2C05D10120454964
:102ED00008704548047092E042480078012809D102
:102EE000612C01D0FF2C05D102203E4908703E48DC
:102EF000447084E03B480078022805D1032039491A
:102F00000870394884707AE03648007803280CD17C
:102F1000FA2C0ADA0420334908703348C470334865
:102F2000047000203249087069E02E4800780428B7
:102F300019D12E480078002815DD2C480078401E55
:102F40002A4908702A48007829490978491C284AE2
:102F50001170001D24490C542448007858BB0520EA
:102F6000204908704BE01F48007805280DD1062045
:102F70001C4908701E4800781D490978491C1C4AE4
:102F80001170001D18490C5439E0164800780628C5
:102F900032D100201349087015480078001D1249ED
:102FA0000C5413480078401D1249087008460178F7
:102FB0000D48FFF791FE22E088060020020E002057
:102FC00050050020520E0020340400203804002058
:102FD0004004002044040020480400204A0400204B
:102FE0004C04002055040020A40C002053040020B1
:102FF000540400204E0400200020FE49087010BD3B
:103000007CB506460C461546402E70D00BDC302EA3
:1030100052D003DC6EB30D2E6AD140E0332E58D06F
:10302000342EF9D165E0E02E71D004DC412E7ED043
:10303000A02EF1D104E0E22E6BD0F12EECD1C5E050
:1030400002212278501C2070A954EB480CF0BEFEDF
:10305000EA490860002007E0E7490A5C2378591C28
:103060002170EA54411CC8B2E44909688842F3DB84
:10307000BAE0E34890F80C162278501C2070A9544E
:10308000DF4890F80D162278501C2070A954DC48B7
:1030900090F80E162278501C2070A954A4E000204D
:1030A00007E0D8490A5C2378591C2170EA54411C76
:1030B000C8B20428F5DB97E0002007E0D2490A5C9B
:1030C0002378591C2170EA54411CC8B21728F5DB3B
:1030D0008AE0002008E0CC4919390A5C2378591CA1
:1030E0002170EA54411CC8B20628F4DB7CE011E0F0
:1030F00079E0002008E0C449C91F0A5C2378591C04
:103100002170EA54411CC8B20728F4DB6CE01BE0D4
:103110000DE02DE0002007E0BC490A5C2378591C33
:103120002170EA54411CC8B21428F5DB5CE0002091
:1031300007E0B7490A5C2378591C2170EA54411C06
:10314000C8B20E28F5DB4FE0AD4890F801162278A2
:10315000501C2070A954002007E0AE490A5C237877
:10316000591C2170EA54411CC8B20A28F5DB3BE027
:10317000A348B0F8140600B201909DF8041022781C
:10318000501C2070A9549DF805102278501C207006
:10319000A9549B48D0F8180600909DF8001022789A
:1031A000501C2070A9549DF801102278501C2070EA
:1031B000A9549DF802102278501C2070A9549DF843
:1031C00003102278501C2070A9540DE0002007E065
:1031D0008F490A5C2378591C2170EA54411CC8B2FB
:1031E0000E28F5DB00E000BF00BF7CBDF8B504464B
:1031F0000F4600200090AA219DF80020501CC0B26C
:1032000000908548815439789DF80020501CC0B248
:103210000090814881549DF80010481CC0B2009075
:103220007D48445400219DF80020501CC0B20090FD
:1032300079488154024669462046FFF7E1FE9DF831
:103240000000001F7449C87000250026002007E018
:103250007149095C2944CDB27119CEB2411CC8B282
:103260009DF800108842F3DB9DF80010481CC0B2A6
:103270000090694845549DF80010481CC0B2009069
:10328000654846545E4890F8000640B1E02C06D1EF
:103290005B4880F80F4680F8105680F811669DF85C
:1032A00000105D48FFF703FDF8BD10B5044604EBC0
:1032B0004400534901EB4000408828B304EB44002C
:1032C00001EB4000808804EB44014D4A02EB4101D0
:1032D000498888420CDA04EB4400114601EB4000B7
:1032E0008088401C04EB440102EB410188800BE024
:1032F000012004EB4401424A02EB4101888004EBC7
:10330000440102EB4101487004EB44003C4901EBED
:103310004000407868B1002004EB4401384A02EBD9
:103320004101487004EB440002EB40012046FFF7E6
:103330005DFF10BD324A82F84005012382F8413515
:1033400001222F4B83F8002670471FB5044600204A
:103350000246401C31498C549DF804300246401C02
:103360008B549DF805300246401C8B549DF8083064
:103370000246401C8B549DF809300246401C8B5479
:103380009DF80C300246401C8B549DF80D300246CF
:10339000401C8B549DF818300146421CD0B21F4A85
:1033A00053549DF819300146421CD0B21B4A535465
:1033B0009DF81C300146421CD0B2184A53549DF867
:1033C0001D300146421CD0B2144A53549DF820309F
:1033D0000146421CD0B2114A53549DF82130014697
:1033E000421CD0B20D4A53549DF824300146421C71
:1033F000D0B215E055040020740000203C040020E9
:1034000088060020580400203B0E0020980E002063
:10341000F40D00208A0C002054060020A40D00208A
:10342000914A53549DF825300146421CD0B28E4A31
:1034300053548E4908701FBD70B500248B48007826
:10344000002849D0AA222046611CCCB288490A54DF
:10345000FF222146601CC4B285484254F122214615
:10346000601CC4B28248425400222046611CCCB287
:103470007F490A54002008E07B490B5C2146621C0E
:10348000D4B27B4A5354411CC8B278490978884267
:10349000F2DB201F7649C87000250026002007E0D7
:1034A0007349095C2944CDB27119CEB2411CC8B22E
:1034B000A042F5DB2046611CCCB26D490D5420467C
:1034C000611CCCB26A490E5421466948FFF7EFFBF4
:1034D00000206649087000BF70BD10B5024600208C
:1034E00007E00B5C634C2354431CD8B2282800DB54
:1034F00002E00B5C002BF4D100BF022A00DD0022A9
:103500005D4B1A705D4B187010BD70B500245B48A0
:103510000078002850D0AA222046611CCCB2544921
:103520000A54FF222046611CCCB251490A54A02201
:103530002046611CCCB24E490A5400222046611C30
:10354000CCB24B490A544C4802782046611CCCB29C
:1035500047490A54002008E046490B5C2146621C9A
:10356000D4B2434A5354411CC8B2444909788842F2
:10357000F2DB201F3E49C87000250026002007E02E
:103580003B49095C2944CDB27119CEB2411CC8B285
:10359000A042F5DB2046611CCCB235490D542046D3
:1035A000611CCCB232490E5421463148FFF77FFBF3
:1035B00000203249087000BF70BD10B52DED028BA0
:1035C000B0EE408A00F022F83020FFF76EFE332084
:1035D000FFF76BFE3420FFF768FE4020FFF765FE23
:1035E0004120FFF762FEE020FFF75FFEE220FFF7D9
:1035F0005CFE0D20FFF759FEFFF787FFFFF71CFF6A
:10360000A120FFF752FEBDEC028B10BD1C4890F8C4
:103610000006012821D11B480078322805DA194814
:103620000078401C174908701CE0002015490870FC
:1036300015480078401C1449087008460078052891
:1036400004DA01210E4880F841150BE000200E49F4
:1036500008700B4981F8000604E000200949087051
:103660000949087070470000A40D00205004002094
:1036700054060020CC0D00205104002052040020EC
:1036800088060020560400204F04002000B52DEDD0
:10369000028B85B0B0EE408AF74890F838000028D9
:1036A0007CD1F54890F839000028F9D1F248B0F9FA
:1036B0004200B0F5966F06DA012000F003FB01200E
:1036C000EE49087013E0EC48B0F9420040F2A46102
:1036D000884206DA022000F0F5FA0220E749087075
:1036E00005E0032000F0EEFA0320E4490870E34807
:1036F0004078E249097888420BD0E0480078DF49F9
:10370000487008460078032803D108468078401C9A
:103710008870DA48807810B3D9480088B0F5FA6F1D
:1037200010DAD748008800EE100AB8EE400ADFED44
:10373000D50A00EE880ABCEEC00A10EE100AD04985
:1037400008800CE0CD498978032901DB00F0E2FA1A
:1037500020B10021CA4A1180C84A917000BFC648F2
:10376000B0F93A00A0F2DC5000EE900AF8EEE00A60
:10377000B0EE600A9FEDC41ADFEDC40A01F07AFAD8
:103780008DED010ABC48B0F93C00A0F2DC5000EE1F
:10379000900AF8EEE00AB0EE600A00E085E09FEDE6
:1037A000BA1ADFEDBA0A01F065FA8DED020AB248E5
:1037B000B0F93E00A0F2DC5000EE900AF8EEE00A0C
:1037C000B0EE600A9FEDB21ADFEDB00A01F052FAD6
:1037D0008DED030AA848B0F94000A0F2DC5000EEDD
:1037E000900AF8EEE00AB0EE600A9FEDA91ADFED4C
:1037F000A70A01F03FFA8DED040AA648007858B1F7
:103800009FEDA20A8DED010A9FEDA00A8DED020A3F
:103810009FED9E0A8DED040A9848007802283ADA56
:103820009DED010ADFED9C0A20EE200ADFED9B0AE8
:1038300020EE200ABDEEC00A10EE100A00B2984930
:1038400008809DED020AB1EE400ADFED930A20EEFA
:10385000200ADFED920A20EE200ABDEEC00A10EE2B
:10386000100A00B248808448C08FA0F57A7000B278
:1038700088809DED040AB1EE400ADFED8A0A20EE51
:10388000200ADFED890A20EE200ABDEEC00A10EE04
:10389000100A00B2C8800121844880F887110020F6
:1038A00083490870834908701EE08348C07878B166
:1038B0007F48007828B9032000F004FA7C4908709A
:1038C00006E07C48007818B900F024FA79490870BD
:1038D00000207349088048804FF4AF708880002032
:1038E000C88088814881088105B0BDEC028B00BD8D
:1038F00010B504467148008800EE100AB8EE400A80
:10390000DFED6F0A20EE200ABDEEC00A10EE100AAD
:1039100000B26C4908806948408800EE100AB8EE91
:10392000400ADFED670A20EE200ABDEEC00A10EE65
:10393000100A00B248806148808800EE100AB8EE94
:10394000400ADFED5F0A20EE200ABDEEC00A10EE4D
:10395000100A00B288805948C08800EE100AB8EEFC
:10396000400ADFED570A20EE200ABDEEC00A10EE35
:10397000100A00B2C8805148008900EE100AB8EE63
:10398000400ADFED4F0A20EE200ABDEEC00A10EE1D
:10399000100A00B208814948408900EE100AB8EECA
:1039A000400ADFED470A20EE200ABDEEC00A10EE05
:1039B000100A00B248814148808900EE100AB8EE32
:1039C000400ADFED3F0A20EE200ABDEEC00A10EEED
:1039D000100A00B288813948C08900EE100AB8EE9A
:1039E000400ADFED370A20EE200ABDEEC00A10EED5
:1039F000100A00B2C8813448007818B90120324951
:103A0000087027E0E4B1002017E02E4931F91010CA
:103A1000002901DC00210BE02A4931F91010B1F531
:103A20007A7F02DD4FF47A7102E0264931F91010F5
:103A3000244A22F81010411CC8B20828E5DB09E02E
:103A4000002005E000211F4A22F81010411CC8B2D6
:103A50000828F7DB1B4802F04AFC10BD10B502F045
:103A6000E1F9DFED1A0A20EE200ABCEEC00A10EEE2
:103A7000100A1749088010BD5E0E00205E04002069
:103A80006204002000007A44000020420000000090
:103A90000000A042700400208F360E3B00C05A4543
:103AA000F40D0020C6F91B3B0000484388060020A7
:103AB0005C0400205D040020520E0020020E002055
:103AC000CDCCCC3D120E0020640400200000C84282
:103AD0005804002010B523480088401C2149088064
:103AE000084600880A2190FBF1F201FB12001D49F3
:103AF00008800846008810BB9FED1B0A00F01BFEE3
:103B00009FED190AFFF7C2FD9FED170A00F00EFCAA
:103B10009FED150A01F0E8FA12484088401C11494F
:103B20004880084640880A2190FBF1F201FB120010
:103B30000C4948800846408808B9FFF78FFF03F01A
:103B40003EFE012001F070FC9FED080A00F010F825
:103B50009FED060AFFF731FD0120FFF7C9FE02F0D5
:103B600023FA10BD660400200AD7233C6F12833A63
:103B700010B52DED028BB0EE408A00F020F800BFAA
:103B80002D4840782D490978884214D02A48407839
:103B90002A49087000202A4988744FF48771284800
:103BA000A0F813102448C1692548C0F81510012158
:103BB000244880F8391100BFBDEC028B10BD2248AB
:103BC0000078FF2804D020480078401C1E49087067
:103BD000194800781D490978884216D0164800789F
:103BE0001A4908701448007A50B11348C07838B1A7
:103BF00011484089124908800F488089488004E0B4
:103C00004FF400400E49088048800B484078104926
:103C1000097888420ED0084840780D4908704FF462
:103C20000040074988800121064880F833110020B0
:103C30000549087070470000CC0E00206D0400207C
:103C4000220E0020880600206C0400206A04002058
:103C50006B04002010B50120F7498870F74890F8F0
:103C6000000688B91020F54981F801060021F348C3
:103C700080F80216012180F8031600F20161FF208E
:103C8000FFF758FB012010BD0020FCE710B5002015
:103C9000E9498870E94890F8000688B91020E7499A
:103CA00081F801060021E54880F80216022180F81B
:103CB000031600F20161FF20FFF73CFB012010BD5D
:103CC0000020FCE710B50446DD480078A0421FD074
:103CD000DA4890F80006C8B9D7480470D84804708C
:103CE0000120D64981F801060121D44880F8021646
:103CF00080F80316D0480178D04880F8041600F206
:103D00000161FF20FFF716FB012010BD0020FCE73A
:103D10000120FAE710B5C94890F8000688B91020CC
:103D2000C64981F801060021C44880F8021607211F
:103D300080F8031600F20161FF20FFF7FBFA012073
:103D400010BD0020FCE701B5BC4890F80006C8B9DA
:103D50001020BA4981F801060021B84880F80216FF
:103D6000052180F803169DF8001080F804169DF8D0
:103D7000011080F8051600F20161FF20FFF7DAFA62
:103D8000012008BD0020FCE710B5AC4890F8000603
:103D900088B91020A94981F801060021A74880F8B8
:103DA0000216042180F8031600F20161FF20FFF7DC
:103DB000C1FA012010BD0020FCE710B59F4890F823
:103DC000000688B910209D4981F8010600219B4812
:103DD00080F80216062180F8031600F20161FF2028
:103DE000FFF7A8FA012010BD0020FCE701B59348B9
:103DF00090F8000608BB1020904981F801060121C7
:103E00008E4880F80216022180F803169DF80010F3
:103E100080F804169DF8011080F805169DF8021030
:103E200080F806169DF8031080F8071600F201616D
:103E3000FF20FFF77FFA012008BD0020FCE713B543
:103E40007E4890F8000680BB10207C4981F801066E
:103E500001217A4880F8021680F803169DF80010B8
:103E600080F804169DF8011080F805169DF80210E0
:103E700080F806169DF8031080F807169DF80410C8
:103E800080F808169DF8051080F809169DF80610B0
:103E900080F80A169DF8071080F80B1600F20161F1
:103EA000FF20FFF747FA01201CBDFFE70020FBE7DA
:103EB00007B5624890F8000648BB10205F4981F8BA
:103EC000010602215D4880F80216032180F80316DE
:103ED0009DF8001080F804169DF8011080F8051672
:103EE0009DF8041080F806169DF8051080F8071656
:103EF0009DF8081080F808169DF8091080F809163A
:103F000000F20161FF20FFF715FA01200EBD00202D
:103F1000FCE713B5494890F8000608BB1020474954
:103F200081F801060221454880F80216012180F837
:103F300003169DF8001080F804169DF8011080F813
:103F400005169DF8041080F806169DF8051080F8F7
:103F5000071600F20161FF20FFF7ECF901201CBDFC
:103F60000020FCE713B5354890F8000600BB102090
:103F7000324981F801060221304880F8021680F8A3
:103F800003169DF8001080F804169DF8011080F8C3
:103F900005169DF8041080F806169DF8051080F8A7
:103FA000071600F20161FF20FFF7C4F901201CBDD4
:103FB0000020FCE737B50446204890F8000600BB17
:103FC00010201E4981F8010602211C4880F80216C3
:103FD00080F803469DF8041080F804169DF805103B
:103FE00080F805169DF8081080F806169DF809104F
:103FF00080F8071600F20161FF20FFF79BF901200E
:104000003EBD0020FCE710B50C4890F8000688B9CA
:1040100001200A4981F801060021084880F80216AB
:10402000032180F8031600F20161FF20FFF782F9F7
:10403000012010BD0020FCE7520E00208806002061
:104040006E04002010B5254890F8000688B90120BC
:10405000224981F801060021204880F80216042137
:1040600080F8031600F20161FF20FFF763F90120D9
:1040700010BD0020FCE710B5184890F8000688B97C
:104080000120164981F801060021144880F8021623
:10409000052180F8031600F20161FF20FFF74AF9BD
:1040A000012010BD0020FCE710B50C4890F8000678
:1040B00088B90120094981F801060021074880F8E4
:1040C0000216022180F8031600F20161FF20FFF7BB
:1040D00031F9012010BD0020FCE700008806002017
:1040E00010B504469848B0F94000B0F5AF6F0BDD4D
:1040F0009548B0F94000B0F5C86F05DA0120934942
:1041000048709349087002E00020904948708E483A
:10411000B0F93E00B0F5966F06DA8C48407818B9D1
:1041200001208A49087002E0002088490870884808
:10413000007801284AD18748C078002853D18248A6
:10414000B0F93A0040F26C71884210DD7E48B0F957
:104150003C0040F24C41884209DA7B48B0F93E000D
:10416000884204DA7848B0F94000884217DB764884
:10417000B0F9400040F26C71884230DD7248B0F90D
:104180003C0040F24C41884229DA6F48B0F93E00C9
:10419000884224DA6C48B0F93A0088421FDA6E4847
:1041A0000088B0F57A7F12DAD4ED000A6A480088F8
:1041B00000EE100AB8EE400A9FED681A00EE810A80
:1041C000BCEEC00A10EE100A6349088062E0FFF7F7
:1041D00041FD0020604908805D4908705AE00020D8
:1041E0005D49088056E05B48C078012852D15648A6
:1041F000B0F93A0040F26C71884210DD5248B0F9D3
:104200003C0040F24C41884209DA4F48B0F93E0088
:10421000884204DA4C48B0F94000884217DB4A482B
:10422000B0F9400040F26C71884230DD4648B0F988
:104230003C0040F24C41884229DA4348B0F93E0044
:10424000884224DA4048B0F93A0088421FDA4248EE
:104250000088B0F5967F12DAD4ED000A3E48008857
:1042600000EE100AB8EE400A9FED3C1A00EE810AFB
:10427000BCEEC00A10EE100A374908800AE0FFF7CA
:1042800005FD0020344908803149087002E0002013
:104290003149088010BD10B52E48C078002844D19F
:1042A0002948B0F9400040F24C41884217DA2648CC
:1042B000B0F93C00884212DA2348B0F93E00884247
:1042C0000DDA2148B0F93A00884208DA244800782B
:1042D00038BBFFF798FE01202149087025E01A48F5
:1042E000B0F9400040F26C7188421BDD1648B0F90D
:1042F0003C0040F24C41884214DA1348B0F93E00C9
:1043000088420FDA1048B0F93A0040F26C718842E6
:1043100008DD1348007820B9FFF794FE012010490A
:10432000087002E000200E49087010BD10B52DED98
:10433000020B054890F8380020B96846FFF7D0FE18
:10434000FFF7A9FF1CBD00005E0E002070040020D6
:1043500074040020520E00207204002000007A44F1
:104360007504002010B502F00DF80120FA4981F81B
:10437000380010BD10B501F0BDFC642001F0AEFCAA
:1043800001F090FD01F040FE642001F0A7FC03F075
:1043900067FA0020F1490860F149C1F8B4027522BA
:1043A0000221E82003F0CEFB4FF4E13002F0B3F934
:1043B0004FF4E13002F01CFB4FF4E13002F0C1FC9D
:1043C000E84803F029F8E74803F00FF9642001F00A
:1043D00085FCFFF7C7FF01F0D1FC642001F07EFCF3
:1043E000FEF7F4FB4FF4487001F078FC02F0F4F8AB
:1043F00040F24731092002F0FBF8FFF747FC0120AB
:1044000010BD40F6C411884203DDD749097803295D
:1044100003DCD54909780A290DD10021D24A11704F
:10442000CD49B1F84E10491CCB4AA2F84E100121DB
:1044300082F8501012E0B0F5967F0FDD40F6B831EB
:1044400088420BDA02B2C449891CC74B1B7821F899
:104450001320C5490978491CC34A1170704738B503
:104460000446C2A000680090C1484068C049086086
:1044700001F009FCBE494860084640680968401AD6
:1044800040F6C411884202D90020BA490870B948E0
:1044900001780078401CB74A1070B7484454104661
:1044A000007819287ED1182011460870B24800788B
:1044B0000F2878D1B048007E38B1AF48007EAF4AAF
:1044C00012781DF802108842F3D10020A949087023
:1044D000A9484078A849897801F0070140EA0120FD
:1044E0009D498882A448C0788006400DA2498978F9
:1044F00040EAE1009849C8829F484079C007400DD2
:104500009D49097940EA81009B49C97840EAA11098
:1045100091490883984880790007400D9649497968
:1045200040EA61008C4948839348C0794006400DB9
:104530009149897940EA2110874988838E48407AD9
:104540008007400D8C49097A40EA41008A49C979BF
:1045500040EAE1108049C8838748807AC006400D50
:104560008549497A40EAA1007B4908848248C07A9B
:10457000C0008149897A40EA6111774841847E48C8
:10458000007B7D49497B01F0070140EA0120724927
:1045900088847948807B8006400D7749497B40EAD2
:1045A000E10001E072E067E06B49C8847248007C7A
:1045B000C007400D7049C97B40EA81006E49897B84
:1045C00040EAA110644908856B48407C0007400D13
:1045D0006949097C40EA61005F4948856648807CFA
:1045E0004006400D6449497C40EA21105A498885BB
:1045F0006148007D8007400D5F49C97C40EA410069
:104600005D49897C40EAE1105349C8855A48407D9C
:10461000C006400D5849097D40EAA1004E49088670
:104620005548807DC0005449497D40EA61114A489F
:1046300041865148C07D484981F83400084690F8C9
:10464000340000F0080040B90846B0F84E00401CA5
:10465000A1F84E00022081F8500048480078401C24
:10466000464908700878C11700EB91718910A0EBDA
:104670008101424A117009E0002005E03E4A411CD8
:10468000515C1154411CC8B21828F7DB38BD10B575
:104690000446D4ED000A3A48008800EE100AB8EE4D
:1046A000400A9FED381A00EE810ABCEEC00A10EEF7
:1046B000100A3349088008460088B0F57A7F39DD52
:1046C000002008802448B0F84E002349C8860846D8
:1046D000C08E052803DA012081F8380003E00020AD
:1046E0001D4981F838001C4890F83800C8B11A48B4
:1046F0000078D8B924480078401C2349087008780D
:1047000000EBD0714910A0EB41011F4A1170104617
:104710000078012802D101F0B6FE07E001F032FE78
:1047200004E00D4890F850000B49087000200A4939
:10473000A1F84E0010BD10B52DED020B6846FFF735
:10474000A6FF054890F83800002877D10248007885
:10475000012826D1002021E05E0E0020B0824142D7
:104760000080414220A10700790400200414243471
:104770007C04002084040020B00E0020850400206A
:104780008804002000007A4486040020344931F86F
:104790001020383121F81020411CC8B20A28F5DB5E
:1047A00023E02F48801E007802281ED100201AE046
:1047B0002B49123131F91010A1F5806100EE101A69
:1047C000F8EEC00A9FED270A9FED271A01EE200A96
:1047D000BDEEC00A10EE101A0AB22149383121F894
:1047E0001020411CC8B20A28E2DB1D48801EB0F927
:1047F0004200B0F5966F06DD1948801EB0F9420000
:10480000B0F5AF6F0DDB1648801EB0F94200B0F571
:10481000C86F0DDD1248801EB0F94200B0F5E16F9F
:1048200006DA01200E49891E81F8390016E005E0FC
:1048300000200B49891E81F839000FE0012008494A
:10484000891E81F83900002006E000220449383131
:1048500021F81020411CC8B20A28F6DB1CBD00005C
:10486000600E00200080BB442FDD243FF0EE400AA4
:10487000F5EEC00AF1EE10FA02DBB0EE600A704706
:10488000B1EE600AFBE700B5B0EE403AB0EE602A48
:10489000B5EEC03AF1EE10FA07D1B5EEC02AF1EE4E
:1048A00010FA02D19FEDFC1A99E0B0EE430AFFF72F
:1048B000DDFFF0EE403AB0EE420AFFF7D7FFF0EE30
:1048C000402AF4EEE23AF1EE10FA02D283EEA24A66
:1048D00001E082EEA34A9FEDF10AB4EEC04AF1EE88
:1048E00010FA02D2F0EE441A2DE0DFEDED0AB6EE3A
:1048F000000A14EE200AF0EE404ABDEEE40A10EE83
:10490000100A00EE100AB8EEC00A34EEC00AF0EE4B
:10491000404AE44901EB800191ED000AF0EE401AB3
:10492000E04A411C02EB810191ED000A114601EBC6
:104930008001D1ED000A70EE600AB0EE610A00EE6F
:10494000A40AF0EE401AF4EEE32AF1EE10FA20DDAC
:10495000B5EEC02AF1EE10FA0ADBB5EEC03AF1EE80
:1049600010FA02DBB0EE611A39E0B1EE611A36E0FE
:104970009FEDCD1AB5EEC03AF1EE10FA04DB31EE40
:10498000610AB0EE401A2AE031EEC10AB0EE401AD8
:1049900025E0B5EEC03AF1EE10FA10DB9FEDC31A38
:1049A000B5EEC02AF1EE10FA04DB31EE610AB0EE8A
:1049B000401A14E031EE210AB0EE401A0FE09FEDEC
:1049C000BC1AB5EEC02AF1EE10FA04DB31EE210A72
:1049D000B0EE401A03E031EE610AB0EE401AB0EEDC
:1049E000410A00BD00B5B0EE405AF0EE605AF0EE5C
:1049F000450AB0EE650AFFF746FF00BDF0EE400A3B
:104A0000F6EE001A60EEA11AB0EE611AB0EE600A7E
:104A100010EE100AA749A1EB600000EE100A21EE8B
:104A2000002AF7EE081A42EE401A61EE801AB0EE44
:104A3000610A21EE002AF7EE081A42EE401A61EEF2
:104A4000801AB0EE610A704700B5F0EE402AB0EE71
:104A5000620AFFF7D3FF20EE220A00BD10B52DED4C
:104A60000A8BB0EE409AF0EE609A9FED930B53ECF8
:104A7000102B51EC190B0BF0B9FD18D29FED900BD8
:104A800053EC102B51EC190B0BF08BFC41EC1B0B76
:104A90009FED8D0B53EC102B0BF0DCFB41EC1A0B54
:104AA00053EC192B0BF07DFC41EC180B17E09FED3C
:104AB000840B53EC102B51EC190B0BF072FC41ECF6
:104AC0001B0B9FED810B53EC102B0BF067FC41ECA3
:104AD0001A0B53EC192B0BF064FC41EC180B9FEDF7
:104AE000760B53EC102B51EC180B0BF07FFD20D202
:104AF0009FED770B53EC102B51EC180B0BF0AAFB2E
:104B000041EC1C0B9FED740B53EC102B0BF049FC8C
:104B100041EC1B0B9FED6E0B53EC102B0BF09AFB33
:104B200041EC1A0B53EC182B0BF03BFC41EC180B2F
:104B30001FE09FED670B53EC102B51EC180B0BF0A3
:104B40002AFC41EC1C0B9FED660B53EC102B0BF079
:104B500028FC41EC1B0B9FED5E0B53EC102B0BF074
:104B600079FB41EC1A0B53EC182B0BF01AFC41ECBF
:104B7000180BB0EE480AF0EE680ABDEC0A8B10BDC7
:104B800010B52DED068BB0EE408AF0EE608A012460
:104B90009FED550B53EC102B51EC180B0BF03EFD19
:104BA0000AD89FED510B53EC102B51EC180B0BF066
:104BB000F2FB41EC180BA41E20460BF0D3FC41EC99
:104BC000190BB0EE480AF0EE680AFFF747FFB0EEA7
:104BD00040AAF0EE60AA53EC192B51EC1A0B0BF023
:104BE000E0FB41EC100BBDEC068B10BD10B52DEDBC
:104BF000088BB0EE408AF0EE608A01249FED3C0BFA
:104C000053EC102B51EC180B0BF024FB41EC180B60
:104C10009FED350B53EC102B51EC180B0BF0FEFCF9
:104C20000AD8A41E9FED300B53EC102B51EC180B3F
:104C30000BF0B1FB41EC180B20460BF093FC41EC60
:104C40001A0BB0EE480AF0EE680AFFF799FFB0EED3
:104C500040BAF0EE60BA53EC1A2B51EC1B0B0BF080
:104C6000A0FB41EC190B0BF0F1FC00EE100ABDECBF
:104C7000088B10BDF0EE401AF4EEE01AF1EE10FAD7
:104C80003ADD31EEC10AB4EEE00AF1EE10FA3CD2A0
:104C9000B0EE600A39E00000000000008180803B37
:104CA00000008043500E0108DB0F4940DB0FC93F75
:104CB000DB0FC9BFDF59375F0000000000000000B4
:104CC000000000602FF0D93F00000060305FF43F2B
:104CD000000000000000F03F000000C0CCCCCCBFC2
:104CE000000000C0CCCCCC3FF1D4C853FB2109401C
:104CF000F1D4C853FB21F93F31EE810AB4EEE00A4A
:104D0000F1EE10FA01DDB0EE600A7047F0EE401AE5
:104D1000B1EE412A32EE202AB4EEE12AF1EE10FA89
:104D200009D231EE202AB4EEE12AF1EE10FA02DDCA
:104D3000B0EE600A01E0B0EE610A7047F0EE402A82
:104D4000B5EEC01AF1EE10FA02DDB0EE410A01E054
:104D5000B1EE410AB6EE003A22EE033A23EE213AD2
:104D6000B4EEC30AF1EE10FA06D29FEDD40A20EE9B
:104D7000800AF0EE400A4DE0B5EEC01AF1EE10FAEE
:104D800002DDB0EE410A01E0B1EE410A22EE213A25
:104D9000B4EEC30AF1EE10FA06D29FEDC90A20EE76
:104DA000800AF0EE400A35E0B5EEC01AF1EE10FAD6
:104DB00002DDB0EE410A01E0B1EE410AB4EEE10AD3
:104DC000F1EE10FA06D2B6EE000A20EE800AF0EEFE
:104DD000400A1FE0B5EEC01AF1EE10FA02DDB0EEA7
:104DE000410A01E0B1EE410AB0EE003A21EE833A09
:104DF000B4EEC30AF1EE10FA06D29FEDB20A20EE2D
:104E0000800AF0EE400A05E09FEDAF0A20EE800A2E
:104E1000F0EE400A9FEDAD0A20EE800A20EE223A25
:104E2000F7EE003A83EE830AB7EE003A30EE030A5B
:104E3000F7EE003A83EE803A90ED000A71EE403AC8
:104E400090ED000A03EE230A80ED000A90ED000ABF
:104E5000B1EE423A23EE213AB4EEC30AF1EE10FA73
:104E600004D8B1EE420A20EE210A0DE090ED000ACE
:104E700022EE213AB4EEC30AF1EE10FA02DD22EE80
:104E8000210A01E090ED000A80ED000A90ED000A91
:104E900031EE400A704710B52DED028BB0EE408A1E
:104EA000F0EE608A9FED8A0B53EC102B51EC180B3F
:104EB0000BF0B4FB0CD29FED880B53EC102B51EC94
:104EC000180B0BF068FA41EC100BBDEC028B10BD17
:104ED0009FED830B53EC102B51EC180B0BF086FB62
:104EE0000AD29FED7D0B53EC102B51EC180B0BF0FD
:104EF000B1F941EC100BE8E7B0EE480AF0EE680AB1
:104F0000E3E730B505460C46F0EE403AD5ED000A31
:104F100060EEA00A94ED001AD4ED001A41EE210AC9
:104F2000B0EE600AFFF790FDB0EE403AB5EEC03A41
:104F3000F1EE10FA02D81FEDA80A09E0B4EEE33A48
:104F4000F1EE10FA02DDB0EE630A01E0B0EE430AC2
:104F5000B0EE404AB5EEC03AF1EE10FA06D11FEDC0
:104F6000B20A83ED000A82ED000A0FE084EE030A24
:104F7000D5ED000A20EE200A82ED000A84EE030A35
:104F8000D4ED000A20EE200A83ED000A30BDF0EED9
:104F9000400A0B7802EB8303C3ED000A0B785B1C1D
:104FA0000B700B78834201DB00230B700B7802EB54
:104FB000830393ED000A704700B50246B0EE403A15
:104FC0000B46F7EE000A43EE430AB0EE600AFFF725
:104FD0003BFDD2ED000A20EE200AD2ED010A00EEE0
:104FE000C30A83ED000AF7EE000A43EE430AB0EE6F
:104FF000600AFFF729FDD2ED010A20EE200AD2ED6A
:10500000000A00EE830A83ED010A00BD90ED000A5C
:10501000D1ED010A20EE200AD0ED010A91ED001A2F
:1050200000EEC10A704790ED000AD1ED000A20EEB3
:10503000200AD0ED010A91ED011A00EE810A7047B5
:1050400090ED010AD1ED020A20EE200AD0ED020A0D
:1050500091ED011A00EEC10A82ED000A90ED020AFC
:10506000D1ED000A20EE200AD0ED000A91ED021ADF
:1050700000EEC10A82ED010A90ED000AD1ED010AAD
:1050800020EE200AD0ED010A91ED001A00EEC10ACF
:1050900082ED020A704790ED000AD1ED000A20EE81
:1050A000200AD0ED010A91ED011A00EE810AD0ED3F
:1050B000020A91ED021A00EE810A70479A99993F0F
:1050C000CDCC4C3FCDCC4C3ECDCCCC3DC3F5C84037
:1050D0000000000000806640000000000080764074
:1050E00000000000008066C008B5C648D0ED000A88
:1050F0009FEDC51AF4EEC10AF1EE10FA0BD2D0ED15
:10510000000AB7EE001A70EE810AC0ED000A012015
:10511000BE49887002E00020BC498870B948D0EDD3
:10512000010A9FEDB91AF4EEC10AF1EE10FA0BD2A2
:10513000D0ED010AB7EE001A70EE810AC0ED010A47
:1051400001208DF8000002E000208DF80000AD483D
:10515000D0ED020A9FEDAC1AF4EEC10AF1EE10FA9E
:105160000BD2D0ED020AB7EE001A70EE810AC0ED44
:10517000020A01208DF8010002E000208DF80100F4
:105180009DF8000030B19DF8010018B101209F4941
:10519000C87002E000209D49C87008BD30B50022EB
:1051A0000024C5788B1F9D4200D030BD002306E04F
:1051B000C55C1544EAB2A518ECB25D1CEBB28D1EBD
:1051C0009D42F5DC431813F8023C934204D1431886
:1051D00013F8013CA34200D0E7E78378512B38D184
:1051E00003795BB94379894D6B7183795BB2AB719C
:1051F000C3795BB2EB71037A2B7183E00379012BE6
:1052000012D14379814D2B72C3886B810389AB81A5
:10521000837A2B719FED7E0A7A4B83ED010A2B4630
:105220001B785B1C2B706DE00379022B6AD14379EC
:10523000764DAB73C3882B8203896B824389AB8223
:105240008389EB82C3892B83038A6B83837C2B71D5
:1052500058E08378342B0DD1D0F807306B4DEB61DB
:105260009FED6B0A674B83ED020A2B465B785B1C54
:105270006B7047E08378012B0DD18388634D2B86BB
:10528000C3886B860389AB864389EB8683892B872A
:10529000C3896B8736E08378042B33D1B0F90430AF
:1052A00000EE103AB8EEC00ADFED5A0A20EE200AEE
:1052B000564B83ED080AB0F9063000EE103AB8EE0E
:1052C000C00ADFED540A20EE200A504B83ED090A94
:1052D000B0F9083000EE103AB8EEC00ADFED4D0A22
:1052E00020EE200A494B83ED0A0AB0F90A3000EE9D
:1052F000103AB8EEC00ADFED470A20EE200A434B11
:1053000083ED0B0A00BF50E710B504464248007811
:1053100038B9AA2C05D101203F4908703F480470D4
:105320006FE03D480078012809D1612C01D0FF2CA5
:1053300005D10220384908703848447061E0364889
:105340000078022805D1032033490870334884705F
:1053500057E03148007803280CD1FA2C0ADA0420EF
:105360002D4908702D48C4702D48047000202D4927
:10537000087046E028480078042819D128480078A9
:10538000002815DD26480078401E2549087025486C
:10539000007824490978491C224A1170001D1F49D0
:1053A0000C541F48007840BB05201B49087028E0BA
:1053B0001948007805280DD10620174908701948AA
:1053C000007818490978491C164A1170001D1349C4
:1053D0000C5416E01048007806280FD100200E4922
:1053E000087010480078001D0C490C540D480078D6
:1053F000401DC1B20948FFF7D1FE02E00020064976
:10540000087010BD3C0F00200000FA43CC0E0020B5
:105410000000000017B7D1388C040020080F0020CE
:105420008A0400208B0400200146D548007800281B
:105430007ED00022D24B1A70D24A1288C832D14B89
:105440001A80D14A127DD14B5A76CF4AD37DCF4AAA
:105450009376CD4A9369CD4AC2F81B30CA4AD369C4
:10546000CA4AC2F81F30C84A526A0A2392FBF3F3B1
:10547000C64AC2F82330C44A126B0A2392FBF3F2E5
:1054800013B2C24AA2F82730BF4A526B0A2392FBDA
:10549000F3F213B2BD4AA2F82930BB4A926B0A2339
:1054A00092FBF3F213B2B94AA2F82B30B64AB2F823
:1054B0004C2000EE102AB8EE400ADFEDB50A20EECF
:1054C000200ABCEEC00A10EE100A08B9002204E05F
:1054D000C82801D9C82200E002461046AB4A82F82B
:1054E0002D00A94A526C00EE102AB8EE400ADFEDFA
:1054F000A80A20EE200ABCEEC00A10EE100A08B975
:10550000002204E0C82801D9C82200E00246104663
:105510009E4A82F82E009C4AD26A00EE102AB8EE0B
:10552000400ADFED9B0A20EE200ABCEEC00A00E034
:1055300012E010EE100A08B9002204E0C82801D9D0
:10554000C82200E002461046904A82F82F0001234C
:10555000904A82F8213100BF704710B50E218E4865
:1055600001F05CF910BD10B50E218C4801F056F920
:1055700010BD10B5642000F0B1FB4FF4165001F0DF
:10558000CAF8322000F0AAFB1C21854801F046F938
:10559000642000F0A3FB4FF4964001F0BCF83220E9
:1055A00000F09CFB1C217E4801F038F9642000F0DB
:1055B00095FB4FF4164001F0AEF8322000F08EFB60
:1055C0001C21774801F02AF9642000F087FB4FF492
:1055D000E13001F0A0F8142000F080FB0B217148AD
:1055E00001F01CF9142000F079FB0B216E4801F04A
:1055F00015F9142000F072FB0B216C4801F00EF934
:10560000142000F06BFB0B21694801F007F914200E
:1056100000F064FB0B21674801F000F9142000F052
:105620005DFB0B21644801F0F9F8142000F056FBF3
:10563000FFF793FF10BD10B50146002000225F4B1D
:105640001B782BB9B52903D101235C4C237095E05D
:105650005A4B1B78012B05D1622903D10223574CE9
:1056600023708BE0554B1B78022B05D10323534C41
:105670002370534B197081E0504B1B78032B05D1DD
:1056800004234E4C23704F4B197077E04B4B1B7823
:10569000042B05D10523494C23704B4B19706DE049
:1056A000464B1B78052B10D10623444C2370464BE8
:1056B0001B7803EB0123454C238023461B88622B78
:1056C0005CDB00233D4C237058E03C4B1B78062BE1
:1056D00054DB3A4B1B789B1F3C4C2488A41CA342F0
:1056E0000ADA364B1B789B1F274CE154334B1B784F
:1056F0005B1C324C237041E0314B1B780344D8B221
:105700001318DAB22F4B1B780344D8B21318DAB24D
:105710002E4B1B780344D8B21318DAB22B4B1B88DC
:1057200000EB1323D8B21318DAB2002307E0164CAB
:10573000E45C0444E0B21418E2B25C1CE3B2234C13
:105740002488A342F3DB104B204C24881B5D83424A
:1057500011D10D4C1D4B1B885B1CE35C93420AD19D
:10576000174B1B78012B06D1164B1B78072B02D148
:105770000123034C23700023104C237010BD000044
:105780008E04002090040020480F0020220E0020EC
:105790000AD7233C8806002092040020A0040020A1
:1057A000CA040020FB04002006050020110500208B
:1057B0001C0500202705002032050020430500209D
:1057C0003D0500203E0500203F050020400500204B
:1057D00030B503461C788C545D78541C0D559D786B
:1057E000941C0D55DD78D41C0D5530BD11B52DED33
:1057F000020B04460A2C00DC04B91EBD0B2C43D25C
:10580000DFE804F042060C12181E242A30363C0051
:105810000122CF496846FFF7DBFF35E00522CC497E
:105820006846FFF7D5FF2FE00922C9496846FFF710
:10583000CFFF29E00D22C6496846FFF7C9FF23E0E4
:105840001122C3496846FFF7C3FF1DE01522C04976
:105850006846FFF7BDFF17E01922BD496846FFF70C
:10586000B7FF11E01D22BA496846FFF7B1FF0BE010
:105870002122B7496846FFF7ABFF05E02522B4496E
:105880006846FFF7A5FF00BF00BF00BFB5E711B531
:105890002DED020B04460A2C00DC04B91EBD0B2CB6
:1058A00043D2DFE804F042060C12181E242A3036D8
:1058B0003C000322A7496846FFF78AFF35E007222C
:1058C000A4496846FFF784FF2FE00B22A1496846F0
:1058D000FFF77EFF29E00F229E496846FFF778FF19
:1058E00023E013229B496846FFF772FF1DE0172251
:1058F00098496846FFF76CFF17E01B2295496846F8
:10590000FFF766FF11E01F2292496846FFF760FF2C
:105910000BE023228F496846FFF75AFF05E0272254
:105920008C496846FFF754FF00BF00BF00BFB5E7D2
:1059300011B52DED020B04460A2C00DC04B91EBD86
:105940000B2C43D2DFE804F042060C12181E242A66
:1059500030363C0004227F496846FFF739FF35E0C6
:1059600008227C496846FFF733FF2FE00C22794973
:105970006846FFF72DFF29E0102276496846FFF7B9
:1059800027FF23E0142273496846FFF721FF1DE03B
:10599000182270496846FFF71BFF17E01C226D496B
:1059A0006846FFF715FF11E020226A496846FFF7B5
:1059B0000FFF0BE0242267496846FFF709FF05E067
:1059C000282264496846FFF703FF00BF00BF00BFFD
:1059D000B5E701460A2900DC09B9002070472420F8
:1059E0005B4A10700B293CD2DFE801F03B060B103C
:1059F000151A1F24292F35000520554A50710620FD
:105A0000ECE70920524A50720A20E7E70D20504A7D
:105A100050730E20E2E711204D4A50741220DDE74A
:105A200015204B4A50751620D8E71920484A507661
:105A30001A20D3E71D20464A50771E20CEE72120AA
:105A4000434A82F821002220C8E72520404A82F8F4
:105A500025002620C2E729203D4A82F829002A2075
:105A6000BCE70020BAE701460A2900DC09B900209A
:105A700070470B292FD2DFE801F02E060A0E12160E
:105A80001A1E22262A000920324A9070F0E70D20C3
:105A9000304A9070ECE711202E4A9070E8E715200C
:105AA0002C4A9070E4E719202A4A9070E0E71D2004
:105AB000284A9070DCE72120264A9070D8E72520FC
:105AC000244A9070D4E72920224A9070D0E72D20F4
:105AD000204A9070CCE70020CAE701460A2900DC82
