:020000040800F2
:10000000F81B00207D3E0008752C0008873E000884
:10001000772C0008792C00087B2C000800000000D9
:100020000000000000000000000000007D2C00081F
:100030007F2C000800000000933E0008432D0008BC
:10004000973E0008973E0008973E0008973E00083C
:10005000973E0008973E0008973E0008973E00082C
:10006000973E0008973E0008973E0008973E00081C
:10007000973E0008973E0008973E0008973E00080C
:10008000973E0008973E0008973E0008973E0008FC
:10009000973E0008973E0008973E0008812C000814
:1000A000973E0008973E0008973E0008973E0008DC
:1000B000973E0008992C00089D2C0008973E0008E8
:1000C000973E0008973E0008973E0008973E0008BC
:1000D000973E0008C12C0008C52C0008C92C000858
:1000E000973E0008973E0008973E0008973E00089C
:1000F000973E0008973E0008973E0008973E00088C
:10010000973E0008973E0008973E0008973E00087B
:10011000EF2C0008F32C0008973E00089F2C0008E5
:10012000973E0008973E0008973E0008973E00085B
:10013000973E0008973E0008973E0008973E00084B
:10014000973E0008973E0008973E0008973E00083B
:10015000973E0008973E0008973E0008F72C0008DD
:10016000973E0008973E0008973E0008973E00081B
:10017000973E0008973E0008973E0008973E00080B
:10018000973E0008973E0008DFF810D00BF01EFBEA
:100190000048004737020008AFF30080F81B00203A
:1001A00010B501F016FA01F02BF81F480168491C40
:1001B0000160BDE8104001F056BB704770471B4816
:1001C0000168491C016000F03DB8704770477047F6
:1001D00030B50020164B4FF47A74012500EB400136
:1001E00003EB81018A88B4FBF2F2CA8002B9CD80A8
:1001F000401CC0B20728F1D330BD70B500240C4DAF
:1002000002F0A7FD04EB440205EB82018B68CE8867
:10021000C31AB34203D3886055F822008047641C98
:10022000E4B2072CECD370BDF00000209002002057
:1002300008000020FEE701F05BFDFFF7C9FFFFF7B4
:10024000DCFFFCE72DE9F041574C0025574EB4F98F
:100250004400A0F2A560B0F5F97F05D8307820B948
:1002600000F059FE307000E03570B4F94400504C95
:10027000A0F22130B0F5C77F05D8707820B90120F1
:100280007070206000E075707078012802D02560E1
:10029000BDE8F0812068474E0A270A2855D006DCC1
:1002A0000628F5D2DFE800F0191C232E344F0D2864
:1002B0006AD006DC0B2851D00C28E9D1401C206004
:1002C000E6E70E2863D0A0F54070E738E0D101F0F2
:1002D00033FBBDE8F04100F01EBE37480560D7E7AC
:1002E000022000F0C9FD216808442060D0E701F039
:1002F00069F8002001F020FB00F08EFD2168084421
:100300002060C5E7BDE8F0414FF4FA6001F05FB846
:1003100001F029F829497820086029480560322031
:100320003060284890ED000B51EC100B0BF01DF9DC
:1003300025490860002001F0FFFABDE8F04141F2D4
:10034000883001F044B82760A2E7012001F0F4FAF8
:100350001E4805602068401C206099E71C48006822
:100360006E3814280CD81B4800680A30142807D8A7
:1003700019480560194805604FF47A7001F027F8B4
:100380002068401C206083E7401C206080E701203B
:1003900001F0D2FA376012480068142890DA40F26F
:1003A000E730206074E700006C0B00205C00002048
:1003B000F400002040020020EC0000207801002022
:1003C0007C010020B800002044020020F000002042
:1003D000980000209C000020DC000020E0000020AD
:1003E00094000020F848FF2200F8CC2C642120F86B
:1003F000CA1C012120F8C81C80F866201421A0F82E
:1004000068100021A0F86A10827101814181027692
:100410004183818382770184418480F86C20A0F835
:100420006E10A0F8701080F82624A0F82814A0F808
:100430002A1480F83224A0F83414A0F83614704737
:1004400003F093BCE1490870012048707047DF4910
:1004500081F84C05012081F84D05704770B40023E8
:100460000024C5788A1F954252D100228D1E06E0D5
:10047000865C3344DBB21C44E4B2521CD2B2AA42C2
:10048000F6DB014411F8022C9A4241D111F8011C0B
:10049000A1423DD10178AA293AD14178612901D000
:1004A000FF2935D18278202A21D00F2A32D0062A7E
:1004B0003AD0072A44D0032A4CD0052A54D0082A1F
:1004C0005CD0012A24D0C14DE02A05F20C615FD036
:1004D0000026002A65D0E12A76D0E22A18D10D46FE
:1004E000007928706B70AC7070BCFF20AAE7B84927
:1004F00082880A80C2884A8002898A804289CA80AA
:1005000082890A81C2894A81028A8A81408AC88195
:1005100070BC7047AF4902790A7042794A7082799B
:100520008A70C079C870F3E7AB4902794A704279A2
:10053000CA7082790A71C2794A71007A8871E7E7D4
:100540000021A64A43181B795354491CC9B20629F5
:10055000F8D3DDE70021A24A43181B795354491C04
:10056000C9B20729F8D3D3E700219E4A43181B7963
:100570005354491CC9B20929F8D3C9E700219A4A42
:1005800043181B795354491CC9B20829F8D3BFE753
:10059000007905F20C6528706B70AC7070BCAF20F0
:1005A00050E795F80F1602799142B1D195F81016DF
:1005B00042799142ACD195F8111680798142A7D148
:1005C00085F80066A4E7FFE70179407901EB002098
:1005D000A5F81406C5F8186670BC8449FF2036E7F4
:1005E000F0B4834E814BF1780833002901D1AA2859
:1005F00002D0012905D008E00121F1701870F0BC8B
:100600007047612807D0FF2805D0022907D00027AE
:10061000032908D00FE00221F1705870EFE70321A1
:10062000F1709870EBE7FA2805D20421F170D870C8
:100630007070B770E3E76E4A9278541CE4B20429F4
:100640000CD1757855B16D1EE9B271701A44B47051
:1006500010710029D3D10520F070D0E7052903D00F
:10066000062907D0F770CAE70621F170D118B470D7
:100670000871C4E7F77099180871521DD1B2317032
:10068000F0BC5A480830E9E67CB55A4C4F4D342846
:1006900072D011DCE8B30D2855D030285FD0332854
:1006A00009D100200B78265C5D1C0D70D654401CCF
:1006B000C0B20628F6D37CBD402869D0412877D047
:1006C000E02874D0E228F6D1B5F814060190087835
:1006D0009DF80440431C0B70145408789DF80540A5
:1006E000431C0B701454D5F81806009008789DF838
:1006F0000040431C0B70145408789DF80140431CC3
:100700000B70145408789DF80240431C0B7014546D
:1007100000E006E008789DF80340431C0B70145479
:100720007CBD05F20C6508782C78431C0B701454C2
:1007300008786C78431C0B7014540878AC78431C10
:100740000B7014547CBD00202B4D0B782E5C5C1C70
:100750000C70D654401CC0B20428F6D37CBD0020D7
:1007600023185E7E0B785D1C0D70D654401CC0B201
:100770001728F5D37CBDFFE7002023189E7C0B785B
:100780005D1C0D70D654401CC0B20728F5D3F1E7AC
:1007900000201A4D2B1893F83A600B785C1C0C70F3
:1007A000D654401CC0B21428F4D3E3E700E029E09B
:1007B0000020134D0B782E5C5C1C0C70D654401C32
:1007C000C0B20E28F6D3D5E7CE040020B403002033
:1007D000EE0A002038030020370B002077000020AD
:1007E00070000020FE0A00207D000020C8090020C3
:1007F0005E000020070B00206C0000206C0B002026
:10080000E00A0020087895F80146431C0B70145448
:1008100000202B1893F802660B785C1C0C70D654E1
:10082000401CC0B20A28F4D3A4E7F8B5064600225B
:10083000AA23494D012000902B7008786870AE7093
:1008400004200090EA702A4669463046FFF71CFFF4
:100850009DF80040201FE87000220023002106E0E0
:10086000685C1044C2B29818C3B2491CC9B2A14214
:10087000F6D3601CC0B22A55411CC9B200912B545A
:100880003548343090F8004634B1E02E04D100F2FF
:100890000F600670427083702F48FFF7D1FDF8BDDE
:1008A0002D4900EB4002343101EB42014B88002B13
:1008B00008D08A889A4202D2521C8A8002E0012221
:1008C0008A804A704A78002A02D000224A70ACE737
:1008D00070472149343181F84005012081F84105F4
:1008E00081F80006704710B51B4A002334321B49BB
:1008F00092F8000601281AD00B714B713020FFF7D7
:10090000CFFF3320FFF7CCFF3420FFF7C9FF402093
:10091000FFF7C6FF4120FFF7C3FFE020FFF7C0FF4E
:10092000E220FFF7BDFFBDE810400D20B8E70879D1
:10093000322802D2401C0871E0E70B714879401C54
:10094000C0B24871052803D2012082F84105D5E7DD
:100950004B7182F80036D1E7800300205E00002052
:100960002DE9F04F2DED028B85B0F04DF04E0024B7
:1009700095F83900EF4F4FF4AF7900280AD0EE48D0
:10098000C078002805D0387800287DD078780028F5
:100990007BD0E7E0B5F94200DFF8A0834FF0010A11
:1009A000B0F5966F05DA012000F066FAC8F800404D
:1009B0000DE0B0F5AF6F05DA022000F05DFAC8F87F
:1009C000004004E0022000F057FAC8F800A0D8F870
:1009D00000004FF4C77B01280ED1002040F2DC520A
:1009E00005EB4001B1F93A30A3F215535B4500D84D
:1009F0004A87401C0428F3DBB5F93A00A0F2DC502A
:100A000000EE100AB8EEC00ADFEDCD8AB0EE681A2B
:100A10009FEDCC8AF0EE480A01F0A8FC8DED010AAA
:100A2000B5F93C00B0EE681AA0F2DC5000EE100AF6
:100A3000F0EE480AB8EEC00A01F098FC8DED020A0B
:100A4000B5F93E00A0F2DC5000EE100AB8EEC00A84
:100A5000DFEDBD8AF0EE480AB0EE681A01F086FCC0
:100A60008DED030AB5F94000B0EE681AA0F2DC5033
:100A700000EE100AF0EE480AB8EEC00A01F076FC6B
:100A80008DED040AB14801E064E068E0007828B127
:100A90008DED018A8DED028A8DED048A9DED010AAE
:100AA000DFEDAB0A20EE200A9FEDAA1A20EE010A24
:100AB000BDEEC00A10EE100A30809DED020A20EE55
:100AC000200ADFEDA50A20EE200ABDEEC00A10EED6
:100AD000100A7080E88FA0F57A70B0809DED040A4E
:100AE000DFED9E0A20EE200ADFED9D0A20EE200AAF
:100AF000BDEEC00A10EE100AF080D8F80000012800
:100B00001ED1B5F94400A0F22130584510D83480E8
:100B10007480B48093480088F080934800883081C6
:100B2000924800884042708191480088B08107E077
:100B300034807480A6F80490F48034817481B48188
:100B40008C4880F887A13C707C7005B0BDEC028BAE
:100B5000BDE8F08F032000F08FF9387002E000F05C
:100B6000A8F9787034807480A6F80490F480B48179
:100B700074813481E9E76E490E310A8800EE102A4B
:100B8000F8EE400A9FED7C0AA1F11E0260EE800A99
:100B9000FDEEE00A10EE903A13804B8800EE903A9A
:100BA000F8EE600A60EE800AFDEEE00A10EE903A80
:100BB00053808B8800EE903AF8EE600A60EE800A6F
:100BC000FDEEE00A10EE903A9380CB8800EE903A6A
:100BD000F8EE600A60EE800AFDEEE00A10EE903A50
:100BE000D3800B8900EE903AF8EE600A60EE800A3E
:100BF000FDEEE00A10EE903A13814B8900EE903A38
:100C0000F8EE600A60EE800AFDEEE00A10EE903A1F
:100C100053818B8900EE903AF8EE600A60EE800A0C
:100C2000FDEEE00A10EE903A9381C98900EE901A29
:100C3000F8EE600A20EE800ABDEEC00A10EE101A2F
:100C4000D1813C498B78002B09D0A8B100204FF40A
:100C50007A7332F91010002904DC002105E001202C
:100C6000887011E0994200DD194622F81010401CEE
:100C7000C0B20828EDD307E00020002122F81010B0
:100C8000401CC0B20828F9D32948103802F01CBB18
:100C900010B502F01EF9274808304FF49661018024
:100CA00010BD70B52DED028B224D2D1D2888401CE6
:100CB00080B20A24B0FBF4F104FB11002880002864
:100CC0001CD19FED2E8AB0EE480A01F058F9B0EE23
:100CD000480AFFF745FEB0EE480A00F07AFAB0EE97
:100CE000480A01F03DFD6888401C80B2B0FBF4F179
:100CF00004FB1100688008B9FFF7CAFF03F0B2F8DF
:100D0000012001F061FE9FED1E8AB0EE480A00F05E
:100D100039F8B0EE480AFFF7E6FD0120FFF72BFF98
:100D2000BDEC028BBDE8704002F05DB96C0B002099
:100D3000E00A002064000020370B0020D8000020CB
:100D400000002042000000000000A0428C000020B3
:100D50008F360E3B00C05A4500C05AC5C6F91B3B32
:100D6000000048C3E8000020DC000020E000002074
:100D7000E4000020B4030020CDCCCC3D0AD7233CB6
:100D80006F12833A10B500F016F81E491E4A4878D3
:100D9000D37898420ED0D0701C48002282744FF451
:100DA0008772A0F81320C969C0F8151018490120EE
:100DB00081F8390110BD30B513498878FF2801D07A
:100DC000401C88700F4A0D78104B1078114CA842C7
:100DD0000BD00870107A30B1D07820B150891880CB
:100DE0009089588001E01C805C8050784A7890425D
:100DF00007D048709C80064A012082F83301002009
:100E0000887030BDC00B002085000020070B00203B
:100E1000B40300200080FFFF10B58A4801218170D3
:100E2000894890F80026002A01D0002010BD00F269
:100E30000160102202700022427081708349FF20FD
:100E4000FFF747FD012010BD10B57E4800218170DD
:100E50007D4890F80026002A01D0002010BD00F245
:100E60000160102202704170022181707749FF20D9
:100E7000FFF72FFD012010BD10B5754A1178814292
:100E800015D0714991F800360BB1002010BD6D4BA3
:100E90001870107001F2016101220A704A708A70A4
:100EA000C8706A49FF20FFF714FD012010BD012022
:100EB00010BD10B5644890F80016002901D000203C
:100EC00010BD00F201601021017000214170072166
:100ED00081705E49FF20FFF7FCFC012010BD01B5C9
:100EE000594890F80016002901D0002008BD00F2F2
:100EF00001601021017000214170052181709DF871
:100F00000010C1709DF8011001715049FF20FFF7DA
:100F1000E0FC012008BD10B54B4890F800160029F0
:100F200001D0002010BD00F20160102101700021ED
:100F30004170062181704549FF20FFF7CAFC01205E
:100F400010BD07B5404890F80016002901D00020D8
:100F50000EBD00F2016010210170022141700321D9
:100F600081709DF80010C1709DF8011001719DF80D
:100F7000041041719DF8051081719DF80810C17130
:100F80009DF8091001723149FF20FFF7A2FC0120F2
:100F90000EBD10B52C4890F80016002901D0002095
:100FA00010BD00F201600121017000214170032198
:100FB00081702649FF20FFF78CFC012010BD10B581
:100FC000214890F80016002901D0002010BD00F241
:100FD00001600121017000214170042181701B49D1
:100FE000FF20FFF776FC012010BD10B5164890F8E1
:100FF0000016002901D0002010BD00F2016001217F
:10100000017000214170052181701049FF20FFF718
:1010100060FC012010BD10B50B4890F800160029A7
:1010200001D0002010BD00F20160012101700021FB
:101030004170022181700549FF20FFF74AFC012021
:1010400010BD0000370B0020B4030020B5090020BC
:10105000890000202DE9F047654B66490124B3F96A
:1010600040200026A2F279558F1EC72D02D24C7067
:101070007C7000E04E70B3F93E30B3F5966F01DA44
:101080004D78E5B30E707978012936D15A4991F837
:1010900003C0DFED5A0A564940F26C7940F24C48E1
:1010A000B1F93A40B1F93C505249891EBCF1000FE8
:1010B000898827D0BCF1010F1FD14C4505DD45457E
:1010C00003DA434501DA424507DB4A4547DD45453A
:1010D00045DA434543DA444541DAB1F5967F39D2E2
:1010E00000EE101A90ED001AB8EE400A01EE200A48
:1010F000BCEEC00A10EE100AB880BDE8F087FFE72A
:101100000C70C0E74C4505DD454503DA434501DA7F
:10111000424507DB4A451BDD454519DA434517DAE9
:10112000444515DAB1F57A7F0DD200EE101A90ED34
:10113000001AB8EE400A01EE200ABCEEC00A10EE1A
:10114000100AB880D9E7FFF767FEBE807E70D4E74B
:10115000BE80D2E7FFF778FEBE807E70CDE7BE800E
:10116000CBE72DE9F0412448C07800281CD1204B62
:101170001F48204DB3F93C10AD1EB0F94040B3F903
:101180003E2040F24C4601272878B3F93A30B44269
:101190000CDAB1420ADAB24208DAB34206DA0028BF
:1011A00002D1FFF7F6FE2F70BDE8F08140F26C7CB3
:1011B00064450BDDB14209DAB24207DA634505DD69
:1011C0000028F1D1FFF7FBFE2F70EDE7002028701B
:1011D000EAE710B52DED020B054890F8390000281C
:1011E00004D16846FFF736FFFFF7BBFF1CBD0000C8
:1011F0006C0B00208C000020370B002000007A448C
:1012000070B52DED088B9FED5C8B9FED5D9B9FED89
:101210005EBB9FED5FAB604C604DB5F900000AF01E
:1012200093F953EC182B0AF020F9C4E90601B5F93B
:1012300002000AF089F953EC182B0AF016F9C4E9F8
:101240000801B5F904000AF07FF9C4E90C0194ED36
:101250000E0B53EC192B51EC100B0AF0BDF912D206
:1012600094ED0C0B53EC1B2B51EC100B0AF09CF97A
:1012700009D294ED100B53EC1A2B51EC100B09F022
:10128000DBFFC4E9100194ED0E0B53EC1B2B51EC6A
:10129000100B0AF089F912D294ED0C0B53EC192BB8
:1012A00051EC100B0AF098F909D294ED100B53ECA5
:1012B0001A2B51EC100B0AF060F8C4E9100153EC42
:1012C000182B94ED0C8B51EC180B0AF0CEF89FED17
:1012D000340B41EC190B53EC102B94ED100B51EC2B
:1012E000100B0AF050F853EC192B09F0A5FF41EC54
:1012F000100B84ED0A0B84ED0E8B2B4890ED001B38
:1013000051EC100B53EC112B0AF037F8274A03C2AB
:10131000274A4FF4C773B2F9140000F1C70199428C
:1013200002D8216908442061B2F9160000F1C70112
:10133000994202D8616908446061216940F2DF4046
:1013400091FBF0F1A1606169494291FBF0F0E0602E
:101350001848018821804088608017484068606094
:10136000BDEC088B70BD0C49002008614861134931
:1013700008601349086070470000000000005940F1
:10138000000000000094C140000000000094C1C0B3
:10139000000000000000F03F9000002070000020DE
:1013A000000000000080764048020020500200202B
:1013B000C00B002077000020FE0A002070010020F2
:1013C0007401002035480021016041607047334AB4
:1013D0001168814202DA14311160704700201060F8
:1013E0009068401C906070472C4941F288324968EF
:1013F00091FBF2F3DB0791FBF2F1294A114001293D
:1014000000D10020704770B506462DED048B41F2E7
:10141000883522499FED239B4C6894FBF5F1C90761
:1014200014D130460AF090F841EC180B94FBF5F01B
:1014300005FB10400AF088F853EC192B0AF015F858
:1014400053EC182B09F09FFF0AF08FF894FBF5F18D
:10145000134A114001291ED130460AF075F841ECBB
:10146000180B94FBF5F005FB10400AF06DF853ECF7
:10147000192B09F0FAFF9FED0D1B53EC112B09F00E
:101480007FFF53EC182B09F07EFFBDEC048BBDE809
:1014900070400AF06AB8BDEC048B70BDEC0000200F
:1014A00001000080000000000088B3400000000040
:1014B0000000F03F964A9169002901D1AA281CD06A
:1014C00001291FD0022921D0032923D0042925D0A6
:1014D0000023052926D093611078AA280CD15079D1
:1014E000DD2809D18B49507808608B4990780860D5
:1014F000D07890821079D082704701209061AA2024
:101500001070E9E7507002209061E5E790700320C9
:101510009061E1E7D07004209061DDE71071052053
:101520009061D9E750719361D6E730B5784AD169B7
:10153000002901D1AA281BD001291CD002291ED0C4
:10154000032921D0042924D0052926D00020D061E8
:10155000D07A162828D1147B5020C8214FF4A573C7
:10156000072C21D2DFE804F0201D2126292E32008D
:101570000120D061ECE7D0720220D061E8E7674932
:1015800008600320D061E3E7654908600420D0616A
:10159000DEE790820520D061DAE7D0820620D061B4
:1015A000D6E73C219182D08230BDDC2090826E2033
:1015B000D08230BD9382D08230BD90824FF4827051
:1015C000D08230BDE6209082D18230BD9382D1821C
:1015D00030BD1CB553A003C8CDE900014E480078CA
:1015E0008DF80100514801680A2091FBF0F18DF857
:1015F00002104F49096891FBF0F08DF803000521B6
:10160000684602F045F81CBD08B54AA1096800917A
:101610008DF800000221684602F012F908BD2DE99C
:10162000F0412DED048B0022394C216A002901D1B3
:101630000A2854D0012955D0022957D0032959D05E
:1016400004295BD005295DD02262A079E0810928B8
:101650005BD03A4A3849126801EB8201096D884231
:1016600039D1207A00020FFA80F8E07948EA0008C0
:10167000A4F81080A07A000205B2607A0543658262
:10168000012928D12E48006809F05EFF064641EC8A
:10169000180B0F46C8F1000009F056FF9FED299B7B
:1016A00053EC192B09F0E1FE53EC182B09F06BFEFB
:1016B00009F05BFF208247EC186B284609F044FFD5
:1016C00053EC192B09F0D1FE53EC182B09F05BFEFB
:1016D00009F04BFF6082BDEC048BBDE8F081012076
:1016E0002062B2E7A07102202062AEE7E071032021
:1016F0002062AAE7207204202062A6E7607205201B
:101700002062A2E7A07222629FE722826282E2E761
:10171000F8000020000000200400002098000020B5
:101720009C0000200A0000000D0000007402002050
:1017300078020020000A0000A001002058020020CA
:10174000940000200000000000006E40884201DD8F
:101750000846704749428842FBDA0846704700B5A0
:10176000644A401A00EB400010601E21FFF7EEFFB4
:10177000106000BD2DE9F04790462DED048BB0EED2
:10178000409AF0EE609AB0EE418AF0EE618A441A17
:10179000204609F0D9FE53EC192B09F0F4FD09F0AD
:1017A000E4FE0646544D6F68E01B09F0CDFE53EC95
:1017B000182B09F0E8FD09F0D8FE8146A74200D0B9
:1017C0006C60286804442C6095ED0A0B51EC100BFA
:1017D00009F0CBFE01462046FFF7B8FF30444844ED
:1017E0004146FFF7B3FF45490860BDEC048BBDE8F7
:1017F000F0872DE9F04115462DED028BB0EE408AC1
:10180000F0EE608A441A204609F09EFE53EC182B35
:1018100009F0B9FD09F0A9FE06463748C768A74296
:1018200000D0C46081682144816090ED120B51ECBE
:10183000100B09F09AFE01462846FFF787FF304655
:101840002946FFF783FF2E490860BDEC028BBDE8F7
:10185000F08100B52B4A401A800010607821FFF714
:1018600075FF106000BD10B52449002008602449B0
:101870000860204908602349086023480068002860
:1018800005D02248016822480068FFF768FF214818
:10189000194C006860B120481E2294ED062B0168A7
:1018A0001E4894ED081B94ED040B0068FFF762FFDF
:1018B0001B48006860B11B481E2294ED0E2B016886
:1018C000194894ED101B94ED0C0B0068FFF791FF85
:1018D0001648006800280CD0154890ED000B51EC1C
:1018E000100B09F042FE014612480068BDE81040A6
:1018F000AFE710BDE400002020010020DC00002044
:10190000E0000020E800002080010020940000207A
:10191000400200208801002098000020780100206B
:101920008C0100209C0000207C010020840100200C
:101930005002002044020020354A00219160D1600D
:10194000116151619161D1611162516201210528DA
:1019500005D2DFE800F00305090D11009160704722
:1019600091601161516170479160116151617047DF
:1019700091609161D16170479160116251627047CD
:10198000F0B52349283151F82040002305270421D0
:101990000326022501221E480D2C2DD2DFE804F07B
:1019A00007090C0F1215181B1E2124272A0043605B
:1019B00022E0416003601FE0426001601CE0426081
:1019C000026019E04560026016E04560016013E0C6
:1019D0004660016010E0466002600DE04160026018
:1019E0000AE04160016007E04760016004E0476091
:1019F000036001E043600360016801EB81010901BC
:101A00000160416801EB810109014160F0BD000006
:101A10007801002030B5034600208C240DE013F837
:101A2000012B50400022C50702D084EA500000E09C
:101A30004008521CD2B2082AF5D3491E89B2EED210
:101A400030BD2DE9F0412DED048B954808F0DCFF09
:101A5000C0B2944C944E00252179112909D0A17867
:101A60000122A1B1012916D0022923D0032903D1D3
:101A700039E0AA2801D0E070C2E0E0785528FBD117
:101A800025713070AA207070A5706570B8E0B070D4
:101A90006081A270B4E0B4F906107218D070491CCD
:101AA00008B2E080B4F90A108842E5DBE580022044
:101AB000A070A5E0B4F90A107218D070C91C89B2E0
:101AC0007948FFF7A7FF6070B4F90A103144C9786C
:101AD000814204D00020BDEC048BBDE8F081A078E9
:101AE000401CA0708CE0B4F9080010B1012802D0AD
:101AF00086E0228184E025816A4A1232971CB4F97B
:101B000008003118CB78135449793954401C00B27D
:101B100020810228F3DBB2F9000009F015FD9FEDEA
:101B2000638B53EC182B09F0A0FC09F01EFD8046D6
:101B3000A062B7F9000009F007FD53EC182B09F07B
:101B400094FC09F012FD0146E062F67926705948CE
:101B5000B0F9000000EB0807A7615748B0F9000092
:101B600000EB0108C4F81C802A2E32D1606B0A28D1
:101B70002FDC5248B0F9000009F0E6FC9FED509BC5
:101B800053EC192B09F0FFFB41EC180B384609F018
:101B9000DBFC53EC182B09F04FFB09F0E6FC074681
:101BA000A0614948B0F9000009F0CEFC53EC192BB4
:101BB00009F0E9FB41EC180B404609F0C5FC53EC79
:101BC000182B09F039FB09F0D0FC0146E0612762CF
:101BD00061622A2E0CD13D48A1690068401A3C4937
:101BE00008603C48E1690068401A3B490860656349
:101BF000A570E5701120207165706581E5802581F3
:101C0000002068E770B5264B264D1E1D07E01C8896
:101C10002406FCD510F8014B3480521C2A632A6B31
:101C20008A42F4DB0020286370BDFFB500240094D5
:101C30000194029403941B4C0C342080A51C298031
:101C4000261D3280002025496A460F5C1754401C2F
:101C50000228FADB072707208DF802000020111860
:101C600014F800C081F803C015F800C081F805C061
:101C700016F800C081F807C0401C0228EFDBD41919
:101C8000A370FF1CB9B26846FFF7C4FEE0700D20D8
:101C900020710A2060710D216846FFF7B3FFFFBD78
:101CA000004800405C020020420B002000000000C1
:101CB000000024401C0100201E0100209000002094
:101CC0009A9999999999C93F92000020980000200B
:101CD000700100209C0000207401002064B80008FE
:101CE00010B501F033FBD04801210170417010BDE7
:101CF00010B501F064F8642001F055F801F01EF908
:101D000001F096F9642001F04EF84FF4E1342046DA
:101D100001F049FC204601F021FD204601F0FDFDC7
:101D2000C24C204601F0E9FE204601F0B5FF6420D8
:101D300001F039F8FFF7D4FF01F080F8642001F0DA
:101D400032F8FEF74FFB4FF4487001F02CF801F029
:101D50001AFC012010BD30B5B54BB34A40F6C4148F
:101D6000383A1978A04201D903290DD80A290BD095
:101D7000A0F22D1440F68B25AC4204D202EB4102B6
:101D80005080491C197030BD0020187032F84E0F79
:101D9000401C10800120907030BDF8B50546A5A00C
:101DA00000680090A24C08346068206000F0D4FF06
:101DB000606021680023401A40F6C411083C884244
:101DC00000D963706178481CC2B29748627052387B
:101DD0004554192A7ED11821617001780F297AD1D2
:101DE000017E21B1A5781DF80520914273D1637061
:101DF0008278417802F0070341EA03238A4938399F
:101E00008B82C3789D066D0D45EAD202CA82427963
:101E10000679D5076D0D45EA860545EA93130B83D0
:101E200083791D076D0D45EA52024A83C279550632
:101E30006D0D45EA13138B83437A067A9D076D0D6A
:101E400045EA460545EAD212CA83827AD5066D0D67
:101E500045EA93030B84C37ADB0043EA52124A84B7
:101E6000427B037B02F0070543EA05238B84837BD7
:101E70009D066D0D45EAD202CA84027CC67BD50759
:101E80006D0D45EA860545EA93130B85437C1D07D6
:101E90006D0D45EA52024A85827C55066D0D45EA74
:101EA00013138B85037DC67C9D076D0D45EA4605A2
:101EB00045EAD212CA85427DD5066D0D45EA9303E7
:101EC0000B86837DDB0043EA52124A86C07D81F88F
:101ED000340001E00DE00DE0000705D431F84E0FAD
:101EE000401C088002208870A078401C00F003008D
:101EF000A070F8BD0021421852784254491CC9B262
:101F00001829F8D3F8BD70B54949D0ED000AC88842
:101F100000EE100AB8EE400A9FED471A00EE810A63
:101F2000BCEEC00A10EE100A80B2C880B0F57A7F0D
:101F300024D90025CD803C4C383CB4F84E00E086D6
:101F4000052803D2012084F8380001E084F83850D5
:101F500094F8380068B1207870B9C878401C00F057
:101F60000100C87010B101F064FA05E001F0EEF96B
:101F700002E094F850002070A4F84E5070BD70B587
:101F80002DED020B6846FFF7BEFF274A0126383ABF
:101F9000274C92F83800002560B12671002002EB32
:101FA00040014D87401CC0B20A28F8D3207982F83E
:101FB00039007CBD1078012802D002280AD025E023
:101FC000002002EB40014B884B87401CC0B20A281E
:101FD000F7D31BE00020DFED190ADFED191A02EB41
:101FE0004001B1F91430A3F5806300EE103AB8EE69
:101FF000C01AB0EE610A01EE200ABDEEC00A10EE72
:10200000103A4B87401CC0B20A28E8D3B2F942000C
:10201000A0F2B141C72903D3A0F24160C72801D281
:102020002671C3E72571C1E7A40B002020A107009A
:10203000940200200414243400007A442FDD243F4D
:102040000080BB44B5EEC00AF1EE10FA01DAB1EE41
:10205000400A704700B5B0EE402AB5EEC02AF1EE56
:1020600010FA07D1F5EEC00AF1EE10FA02D19FED99
:10207000FE0A00BDB0EE420AFFF7E4FFB0EE401AE0
:10208000B0EE600AFFF7DEFFF0EE401AB4EEE11AA0
:10209000F1EE10FA02D281EE210A01E081EE810A0E
:1020A000F24910EE100A88421DDB9FEDF13AF6EE80
:1020B000002A50EE032ABDEEE20A10EE100A00EEEE
:1020C000100AB8EEC00A72EEC02AEA4901EB80029B
:1020D00092ED000A401C01EB800090ED003A33EED7
:1020E000403A03EE220AF4EEC11AF1EE10FA19DDBD
:1020F000F5EEC00AF1EE10FA07DBB5EEC02AF1EEFC
:1021000010FAB6DAB1EE400A00BDDFEDDB0AB5EE3B
:10211000C02AF1EE10FA02DB30EEC00A00BD30EE4C
:10212000600A00BDB5EEC02AF1EE10FA0CDB9FED9F
:10213000D31AF5EEC00AF1EE10FA02DB31EE400AD6
:1021400000BD31EE000A00BD9FEDCD1AF5EEC00ACC
:10215000F1EE10FA02DB31EE000A00BD31EE400A6A
:1021600000BDB0EE401AB0EE600AF0EE410A71E731
:10217000F6EE000A60EE200A10EE100AC149A1EB4B
:10218000600000EE100AB7EE081A20EE802AF0EE8A
:10219000411A42EE401A21EE800A60EE800A00EEFB
:1021A000C01A21EE000A704700B5F0EE402AB0EEEA
:1021B000620AFFF7DDFF20EE220A00BD70B52DEDAB
:1021C000088BB0EE408AF0EE608A9FEDAF0B51ECC9
:1021D000180B53EC102B09F0D6F80C4605469FED72
:1021E000ACBB9FEDAD9B9FEDAEAB51EC180B53EC30
:1021F0001A2B09F0D9F90ED244EC105B53EC1B2BCF
:1022000051EC100B09F018F853EC182B09F0BBF83F
:1022100041EC180B0DE044EC105B53EC1B2B51EC24
:10222000100B09F0ADF853EC182B09F0ACF841ECA9
:10223000180B53EC1A2B51EC180B09F0B5F918D206
:1022400053EC192B51EC180B08F0F6FF9FED961B81
:1022500053EC112B09F097F853EC192B08F0ECFF15
:1022600053EC182B09F08FF841EC100BBDEC088BE8
:1022700070BD53EC192B51EC180B09F07EF89FED53
:102280008C1B53EC112B09F07EF853EC192B08F042
:10229000D3FF53EC182B09F076F841EC100BE5E76F
:1022A00010B52DED048BB0EE408AF0EE608A9FED04
:1022B000829B012453EC192B51EC180B09F08CF97B
:1022C00008D853EC192B51EC180B09F056F841ECD7
:1022D000180BA41E204609F037F941EC190BB0EE9B
:1022E000480AF0EE680AFFF769FF53EC192B51EC2E
:1022F000100B09F048F841EC100BBDEC048B10BD3D
:1023000010B52DED048B9FED6C9B01249FED6C1B94
:1023100051EC100B53EC112B08F08EFF41EC180B15
:1023200053EC192B51EC180B09F056F908D8A41EE0
:1023300053EC192B51EC180B09F01FF841EC180B5A
:10234000204609F001F941EC190BB0EE480AF0EE15
:10235000680AFFF7A5FF53EC192B51EC100B09F09D
:1023600012F809F051F900EE100AC6E7B4EEE00ADF
:10237000F1EE10FA09DD30EE410AB4EEE00AF1EEBA
:1023800010FA01D2B0EE600A704730EE010AB4EEE6
:10239000E00AF1EE10FAF7DDB0EE600A704770EE79
:1023A000C11AF4EEC01AF1EE10FA08D231EE201A7A
:1023B000B4EEC01AF1EE10FA01DDB0EE600A70471B
:1023C000B5EEC01AF1EE412AF1EE10FA02DDF0EEA0
:1023D000413A01E0F0EE623AB6EE004A22EE043AEB
:1023E00063EE214A22EE213AF4EEE43AF1EE10FADD
:1023F00004D2DFED352A60EEA20A73E0B5EEC01A12
:10240000F1EE10FA02DDF0EE413A01E0F0EE623A50
:10241000F4EEC33AF1EE10FA04D2DFED2C2A60EEAE
:10242000A20A5FE0B5EEC01AF1EE10FA02DDF0EE9E
:10243000413A01E0F0EE623AF4EEE13AF1EE10FAE0
:1024400002D260EE840A4DE0B5EEC01AF1EE10FA49
:1024500001DDF0EE412AF0EE003A61EEA33AF4EE2F
:10246000E32AF1EE10FA33E0000000008180803BA7
:102470000000804368B80008DB0F4940DB0FC93F0C
:10248000DB0FC9BFDF59375F000000602FF0D93F75
:1024900000000060305FF43F000000000000F03FEB
:1024A0000000000000000000000000C0CCCCCCBF49
:1024B000000000C0CCCCCC3FF1D4C853FB21094074
:1024C000F1D4C853FB21F93F9A99993FCDCC4C3FA9
:1024D00004D2DFED9A2A60EEA20A03E0DFED982A2B
:1024E00060EEA20ADFED972A60EEA20A60EE802A73
:1024F000B7EE000AC0EE220A70EE802AC0EE220A71
:1025000090ED000A71EE402A00EEA20A80ED000A6A
:10251000F1EE420A60EEA10AB4EEE00AF1EE10FA22
:1025200002D8B0EE603A06E0B4EEC30AF1EE10FA5B
:1025300001DCB0EE403A80ED003A31EE430A7047DC
:1025400010B52DED048BB0EE408AF0EE608A9FED61
:102550007E9B9FED7F0B51EC180B53EC102B09F079
:102560003BF808D253EC192B51EC180B08F005FF7F
:1025700041EC100BC1E69FED780B51EC180B53ECBE
:10258000102B09F011F808D253EC192B51EC180B51
:1025900008F052FE41EC100BAFE6B0EE480AF0EE48
:1025A000680AAAE630B504460D46B0EE403A94ED0E
:1025B000000A60EE000A95ED000A40EE000AB0EE57
:1025C000600AFFF7F1FD5FED580AB5EEC00AF1EEC3
:1025D00010FA02D8B0EE603A06E0B4EEC30AF1EEAB
:1025E00010FA01DCB0EE403AB5EEC00AF1EE10FA96
:1025F00004D1C3ED000AC2ED000A30BDC3EE000AEB
:1026000094ED000A20EE800A82ED000A95ED000AA2
:1026100020EE800A83ED000A30BD0B7802EB8303C5
:1026200083ED000A0B785B1CDBB20B70834201D395
:1026300000200870087802EB800090ED000A7047D7
:1026400000B50246B0EE403A0B46B7EE000A03EE84
:10265000430AF0EE403AFFF7A7FDD2ED000A20EE64
:10266000200AD2ED010A00EEC30A83ED000AB0EEA3
:10267000630AFFF799FDD2ED010A20EE200AD2EDA0
:10268000000A00EE830A83ED010A00BD90ED000A06
:10269000D1ED010A91ED001A20EE200AD0ED010AD9
:1026A00000EEC10A704790ED000AD1ED000A91EDED
:1026B000011A20EE200AD0ED010A00EE810A7047CF
:1026C00090ED010AD1ED020A91ED011A20EE200AE7
:1026D000D0ED020A00EEC10A82ED000A90ED020A76
:1026E000D1ED000A91ED021A20EE200AD0ED000A89
:1026F00000EEC10A82ED010A90ED000AD1ED010A57
:1027000091ED001A20EE200AD0ED010A00EEC10A78
:1027100082ED020A704790ED000AD1ED000A91EDBA
:10272000011A20EE200AD0ED010A00EE810AD0ED58
:10273000020A91ED021A00EE810A7047CDCC4C3EA0
:10274000CDCCCC3DC3F5C8400000000000807640F1
:10275000000000000080664000000000008066C0AD
:1027600038B5944B944C012193ED000A002210EEF1
:10277000105AA3F17000F7EE000AA54205DA30EE18
:10278000200A83ED000A817000E0827093ED010A57
:1027900010EE105AA54206DA30EE200A83ED010A47
:1027A0008DF8001001E08DF8002093ED020A10EE84
:1027B000105AA54206DA30EE200A83ED020A8DF89F
:1027C000011001E08DF801209DF8003023B19DF843
:1027D00001300BB1C17038BDC27038BD70B5002377
:1027E0000024C5788A1F95424CD100228D1E06E038
:1027F000865C3344DBB21C44E4B2521CD2B2AA421F
:10280000F6DB014411F8022C9A423BD111F8011C6D
:10281000A14237D16749827870399FED680A654BCC
:10282000512A30D0342A5CD0012A63D0042A29D11D
:10283000B0F9042000EE102AF8EEC00A9FED600AFD
:1028400060EE800AC1ED080AB0F9062000EE902A79
:10285000F8EEE00A60EE800AC1ED090AB0F908203E
:1028600000EE902AF8EEE00A60EE800AC1ED0A0A56
:10287000B0F90A0000EE900AF8EEE00A20EE800AB5
:1028800081ED0B0A70BD0279A2B1012A1BD0022A88
:10289000F8D142798A73C2880A8202894A824289BF
:1028A0008A828289CA82C2890A83028A4A83807C98
:1028B000087170BD42794A7182798A71C279CA7190
:1028C000007A087170BD42790A72C2884A81028911
:1028D0008A81807A087183ED010A0878401C0870AB
:1028E00070BDD0F80700C86183ED020A4878401C2B
:1028F000487070BD82880A86C2884A8602898A86A4
:102900004289CA8682890A87C089488770BDF0B427
:102910002C4E284BB178343B002901D1AA2802D093
:10292000012905D008E00121B1701870F0BC704792
:10293000612807D0FF2805D0022907D000270329E6
:1029400008D00FE00221B1705870EFE70321B17099
:102950009870EBE7FA2805D20421B170D870307076
:102960007770E3E7174A5278541CE4B204290CD17B
:10297000357855B16D1EE9B231701A44747010711A
:102980000029D3D10520B070D0E7052903D006294E
:1029900007D0B770CAE70621B170D11874700871FA
:1029A000C4E7B77099180871F0BC521D0148D1B244
:1029B000343813E7300C00200000FA430000000018
:1029C00017B7D138A4020020A548417800295CD06F
:1029D00000214170C188C831C180A248A249027D4E
:1029E00001F8022CC27D01F8012C82690A60C269DB
:1029F0004A60436A0A2293FBF2F38B60036B93FBFA
:102A0000F2F38B81436B93FBF2F3CB81836B93FBEC
:102A1000F2F20A821B39B0F84C2000EE102AF8EED0
:102A2000400A9FED920A60EE800AFCEEE00A10EE8A
:102A3000902A5AB3C82A00D9C82281F82D20426CA6
:102A400000EE902AF8EE600A60EE800AFCEEE00AE2
:102A500010EE902AE2B1C82A00D9C82281F82E20AF
:102A6000C06A00EE900AF8EE600A20EE800ABCEE22
:102A7000C00A10EE100A68B1C82800D9C82081F831
:102A80002F007B49012081F8210170470022D4E703
:102A90000022E3E70020F2E771480E210A3000F03F
:102AA000F7BD6F480E21183000F0F2BD10B564205C
:102AB00000F079F94FF4165000F075FD322000F067
:102AC00072F967481C21263000F0E2FD642000F016
:102AD0006AF94FF4964000F066FD322000F063F989
:102AE0005F481C21263000F0D3FD642000F05BF924
:102AF0004FF4164000F057FD322000F054F95848CA
:102B00001C21263000F0C4FD642000F04CF94FF485
:102B1000E13000F048FD142000F045F950480B2149
:102B2000423000F0B5FD142000F03DF94C480B2177
:102B30004D3000F0ADFD142000F035F948480B2170
:102B4000583000F0A5FD142000F02DF944480B2169
:102B5000633000F09DFD142000F025F940480B2162
:102B60006E3000F095FD142000F01DF93C480B215B
:102B7000793000F08DFD142000F015F9BDE810400B
:102B80008AE72DE9F043364F01253978002901D134
:102B9000B52802D0012903D004E03D70BDE8F083E0
:102BA000622817D0022918D003291AD004291CD072
:102BB000002605291DD00629F0D33A89A1F1060C7B
:102BC000931C284C9C451FDA621802F8060C491C1D
:102BD0003970E3E702203870E0E703213970B870FC
:102BE000DCE704213970F870D8E7052139703871B5
:102BF000D4E706213970397901EB002080B23881A1
:102C00006228CBD33E70C9E797F802C097F80380DB
:102C10000CEB08000CEB000110440B1800EB122029
:102C2000C1B25818C3B2002007E014F8009049441C
:102C3000C9B20B44DBB2401CC0B29042F5D3A05CD9
:102C400088420AD1A0184078984206D1BCF1010F01
:102C500003D1B8F1070F00D17D703E709EE70000F0
:102C6000A80200203C0C0020220B00200AD7233CA5
:102C7000B40300207047FEE7FEE7FEE770477047A9
:102C800010B5802003F073FB002804D0BDE810408D
:102C9000802003F0BDBB10BD00F0ACBB704710B589
:102CA000164C0121204606F057FF002807D00121CD
:102CB000204606F0A2FFBDE81040FDF7F2BF10BDB0
:102CC00000F020BD00F0F8BD70B50D4D40F2255468
:102CD0002146284608F0D6F9002807D02146284684
:102CE00008F054FABDE87040FEF7ABBE70BD00F0CE
:102CF000A2BF01F074B800F0ECBB0000001400406B
:102D0000004800401FB5684604F0CAF901984FF426
:102D10007A71B0FBF1F0C008B0F1807F0CD220F0E6
:102D20007F414FF0E020491E4161294AF021117096
:102D300000218161072101616FF0040001F015FAA3
:102D40001FBD2448D0E90012491C42F1000206C010
:102D50007047204800687047F0B51E4800254FF0C6
:102D6000E02306C801EB4100C0EBC11458699E691D
:102D7000801B4FF47A7670435E69B0FBF6F000EB8F
:102D8000C40081EA010685EA02073E43EED1F0BDA8
:102D900030B50546FFF7E0FF0446FFF7DDFF001BF7
:102DA000A842FAD330BD30B504464FF47A7502E03C
:102DB0002846FFF7EDFF641E601CF9D130BD10B549
:102DC0004FF4806001F034F9BDE810409AE700004C
:102DD00023ED00E03003002010B590B001A802F010
:102DE000A9FA0121880504F04CFA4B4C204602F068
:102DF000B9FD0028FAD10190484902914849039150
:102E000004903221059106904FF4806107914900AA
:102E100008918900099109010B9149120A910C90BE
:102E200001210D910E900F9001A9204602F065F945
:102E30000121204602F09EFA10B010BD10B58CB0F2
:102E4000684601F064FA0121042004F01AFA012115
:102E5000080204F091FAFFF7BFFF03208DF82C0061
:102E600020200A9000248DF82F400AA92D4803F055
:102E70007AFB089406944FF480300790099406A8D2
:102E800001F04FFA00948DF8044001208DF8050000
:102E9000029404948DF81400204C69464C3C204662
:102EA00001F092F9072301220F21204601F0CAFB0D
:102EB0000121204601F04CFD0121204601F0BBFA22
:102EC0000121204601F020FD204601F04EFC0CB00F
:102ED00010BD9FED150A00201149DFED140A31F8ED
:102EE000102001EE102AB8EE411A01EE200A401C13
:102EF000C0B23228F3D3DFED0E0A20EE200ADFED58
:102F00000D0A20EE200AF2EE060A20EE200ADFED7E
:102F10000A0A20EE200A7047106402404C2001404B
:102F2000A00C002000080240000000000AD7A33CCB
:102F30000000803900404E456F12833A7CB56846E8
:102F400003F0A2FB0121102004F09BF901248DF86D
:102F500004408DF8074000208DF8060002258DF80A
:102F6000055007200090304E6946304603F0FBFACA
:102F70008DF804408DF806408DF8055080210091B1
:102F80006946304603F0EFFA0221304603F0F5FCC3
:102F90000121304603F0F1FC0421304603F0EDFC42
:102FA0008021304603F0E9FC7CBD1F49C3074FF088
:102FB000020201D00A8300E04A8383074FF0010236
:102FC00001D50A8300E04A8343074FF0040201D58C
:102FD0000A8300E04A8302074FF0800001D548834E
:102FE000704708837047F0B40021104E0125002778
:102FF000331D745633F81120A24204DA05FA01F4A5
:103000000443A0B202E005FA01F4A043521C92B2BC
:1030100023F81120142A01D323F81170491CC9B2D6
:103020000429E6D3F0BCC0E70010024038030020BA
:103030002DE9F04F8BB0BD4E01A803F025FB08A889
:1030400004F004FD03A805F0A1FA0121082004F012
:1030500074F90121022004F08FF90121084604F0DF
:103060008BF90121152004F00CF90C2001904FF090
:1030700002088DF808804FF003098DF809900024AC
:103080008DF80A4001278DF80B70A94D01A928463B
:1030900003F069FA02221146284603F043FD02229A
:1030A0000321284603F03EFDDFF888A2DAF800008D
:1030B0004008B0FBF6F0401E42F2107BCDF824B081
:1030C000ADF82000ADF82840ADF8224008A99A4894
:1030D00004F040FC6020ADF80C00ADF81840ADF8ED
:1030E0000E704FF47A65059503A9934805F016F91B
:1030F0000821914805F097FCADF80E70059503A9DD
:103100008D4805F0CCF908218B4805F0B4FC01216D
:10311000894804F085FE0121874804F065FF4FF4DB
:10312000D44001908DF808808DF809908DF80A4000
:103130008DF80B7001A9814803F015FA01220921CD
:103140007E4803F0EFFC01220B217C4803F0EAFCEF
:1031500001220D21794803F0E5FC01220E21774878
:1031600003F0E0FCDAF80000B0FBF6F0401ECDF80A
:1031700024B0ADF82000ADF82840ADF822408DF81D
:103180002A4008A96E4804F0E5FB6020ADF80C0069
:10319000ADF81040ADF818400820ADF81A00400115
:1031A000ADF81C00ADF81E40ADF80E70059503A9F2
:1031B000634804F05EFF0821614805F0C8FB0595EF
:1031C00003A95F4804F0FEFF08215D4805F0F9FB04
:1031D000059503A95A4805F0A1F80821584805F0BB
:1031E00022FC059503A9564805F059F908215448D1
:1031F00005F041FC0121524806F018FB012150481E
:1032000004F00EFE01214E4804F0EEFE4FF4407033
:1032100001908DF808808DF809908DF80A408DF89E
:103220000B70484F01A9384603F09DF9032208218D
:10323000384603F077FC03220921384603F072FC7C
:10324000DAF80000B0FBF6F0401ECDF824B0ADF87F
:103250002000ADF82840ADF822408DF82A403A4EC3
:1032600008A9304604F076FB6021ADF80C10ADF8EB
:103270001040ADF818400821ADF81A104901ADF81A
:103280001C10ADF81E40059503A9304605F046F820
:1032900008212B4805F0C7FB059503A9304605F02A
:1032A000FEF80821264805F0E6FB0121304606F02D
:1032B000BDFA0121304604F0B3FD0121304604F08F
:1032C00093FE0BB0BDE8F08FB0F900204FF47A61A7
:1032D00001EB82031A4A1364B0F9023001EB830355
:1032E000D363B0F9043001EB83039363B0F9063084
:1032F00001EB83035363104BB0F90820403301EB1B
:1033000082021A60B0F90A201B1F01EB82021A60C8
:103310000D4BB0F90C20403301EB82021A60B0F97A
:103320000E0001EB8000191F0860704700093D0086
:10333000000002405C030020000C0040001002402E
:1033400000000140000802400004014070B586B052
:1033500004A803F099F901A806F021F9012102203F
:1033600003F0EBFF0121042003F08BFF1D208DF8FB
:10337000000002248DF8014001258DF802508DF8DF
:103380000350684600F06EFE802004908DF81440D3
:1033900003208DF8150000268DF816608DF8174073
:1033A000574C04A9204603F0DEF8022207212046EC
:1033B00003F0B8FB5349532008800420ADF8040003
:1033C0000A20ADF80600ADF80850ADF80A60ADF877
:1033D0000C604C4C01A9283C204605F0FEFF012161
:1033E000204604F001FE01220421204606F09DFA49
:1033F00006B070BD10B5434818380188490717D585
:103400004FF6FB7101804FF6FF3101803C481030D0
:10341000006800060CD43B48283806F047F93A4CBF
:1034200020806188401A80B2FEF795FC2088608079
:1034300010BD70B588B001A803F026F90121202045
:1034400003F09AFF0121042003F01BFF47208DF8B1
:103450000C0004258DF80D5001248DF80E408DF8D8
:103460000F4003A800F0FEFD254E0822072130463C
:1034700003F058FB8020019002218DF808108DF890
:1034800009108DF80A4000248DF80B4001A9304640
:1034900003F069F81D480490ADF81440E802ADF857
:1034A0001600C010ADF81800ADF81C40ADF81A5069
:1034B000174C04A9204607F0A7F8012240F2255135
:1034C000204607F0E6FC0121204607F0BCF908B0D1
:1034D00070BD70B50E4D40F225542146284607F0C8
:1034E000D1FD00280AD02146284607F04FFE281DAE
:1034F0000088C0B2BDE87040FEF74FBC70BD000050
:10350000000802402804004044030020A086010077
:10351000001401403EB504460121202003F00DFFB8
:103520001F4D284604F02CF901945320ADF80000FB
:103530000020ADF80800ADF802006946284604F006
:1035400009FA0121284606F0D2FA0122114628463E
:1035500006F0EBF90121284604F046FD0021202069
:1035600003F0EBFE3EBD08B537208DF800000720C4
:103570008DF8010001208DF802008DF803006846E7
:1035800000F070FD08BD10B54FF47A70FFF7C2FF70
:10359000FFF7E9FF0121BDE81040202003F0CDBE78
:1035A0000014004070472DE9F04389B0814605A81A
:1035B00007F0EFF80121102003F0DEFE012108469C
:1035C00003F05FFE25208DF8080003208DF8090028
:1035D00000248DF80A4001268DF80B6002A800F047
:1035E00041FDDFF8488407220921404603F09AFA9A
:1035F00007220A21404603F095FA77020097022538
:103600008DF804508DF805508DF806408DF8076050
:103610006946404602F0A7FF680200908DF804500A
:103620008DF805508DF806608DF8074069464046D4
:1036300002F099FFFE4D284606F07CFFCDF814906D
:10364000ADF81840ADF81A40ADF81C40ADF8204078
:103650000C20ADF81E00ADF80C40ADF80E40ADF8F2
:103660001070ADF8124005A9284606F0CDFF03A959
:10367000284607F099F8012240F22551284607F024
:1036800008FC0121284607F0DEF809B0BDE8F08308
:10369000F0B40022E74CE84E06E06378875C5D1CDE
:1036A0006570F754521CD2B28A42F6D3E048818941
:1036B000090605D4F0BC012240F2277107F0E9BBEE
:1036C000F0BC704710B5DB4BDC4C99784A1CD2B289
:1036D0009A706054642A01D30020987010BD70B5B0
:1036E000D44CD64D002608E0411CE170285CFDF763
:1036F000E1FEE078642800D3E670A178E0788142AA
:10370000F2D170BD70B5CA4C2088000700D5A088E2
:1037100040F225552946204607F0B4FC38B1294629
:10372000204607F033FDA088C0B2FFF7CBFF40F280
:103730002771204607F0A6FC00280ED0BD4B197853
:10374000481CC2B2BC481A70405CA08058788242C3
:1037500003D1A08920F08000A08170BD2DE9F04147
:103760008AB0804606A807F014F80121480403F047
:10377000E4FD0121082003F084FD26208DF80C00D3
:1037800004208DF80D0001258DF80E508DF80F5096
:1037900003A800F067FCAA4F07220521384603F072
:1037A000C1F907220621384603F0BCF92020019018
:1037B00002268DF808608DF8096000248DF80A4013
:1037C0008DF80B5001A9384602F0CDFE4020019043
:1037D0008DF808608DF809608DF80A508DF80B405F
:1037E00001A9384602F0BFFECDF81880ADF81C40A4
:1037F000ADF81E40ADF82040ADF824400C20ADF8E7
:103800002200ADF81040ADF812406802ADF8140087
:10381000ADF816408B4C06A9204606F0F5FE04A92B
:10382000204606F0C1FF012240F22551204607F054
:1038300030FB0121204607F006F80AB0BDE8F08110
:10384000F0B400227D4E7B4C643606E06379875CE1
:103850005D1C6571F754521CD2B28A42F6D3794886
:103860000C300088000606D4F0BC012240F227711B
:10387000744807F00EBB23E710B56E4B724C997974
:103880004A1CD2B29A716054642A01D30020987104
:1038900010BD70B5674C6C4D002608E0411CE1710D
:1038A000285CFDF7BCFEE079642800D3E671A179BD
:1038B000E0798142F2D170BD70B5624D288805F182
:1038C0000404000700D5208840F2255631462846DA
:1038D00007F0D8FB38B13146284607F057FC20885E
:1038E000C0B2FFF7C9FF40F22771284607F0CAFBB4
:1038F000002811D04F4A514B1079411CC9B2643392
:103900001171185C20805079814205D14D480C30EE
:10391000018821F08001018070BD2DE9F0418AB05D
:10392000804606A806F035FF0121880403F005FD56
:103930000121022003F0A5FC27208DF80C000225B0
:103940008DF80D5000248DF80E4001268DF80F6083
:1039500003A800F087FB3D4F07220A21384603F0F9
:10396000E1F807220B21384603F0DCF868020190E9
:103970008DF808508DF809508DF80A408DF80B60CD
:1039800001A9384602F0EFFDA80201908DF8085019
:103990008DF809508DF80A608DF80B4001A9384662
:1039A00002F0E1FDCDF81880ADF81C40ADF81E40E6
:1039B000ADF82040ADF824400C20ADF82200ADF861
:1039C0001040ADF812402802ADF81400ADF81640D2
:1039D0001F4C06A9204606F017FE04A9204606F053
:1039E000E3FE012240F22551204607F052FA012160
:1039F000204606F028FF20E7F0B40022124E0D4CBE
:103A0000643606E0637A875C5D1C6572F754521C6D
:103A1000D2B28A42F6D30E480C30008800061BD47E
:103A2000F0BC012240F22771094813E00000024077
:103A30000010014048030020040D0020040E002067
:103A4000000C024000440040680F002000040240C7
:103A50000048004007F01DBA32E610B5F64BF74CAF
:103A6000997A4A1CD2B29A726054642A01D3002017
:103A7000987210BD10B5F049F04B002408E0421CCC
:103A8000CA72185CFFF78EFDC87A642800D3CC7226
:103A90008A7AC87A8242F2D110BD70B5E84D288882
:103AA00005F10404000700D5208840F22556314670
:103AB000284607F0E7FA38B13146284607F066FB9A
:103AC0002088C0B2FFF7C9FF40F22771284607F0EF
:103AD000D9FA002810D0D84ADA4B107A411CC9B262
:103AE0001172185C2080507A814205D1D4480C3084
:103AF000018821F08001018070BD2DE9F04188B07E
:103B0000804604A806F045FE0121C80403F015FC18
:103B10000121084603F0B5FB34208DF80C0003208A
:103B20008DF80D0001258DF80E508DF80F5003A86B
:103B300000F098FAC44F08220021384602F0F2FF44
:103B400008220121384602F0EDFF019502268DF88A
:103B500008608DF8096000248DF80A408DF80B503C
:103B600001A9384602F0FFFC01968DF808608DF837
:103B700009608DF80A508DF80B4001A9384602F013
:103B8000F2FCCDF81080ADF81440ADF81640ADF859
:103B90001840ADF81C400C20ADF81A00AB4C04A93D
:103BA000204606F031FD012240F22551204607F063
:103BB00070F90121204606F046FE08B03EE6F0B45A
:103BC00000229E4E9C4C643606E0637B875C5D1C45
:103BD0006573F754521CD2B28A42F6D39B480C301C
:103BE0000088000606D4F0BC012240F227719748F5
:103BF00007F04FB964E510B58F4B954C997B4A1C83
:103C0000D2B29A736054642A01D30020987310BD15
:103C100070B5894C8E4D002608E0411CE173285C8C
:103C2000FEF775FEE07B642800D3E673A17BE07BA2
:103C30008142F2D170BD70B5844D288805F104042D
:103C4000000700D5208840F225563146284607F067
:103C500019FA38B13146284607F098FA2088C0B2E0
:103C6000FFF7C9FF40F22771284607F00BFA00283A
:103C700011D0714A714B107B411CC9B2643311736E
:103C8000185C2080507B814205D170480C3001883F
:103C900021F08001018070BD2DE9F04387B081469D
:103CA00003A806F076FD0121080503F046FB01217B
:103CB000042003F0E6FA0121082003F0E2FA35209F
:103CC0008DF8080001258DF8095000248DF80A4070
:103CD0008DF80B5002A800F0C5F95E4F08220C21A8
:103CE000384602F01FFFDFF87081082202214046AB
:103CF00002F018FF2803009002268DF804608DF86A
:103D000005608DF806408DF807506946384602F088
:103D10002AFC042000908DF804608DF805608DF871
:103D200006508DF807406946404602F01CFCCDF86D
:103D30000C90ADF81040ADF81240ADF81440ADF85D
:103D400018400C20ADF81600444C03A9204606F09C
:103D50005BFC012240F22551204607F09AF8012130
:103D6000204606F070FD07B090E4F0B40022384E13
:103D7000314C643606E0637C875C5D1C6574F754E7
:103D8000521CD2B28A42F6D334488189090605D43E
:103D9000F0BC012240F2277107F07BB890E410B527
:103DA000254B2F4C997C4A1CD2B29A746054642AD9
:103DB00001D30020987410BD70B51F4C284D00260B
:103DC00008E0411CE174285CFCF70AFCE07C6428F4
:103DD00000D3E674A17CE07C8142F2D170BD70B565
:103DE0001E4C2088000700D5A08840F225552946A2
:103DF000204607F047F938B12946204607F0C6F9B2
:103E0000A088C0B2FFF7CBFF40F22771204607F031
:103E100039F900280FD0084B197C481CC2B20C4855
:103E20001A746430405CA080587C824203D1A0891F
:103E300020F08000A08170BD48030020CC1000203D
:103E400000480040CC0F002000000240004C004021
:103E50003012002000080240000C024000500040D8
:103E60009413002010B5FFF73AFCFFF712FDFFF79F
:103E700001FEFFF7CDFEBDE810409DE706488047F4
:103E800006480047FEE7FEE7FEE7FEE7FEE7FEE73F
:103E9000FEE7FEE7FEE7FEE7493F0008890100086C
:103EA0000CB50022019200925849086840F4803015
:103EB00008604FF4A063086800F400300090019897
:103EC000401C0190009810B901989842F3D10868FD
:103ED000800302D50120009000E0009200980128A4
:103EE00031D14A484030026842F08052026048486E
:103EF000026842F48042026044480830026802606E
:103F0000026842F400420260026842F4A052026079
:103F1000021F404B13600A6842F080720A600A6810
:103F20009201FCD53C4A40F205611160016821F024
:103F300003010160016841F0020101600168C1F301
:103F400081010229FAD10CBD10B53448016841F451
:103F5000700101602D48016841F0010101602B4AA8
:103F600000210832116002682D4B1A400260031DC7
:103F70002C4A1A60026822F48022026023480C3026
:103F80000160FFF78DFF25494FF000608039086020
:103F900010BD70B51D4E0836306800F00C00224B85
:103FA000224900280FD05D1004280ED008280ED01A
:103FB0000B6030681D4AC0F30310121D105C0A68C4
:103FC000C2400A6070BD0B60F3E70D60F1E70F4A75
:103FD000121D1068C0F38054106800F03F0034B127
:103FE000B5FBF0F01368C3F38813584305E0B3FB47
:103FF000F0F01368C3F3881358431268C2F3014208
:10400000521C5200B0FBF2F00860D2E700380240C8
:104010000070004008544007003C024088ED00E07A
:10402000FFFFF6FE103000240024F4005C030020A3
:1040300010B50446B4F5E06F0FD0B4F5C06F0CD0E6
:10404000B4F5A06F09D0B4F5806F06D0B4F5407F09
:1040500003D073215148FCF7EDF85148044351480F
:10406000046010BD70B504460F25E078002805D027
:10407000012803D087214948FCF7DCF86078102834
:1040800003D388214548FCF7D5F8A078102803D33E
:1040900089214248FCF7CEF8E078012200B341487C
:1040A000006800F4E060C0F5E060C0F30720C0F1F4
:1040B0000401C54060788840A17829400143080187
:1040C000217801F1E02181F80004207800F01F013F
:1040D0008A404009800000F1E020C0F8002170BD56
:1040E000207800F01F018A404009800000F1E020A4
:1040F000C0F8802170BD70B504460D46B4F1005F74
:1041000006D0B4F1006F03D0B1212448FCF792F837
:104110002548854203D3B2212048FCF78BF8234879
:10412000054020482543001F056070BD70B504465A
:104130000D46102C07D0042C05D0022C03D0C4212E
:104140001648FCF777F82DB1012D03D0C52113488F
:10415000FCF770F81348001D1DB101682143016090
:1041600070BD0168A143016070BD10B50446042C08
:1041700005D0601D03D0DC210848FCF75BF84FF048
:10418000E020042C04D0016921F00401016110BD7C
:10419000016941F00401016110BD00006CBC000820
:1041A0000000FA050CED00E0FFFF0F0080FFFF1F8D
:1041B00010B501210C02204603F0CCF92046BDE8E1
:1041C0001040002103F0C6B92DE9F04105460C4628
:1041D000F648854209D0F648854206D0F548854222
:1041E00003D0E921F448FCF725F84FF080762068E9
:1041F00077004FF0407848B1B04207D0B84205D0C0
:10420000404503D0EA21EC48FCF714F8207928B1A6
:10421000012803D0EB21E848FCF70CF8607928B1BD
:10422000012803D0EC21E448FCF704F8A06860B151
:10423000B0F1805F09D0B0F1005F06D0B0F1405F0F
:1042400003D0ED21DC48FBF7F5FFE2686AB3B24228
:104250002BD0BA4229D0424527D0B2F1806F24D06A
:10426000B2F1A06F21D0B2F1C06F1ED0B2F1E06FF9
:104270001BD0B2F1006F18D0B2F1106F15D0B2F1AF
:10428000206F12D0B2F1306F0FD0B2F1406F0CD06E
:10429000B2F1506F09D0B2F1606F06D0B2F1706F19
:1042A00003D0EE21C448FBF7C5FF206930B1B0F55B
:1042B000006F03D0EF21C048FBF7BCFF207D401EFC
:1042C0000F2803D9F021BC48FBF7B4FF6868BB494D
:1042D00008402279216840EA022001436960A86809
:1042E000B7490840D4E9032111436379A26842EA3F
:1042F000430211430143A960E86A20F47001207D64
:10430000401EC0B241EA0050E862BDE8F0810021E1
:104310000160017141718160C1600161012101751C
:10432000704710B50446216800291CD001291AD015
:10433000022918D0052916D0062914D0072912D031
:10434000092910D011290ED012290CD015290AD014
:10435000162908D0172906D0192904D04FF4A971BD
:104360009548FBF767FF606868B1B0F5803F0AD0F9
:10437000B0F5003F07D0B0F5403F04D040F25311F4
:104380008D48FBF757FFA06868B1B0F5804F0AD0A1
:10439000B0F5004F07D0B0F5404F04D04FF4AA71EC
:1043A0008548FBF747FFE16889B3B1F5807F2ED0E0
:1043B000B1F5007F2BD0B1F5407F28D0B1F5806FEB
:1043C00025D0B1F5A06F22D0B1F5C06F1FD0B1F5E7
:1043D000E06F1CD0B1F5006F19D0B1F5106F16D099
:1043E000B1F5206F13D0B1F5306F10D0B1F5406F3B
:1043F0000DD0B1F5506F0AD0B1F5606F07D0B1F5AF
:10440000706F04D040F255116B48FBF713FF6D4BF2
:1044100019686D480140D4E900021043D4E9022430
:10442000224310430843186010BD00210160416021
:104430008160C160704770B504460D465B48844298
:104440000AD05B48844207D05A48844204D040F2E4
:104450008B115948FBF7EEFE35B1012D04D04FF416
:10446000C6715548FBF7E6FE25B1A06840F0010093
:10447000A06070BDA06820F00100A06070BD70B5A4
:1044800005460C46494885420AD04948854207D02E
:104490004848854204D04FF4E3714748FBF7CAFE11
:1044A0004A48844214D04A48844211D04948844240
:1044B0000ED0B4F5000F0BD0B4F5800F08D0B4F5D2
:1044C000400F05D024B140F2C7113B48FBF7B2FEC4
:1044D00068684049C94308402043686070BD2DE9C1
:1044E000F04104460D461646304884420AD0304812
:1044F000844207D02F48844204D040F2E3112E4872
:10450000FBF798FE4FF48057BD4204D34FF4F2718D
:104510002948FBF78FFEBE4204D340F2E51126483E
:10452000FBF788FE6562A662EFE670B505460C46AD
:104530001E4885420AD01E48854207D01D48854244
:1045400004D04FF403711C48FBF774FE44B3012CF4
:1045500026D0022C24D0032C22D0042C20D0052CD1
:104560001ED0062C1CD0072C1AD0082C18D0092CD1
:1045700016D00A2C14D00B2C12D00C2C10D00D2CD1
:104580000ED00E2C0CD00F2C0AD0102C08D0112CD1
:1045900006D0122C04D040F20D210748FBF74AFE4A
:1045A000686820F01F002043686070BD0020014053
:1045B0000021014000220140B4BC0008FFFEFFFCC6
:1045C000FDF7FFC004230140E030FCFF0002800043
:1045D000000240000002C00010B50446002C06D0C6
:1045E000012C04D04FF41371F948FBF723FEF9486E
:1045F00034B1D0F8041341F40001C0F8041310BD25
:10460000D0F8041321F40001C0F8041310BD10B554
:104610000446002C06D0012C04D040F26221EC4864
:10462000FBF708FEEB4834B1D0F8041341F48001E5
:10463000C0F8041310BDD0F8041321F48001C0F8B1
:10464000041310BD2DE9F04105460C4617461E46E1
:10465000E04885420AD0E048854207D0DF488542DD
:1046600004D04FF43271DA48FBF7E4FD44B3012C77
:1046700026D0022C24D0032C22D0042C20D0052CB0
:104680001ED0062C1CD0072C1AD0082C18D0092CB0
:1046900016D00A2C14D00B2C12D00C2C10D00D2CB0
:1046A0000ED00E2C0CD00F2C0AD0102C08D0112CB0
:1046B00006D0122C04D040F2C921C548FBF7BAFD40
:1046C000781E80460F2804D940F2CA21C048FBF763
:1046D000B1FD96B1012E10D0022E0ED0032E0CD0BB
:1046E000042E0AD0052E08D0062E06D0072E04D0A0
:1046F00040F2CB21B648FBF79DFD0722092C0AD9D1
:10470000E968A4F10A0000EB400082409143864032
:104710003143E96007E0296904EB4400824091439A
:104720008640314329611F21072F08D26A6B08EBAD
:10473000880081408A43844022436A63E5E50D2F67
:1047400009D22A6BFF1F07EB870081408A43844010
:1047500022432A63D9E5EA6A0D3F07EB87008140CF
:104760008A4384402243EA62CFE510B50446994863
:1047700084420AD09848844207D09848844204D0A2
:1047800040F23F319248FBF755FDA06840F0804071
:10479000A06010BD70B5044600258E4884420AD042
:1047A0008D48844207D08D48844204D040F24E3177
:1047B0008748FBF73FFDA068400200D50125284649
:1047C00070BD70B504460D46824884420AD08248C6
:1047D000844207D08148844204D040F26B317C4847
:1047E000FBF728FD35B1012D04D04FF45B717848FB
:1047F000FBF720FD25B1A06840F48060A06070BD8B
:10480000A06820F48060A06070BD70B504460D46BD
:10481000704884420AD07048844207D06F4884426E
:1048200004D04FF461716A48FBF704FD35B1012DE6
:1048300004D040F285316648FBF7FCFC25B1A06846
:1048400040F00200A06070BDA06820F00200A060EF
:1048500070BD70B504460D465E4884420AD05E487D
:10486000844207D05D48844204D040F2A1315848C8
:10487000FBF7E0FC681E072804D940F2A231544837
:10488000FBF7D8FC606820F460406D1E40EA4530BC
:10489000606070BD70B504460D464E4884420AD033
:1048A0004D48844207D04D48844204D040F2BE3186
:1048B0004748FBF7BFFC35B1012D04D040F2BF31B2
:1048C0004348FBF7B7FC25B1606840F400606060C6
:1048D00070BD606820F40060606070BD10B5044673
:1048E0003C4884420AD03C48844207D03B4884423A
:1048F00004D040F2D5313648FBF79CFCE06C80B226
:1049000010BD37480068704770B504460D46314801
:1049100084420AD03048844207D03048844204D0D0
:1049200040F21B412A48FBF785FC35B1012D04D02C
:1049300040F21C412648FBF77DFC25B1A06840F4FD
:104940008070A06070BDA06820F48070A06070BD11
:1049500070B504460D461F4884420AD01E48844262
:1049600007D01E48844204D040F233411848FBF778
:1049700061FC35B1012D04D040F234411448FBF7FD
:1049800059FC25B1A06840F40070A06070BDA0681B
:1049900020F40070A06070BD10B50446002C06D055
:1049A000012C04D040F24E410948FBF743FC094872
:1049B00034B1D0F8041341F40051C0F8041310BD11
:1049C000D0F8041321F40051C0F8041310BD000006
:1049D000B4BC000800200140002101400022014039
:1049E000082301402DE9F04106460C4617461D46B6
:1049F000FE4886420AD0FE48864207D0FD488642DD
:104A000004D040F2A641FC48FBF714FC44B3012C4F
:104A100026D0022C24D0032C22D0042C20D0052C0C
:104A20001ED0062C1CD0072C1AD0082C18D0092C0C
:104A300016D00A2C14D00B2C12D00C2C10D00D2C0C
:104A40000ED00E2C0CD00F2C0AD0102C08D0112C0C
:104A500006D0122C04D040F2A741E748FBF7EAFB4E
:104A6000781E032804D94FF49561E348FBF7E2FB75
:104A700095B1012D10D0022D0ED0032D0CD0042D98
:104A80000AD0052D08D0062D06D0072D04D040F2FF
:104A9000A941D948FBF7CEFB0722092C0AD9F168B6
:104AA000A4F10A0000EB4000824091438540294375
:104AB000F16007E0316904EB440082409143854096
:104AC00029433161B06BC0F30151791A891C01EBA4
:104AD00081011F228A4090438C402043B06314E43C
:104AE00070B504460D46C14884420AD0C04884428D
:104AF00007D0C048844204D040F2E641BE48FBF7EC
:104B000099FB681E032804D940F2E741BA48FBF735
:104B100091FBA06B20F440106D1E40EA0550A0638D
:104B200070BDF8B505460C46164600200090AF480B
:104B300085420AD0AE48854207D0AE48854204D0AF
:104B40004FF4A161AC48FBF775FB142C0AD0182C6C
:104B500008D01C2C06D0202C04D040F20951A648C5
:104B6000FBF768FBB6F5805F04D340F20A51A24818
:104B7000FBF760FB009500982044009000980660C9
:104B8000F8BD70B505460C46984885420AD098484D
:104B9000854207D09748854204D040F22E5196486E
:104BA000FBF748FB8CB3B4F5803F2ED0B4F5003F43
:104BB0002BD0B4F5403F28D0B4F5802F25D0B4F5E4
:104BC000A02F22D0B4F5C02F1FD0B4F5E02F1CD0F9
:104BD000B4F5002F19D0B4F5102F16D0B4F5202F4E
:104BE00013D0B4F5302F10D0B4F5402F0DD0B4F55C
:104BF000502F0AD0B4F5602F07D0B4F5702F04D031
:104C000040F22F517C48FBF715FBA86820F4702078
:104C10002043A86070BD70B504460D4673488442B9
:104C20000AD07348844207D07248844204D04FF4BB
:104C3000AA617148FBF7FEFA6DB1B5F5801F0AD085
:104C4000B5F5001F07D0B5F5401F04D040F2515113
:104C50006948FBF7EFFAA06820F440102843A060F1
:104C600070BD10B50446614884420AD06048844251
:104C700007D06048844204D040F264515E48FBF79C
:104C8000D9FAA06840F48000A0609FE670B50446A1
:104C90000025564884420AD05548844207D05548DA
:104CA000844204D040F272515348FBF7C3FAA06823
:104CB000400200D50125284670BD70B504460D465A
:104CC0004A4884420AD04A48844207D0494884422C
:104CD00004D040F28E514848FBF7ACFA35B1012DB3
:104CE00004D040F28F514448FBF7A4FA25B1606824
:104CF00040F48060606070BD606820F48060606037
:104D000070BD70B504460D46384884420AD0384814
:104D1000844207D03748844204D04FF4B561364806
:104D2000FBF788FA35B1012D04D040F2A951324881
:104D3000FBF780FA25B1606840F48050606070BD78
:104D4000606820F48050606070BD38B505460C4640
:104D500000200090254885420AD02548854207D08A
:104D60002448854204D040F2C6512348FBF762FA3A
:104D7000142C0AD0182C08D01C2C06D0202C04D0BF
:104D800040F2C7511C48FBF755FA009500982044A3
:104D9000283000900098006880B238BD70B5044695
:104DA0000D461646114884420AD01148844207D065
:104DB0001048844204D040F231610F48FBF73AFAC0
:104DC00036B1012E04D040F232610B48FBF732FAC3
:104DD000A5F50070053818D0B5F5837F15D0A5F579
:104DE0008060073811D0A5F5005007E00020014091
:104DF0000021014000220140B4BC00081A3804D050
:104E000040F233615648FBF715FA0120A8401EB165
:104E100061680143616070BD61688143616070BD1C
:104E200070B505460C4600264E4885420AD04E48CD
:104E3000854207D04D48854204D040F2566148482B
:104E4000FBF7F8F9012C0ED0022C0CD0042C0AD060
:104E5000082C08D0102C06D0202C04D040F257612A
:104E60003F48FBF7E7F92868204200D0012630468A
:104E700070BD70B504460D463A4884420AD03A489F
:104E8000844207D03948844204D04FF4CF6134487B
:104E9000FBF7D0F9A80900D125B940F27961304873
:104EA000FBF7C8F9E843206070BD70B505460C46B5
:104EB00000262C4885420AD02B48854207D02B4833
:104EC000854204D04FF4D2612548FBF7B3F9A4F52D
:104ED000007005380FD0B4F5837F0CD0A4F5806046
:104EE000073808D0A4F500501A3804D040F2916178
:104EF0001B48FBF79FF9210A68680122A240104075
:104F00002A680A4201D000B10126304670BD70B552
:104F100005460C46134885420AD01348854207D0FF
:104F20001248854204D040F2B7610D48FBF782F980
:104F3000A4F5007005380FD0B4F5837F0CD0A4F52C
:104F40008060073808D0A4F500501A3804D04FF418
:104F5000D7610348FBF76EF9200AC043286070BD93
:104F6000B4BC0008002001400021014000220140A3
:104F70002DE9F05F0446F84EF74FF74DDFF8D88380
:104F8000DFF8D493DFF8D0A3DFF8CCB3183630378E
:104F900008F1480809F160090AF1780A0BF1900B51
:104FA000AC4232D0B44230D0BC422ED044452CD09A
:104FB0004C452AD0544528D05C4526D0E648A83038
:104FC000844222D0E54884421FD0E448183084420D
:104FD0001BD0E2483030844217D0E0484830844249
:104FE00013D0DE48603084420FD0DC4878308442F1
:104FF0000BD0DA489030844207D0D848A830844299
:1050000003D0BF21D648FBF715F9206820F0010036
:105010002060002020606060A060E06020612120AE
:105020006061CD483D211038AC4202D18160BDE8BD
:10503000F09F4FF47462B44201D18260F7E74FF4FD
:105040007413BC4201D18360F1E74FF074654445AD
:1050500001D18560EBE7C34E4C4501D1C660E6E760
:10506000DFF804C3544502D1C0F80CC0DFE7DFF815
:10507000FC825C4502D1C0F80C80D8E7B64F4FF0F7
:105080003D59A837BC4202D1C0F80C90CFE7B348D5
:10509000B24F0838BC4201D10160C8E7AF491831AE
:1050A0008C4201D10260C2E7AC4930318C4201D15F
:1050B0000360BCE7A94948318C4201D10560B6E7DD
:1050C000A649A6486031001F8C4201D10660AEE7B8
:1050D000A24978318C4202D1C0F800C0A7E79F49AD
:1050E00090318C4202D1C0F80080A0E79B49A831E2
:1050F0008C429CD1C0F8009099E770B505460C46EB
:10510000954885423FD09448183085423BD092481C
:105110003030854237D090484830854233D08E4871
:10512000603085422FD08C48783085422BD08A4819
:105130009030854227D08848A830854223D08748C0
:10514000854220D08548183085421CD083483030B5
:10515000854218D081484830854214D07F4860305D
:10516000854210D07D48783085420CD07B48903005
:10517000854208D07948A830854204D04FF49E710A
:105180007748FBF757F82068C8B1B0F1007F16D018
:10519000B0F1806F13D0B0F1C06F10D0B0F1006FDC
:1051A0000DD0B0F1206F0AD0B0F1406F07D0B0F150
:1051B000606F04D040F23D116948FBF73BF8E068AE
:1051C00040B1402806D0802804D04FF49F71644835
:1051D000FBF730F820694FF6FF71401E884204D378
:1051E00040F23F115E48FBF725F86069B0F5007F9B
:1051F00005D020B14FF4A0715948FBF71BF8A06906
:10520000B0F5806F05D020B140F241115448FBF752
:1052100011F8E06950B1B0F5006F07D0B0F5805FCC
:1052200004D04FF4A1714E48FBF704F8206A50B146
:10523000B0F5005F07D0B0F5804F04D040F24311C5
:105240004748FAF7F7FF606A38B1B0F5807F04D0BD
:105250004FF4A2714248FAF7EDFFA06A68B1B0F5C9
:10526000803F0AD0B0F5003F07D0B0F5403F04D0F2
:1052700040F245113A48FAF7DDFFE06A30B1042800
:1052800004D04FF4A3713648FAF7D4FF206B50B125
:10529000012808D0022806D0032804D040F2471184
:1052A0002F48FAF7C7FF606B68B1B0F5000F0AD05E
:1052B000B0F1807F07D0B0F1C07F04D04FF4A4716B
:1052C0002748FAF7B7FFA06B68B1B0F5001F0AD006
:1052D000B0F5800F07D0B0F5C00F04D040F24911EF
:1052E0001F48FAF7A7FF296821480140E2682068B3
:1052F0001043D4E905231A431043E2691043226A9C
:105300001043626A1043A26A1043626B1043A26B9F
:10531000104308432860686920F00700D4E90B12A5
:10532000114301436961206968606068A860A068F2
:10533000E86070BD0021016041608160C160016171
:1053400041618161C161016241628162C162016347
:1053500041638163704700001060024010640240A6
:1053600008BD00083D000020400F002000003D2047
:105370003F801CF070B504460D46F74884423FD08C
:10538000F548183084423BD0F3483030844237D05F
:10539000F1484830844233D0EF48603084422FD007
:1053A000ED48783084422BD0EB489030844227D0AF
:1053B000E948A830844223D0E848844220D0E74816
:1053C000183084421CD0E5483030844218D0E3487D
:1053D0004830844214D0E1486030844210D0DF4825
:1053E000783084420CD0DD489030844208D0DB48CD
:1053F000A830844204D040F2D911D948FAF71AFFF4
:1054000035B1012D04D04FF4ED71D548FAF712FFF4
:1054100025B1206840F00100206070BD206820F0B8
:105420000100206070BD70B504460D46CA48844234
:105430003FD0C948183084423BD0C74830308442FE
:1054400037D0C5484830844233D0C34860308442A6
:105450002FD0C148783084422BD0BF48903084424E
:1054600027D0BD48A830844223D0BC48844220D0F5
:10547000BA48183084421CD0B8483030844218D022
:10548000B6484830844214D0B4486030844210D0CA
:10549000B248783084420CD0B0489030844208D072
:1054A000AE48A830844204D040F2FD11AC48FAF76F
:1054B000C1FE3DB1B5F5004F04D04FF4FF71A848CF
:1054C000FAF7B8FE25B1206840F40040206070BDB6
:1054D000206820F40040206070BD70B504460D4681
:1054E0009D4884423FD09C48183084423BD09A4823
:1054F0003030844237D098484830844233D0964880
:10550000603084422FD09448783084422BD0924827
:105510009030844227D09048A830844223D08F48CE
:10552000844220D08D48183084421CD08B483030C3
:10553000844218D089484830844214D0874860306B
:10554000844210D08548783084420CD08348903013
:10555000844208D08148A830844204D040F22121FE
:105560007F48FAF767FE35B1202D04D040F22221A2
:105570007B48FAF75FFE25B1206840F020002060EC
:1055800070BD206820F02000206070BD70B504461A
:105590000D46714884423FD06F48183084423BD05A
:1055A0006D483030844237D06B484830844233D025
:1055B0006948603084422FD06748783084422BD0CD
:1055C00065489030844227D06348A830844223D075
:1055D0006248844220D06148183084421CD05F4821
:1055E0003030844218D05D484830844214D05B4843
:1055F0006030844210D05948783084420CD05748EB
:105600009030844208D05548A830844204D040F2FB
:1056100075215348FAF70EFE656070BD10B504465B
:105620004D4884423FD04C48183084423BD04A48D1
:105630003030844237D048484830844233D04648DE
:10564000603084422FD04448783084422BD0424886
:105650009030844227D04048A830844223D03F482D
:10566000844220D03D48183084421CD03B48303022
:10567000844218D039484830844214D037486030CA
:10568000844210D03548783084420CD03348903072
:10569000844208D03148A830844204D04FF42171AC
:1056A0002F48FAF7C7FD606880B210BD70B5044698
:1056B0000E461546284884423FD027481830844279
:1056C0003BD025483030844237D02348483084428C
:1056D00033D02148603084422FD01F487830844234
:1056E0002BD01D489030844227D01B48A8308442DC
:1056F00023D01A48844220D01848183084421CD045
:1057000016483030844218D014484830844214D0AF
:1057100012486030844210D01048783084420CD057
:105720000E489030844208D00C48A830844204D0FF
:1057300040F2D2210A48FAF77DFD3DB1B5F5002FC0
:1057400004D040F2D3210648FAF774FD55B1206821
:1057500040F40020206009E0106002401064024024
:1057600008BD0008206820F400202060266170BD7C
:1057700070B504460D46FE4884423FD0FC481830C0
:1057800084423BD0FA483030844237D0F848483021
:10579000844233D0F648603084422FD0F4487830C9
:1057A00084422BD0F2489030844227D0F048A83071
:1057B000844223D0EF48844220D0EE4818308442FF
:1057C0001CD0EC483030844218D0EA48483084423B
:1057D00014D0E8486030844210D0E64878308442E3
:1057E0000CD0E4489030844208D0E248A83084428B
:1057F00004D04FF43C71E048FAF71CFD35B1012D9F
:1058000004D040F2F121DC48FAF714FD25B12068FC
:1058100040F48020206070BD206820F4802020604B
:1058200070BD70B504460E461546D14884423FD03F
:10583000CF48183084423BD0CD483030844237D0F6
:10584000CB484830844233D0C948603084422FD09E
:10585000C748783084422BD0C5489030844227D046
:10586000C348A830844223D0C248844220D0C148D3
:10587000183084421CD0BF483030844218D0BD4814
:105880004830844214D0BB486030844210D0B948BC
:10589000783084420CD0B7489030844208D0B54864
:1058A000A830844204D040F21A31B348FAF7C2FC5F
:1058B0003DB1B5F5002F04D040F21B31AE48FAF7E8
:1058C000B9FC0DB1266170BDE66070BD70B50446CF
:1058D0000025A74884423FD0A548183084423BD0D9
:1058E000A3483030844237D0A1484830844233D076
:1058F0009F48603084422FD09D48783084422BD01E
:105900009B489030844227D09948A830844223D0C5
:105910009848844220D09748183084421CD095483B
:105920003030844218D093484830844214D0914893
:105930006030844210D08F48783084420CD08D483B
:105940009030844208D08B48A830844204D040F282
:1059500035318948FAF76EFC2068000300D501252F
:10596000284670BD70B504460025814884423FD06A
:105970007F48183084423BD07D483030844237D055
:105980007B484830844233D07948603084422FD0FD
:105990007748783084422BD075489030844227D0A5
:1059A0007348A830844223D07248844220D0714882
:1059B000183084421CD06F483030844218D06D4873
:1059C0004830844214D06B486030844210D069481B
:1059D000783084420CD067489030844208D06548C3
:1059E000A830844204D040F2A2316348FAF722FC86
:1059F0002068C00700D00125284670BD10B50446B8
:105A00005B4884423FD05A48183084423BD05848C3
:105A10003030844237D056484830844233D05448DE
:105A2000603084422FD05248783084422BD0504886
:105A30009030844227D04E48A830844223D04D482D
:105A4000844220D04B48183084421CD04948303022
:105A5000844218D047484830844214D045486030CA
:105A6000844210D04348783084420CD04148903072
:105A7000844208D03F48A830844204D04FF471716A
:105A80003D48FAF7D7FB606900F0380010BD2DE9FA
:105A9000F04105460C4600263548364F85423ED03B
:105AA0003348183085423AD031483030854236D0BC
:105AB0002F484830854232D02D48603085422ED064
:105AC0002B48783085422AD029489030854226D00C
:105AD0002748A830854222D0BD4220D02548183022
