:0E257000C180C101C102C183C18402170320D2
:1016C200D2921229CA1229DC122A1212298CE51E80
:1016D200640170F712279B7D017C0012222C8E4B35
:1016E2008F4C12279B7D017C0012222C8E4B8F4C3B
:1016F20012279B7D017C0012222C8E4B8F4C1227CD
:101702009B7D017C0012222C8E4B8F4C1228078E5F
:10171200498F4A12272D8E4D8F4E1228078E498FE0
:101722004A12272D8E4D8F4E1228078E498F4A124C
:10173200272D8E4D8F4E20000F20010C20020920F4
:10174200030620040302297312001ED3E54C94E021
:10175200E54B940150F212001ED3E54C94BEE54BCA
:10176200940050F21229737F327E001229551229F9
:10177200EE122973300003021AAF300103021AAFCE
:10178200300203021AAFE4F50FF51012001EC3E592
:1017920010945FE50F940040F21229737F327E00AD
:1017A2001229551229EE300470900042E4F0A3741D
:1017B200AAF0120E53D3E54C94BEE54B940050F2BE
:1017C2001229731229737F327E00122955C280AF0B
:1017D20018AE171229557FF47E0112295530820363
:1017E200208309C2807FF47E011229557FE87E039F
:1017F200122955308203208309C2807FF47E0112B0
:101802002955D2807FF47E01122955122973900046
:1018120042E4F0A374B4F0801A900042E4F0A3749E
:10182200AAF0120E53D3E54C94BEE54B940050F24D
:101832001229732003030218C37F327E0012295536
:10184200122A20120E53D3E54C94AAE54B94005071
:10185200F2122973122973C280AF18AE17122955DA
:101862007FF47E01122955308203208309C2807FD2
:10187200F47E011229557FE87E0312295530820336
:10188200208309C2807FF47E01122955D2807FF421
:101892007E01122955122973900018E4F0A374AA4C
:1018A200F0122A3412001ED3E54C94D2E54B940078
:1018B20050F21229737F327E001229551229EE80CE
:1018C20013900018E4F0A374AAF07F967E00122908
:1018D20055122A3412297312001ED3E54C94E5E501
:1018E2004B940150F212001ED3E54C94C8E54B9480
:1018F2000050F21229737F327E00122955122A20DB
:10190200122973E4F50FF510120E53D3E5109478F3
:10191200E50F940040F21229737F327E001229559E
:10192200122A2A7F1E7E001229551229739000184E
:10193200E4F0A374A0F012001ED3E54C9458E54BDA
:10194200940250F212001ED3E54C9426E54B940209
:1019520050F212001ED3E54C948BE54B940150F2E9
:1019620012297312297312279B8E4B8F4C12279BBD
:101972008E4B8F4C12279B8E4B8F4C12279B8E4B7C
:101982008F4C12279BD3EF948BEE940150061229B1
:101992007312297312279B7D017C0012222C8E4B1D
:1019A2008F4C12279B7D017C0012222C8E4B8F4C78
:1019B20012279B7D017C0012222C8E4B8F4C12270A
:1019C2009B7D017C0012222C8E4B8F4C12279B7D1B
:1019D200017C0012222CD3EF948BEE648094815010
:1019E2000612297312297312279B7D017C00122291
:1019F2002C8E4B8F4C12279B7D017C0012222C8E49
:101A02004B8F4C12279B7D017C0012222C8E4B8F18
:101A12004C12279B7D017C0012222C8E4B8F4C1284
:101A2200279B7D017C0012222CD3EF948BEE6480E5
:101A32009481500612297312297312279B7D017C0F
:101A42000012222CD3EF948BEE64809481401F12FB
:101A5200279B7D017C0012222C8E4B8F4C12279BE0
:101A62007D017C0012222C8E4B8F4C0219461227CC
:101A72009B7D017C0012222CD3EF948BEE64809428
:101A82008150151229731229737F647E0012295521
:101A920012297312297380FE1229731229737F642B
:101AA2007E0012295512297312297380FEE4F50F64
:101AB200F51012001ED3E5109414E50F940040F2C5
:101AC20012001ED3E54A949AE549940140F2122984
:101AD20073122973E4F50FF510120E53C3E5109437
:101AE2003CE50F940040F21229737F327E001229E6
:101AF20055122973300241C280AF18AE1712295510
:101B02007FF47E01122955308203208309C2807F2F
:101B1200F47E011229557FE87E0312295530820393
:101B2200208309C2807FF47E01122955D2807FF47E
:101B32007E01122955122973200106200003021D7D
:101B42004D7F967E00122955122A201229737F3268
:101B52007E00122955900042E4F0A374B4F02001F3
:101B620003021C73E4F50FF510120E53C3E5109433
:101B720014E50F940040F2120E53D3E54C94BEE5E7
:101B82004B940050F21229731229737F327E001295
:101B92002955C280AF18AE171229557FF47E011263
:101BA2002955308203208309C2807FF47E011229E5
:101BB200557FE87E03122955308203208309C280B3
:101BC2007FF47E01122955D2807FF47E01122955BD
:101BD20012297330007A7F327E00122955122A2090
:101BE200120E53D3E54C94D2E54B940050F21229D5
:101BF200737F327E00122955122A20900042E4F0AF
:101C0200A374AFF0120E53D3E54C94AAE54B9400A3
:101C120050F2122973122973C280AF18AE1712291B
:101C2200557FF47E01122955308203208309C28038
:101C32007FF47E011229557FE87E031229553082F6
:101C420003208309C2807FF47E01122955021D3CC4
:101C52007F327E00122955122A3412001ED3E54C1F
:101C620094BEE54B940050F21229731229EE021D24
:101C7200AC12279B7D017C0012222C8E4B8F4C12C2
:101C8200279B7D017C0012222C8E4B8F4C12279BAE
:101C92007D017C0012222C8E4B8F4CE4F50FF51047
:101CA200120E53C3E5109414E50F940040F2120E85
:101CB20053C3E54C94BEE54B940050F21229739045
:101CC2000042E4F0A374AFF07F147E001229551293
:101CD2002A20120E53C3E54C94D2E54B940050F2E5
:101CE2001229737F147E00122955122A20120E53D4
:101CF200C3E54C94AAE54B940050F21229737F324B
:101D02007E00122955C280AF18AE171229557FF4F2
:101D12007E01122955308203208309C2807FF47E1E
:101D2200011229557FE87E03122955308203208350
:101D320009C2807FF47E01122955D2807FF47E0190
:101D4200122955122973122A20800C7F327E00122A
:101D52002955122A348053E4F50FF510120E53D38D
:101D6200E5109496E50F940040F2120E5312279B51
:101D72008E4B8F4CD3E54C94AAE54B940050EB125A
:101D820029737F327E00122955122A0012001ED3B7
:101D9200E54C94B4E54B940050F21229737F967E81
:101DA200001229551229EE122973E4F515F51612BF
:101DB200001E12272D8E4D8F4EC3E54E9490E54D99
:101DC2009401500A0516E516700905158005E4F51B
:101DD20015F516D3E54E942CE54D940150D1E51638
:101DE2009401E515940040C712001ED3E54A949071
:101DF200E549940140F2E4F50FF510120E53D3E5D4
:101E0200109437E50F940040F220030330042712A8
:101E120029731229737F327E00122955122A207FDC
:101E2200057E001229551229731229737F327E0012
:101E32001229550217A8E4F50FF510120E53D3E537
:101E4200109473E50F940040F21229737F327E00E2
:101E5200122955122A2A7F1E7E0012295590001837
:101E6200E4F0A374A0F012001ED3E54C9458E54BA5
:101E7200940250F212001ED3E54C9426E54B9402D4
:101E820050F212001ED3E54C948BE54B940150F2B4
:081E920012297312297380FE6E
:10257E00011101010E01011205020F0000020A05F0
:0D258E0037020C4263021305370208426356
:1029A200AD07AC06C3E49DFDE49CF58DAF05EFF5E4
:0429B2008BD28E2214
:1029B600AD07AC06C3E49DFDE49CF58CAF05EFF5D1
:0429C6008AD28C2203
:03000B000228CEFA
:1028CE00C0E0C0D075D000C004C005C006C007C2AD
:1028DE008CE51124FE6019047022D291751102AF9D
:1028EE000BAE0A1229B60510E5107010050F800CFC
:1028FE00C291751101AF0DAE0C1229B6D007D006DC
:09290E00D005D004D0D0D0E03295
:03001B00022917A0
:10291700C0E0C0D075D000C004C005C006C007C263
:102927008EE50E24FE600E047017D293750E02AF6B
:1029370014AE138009C293750E01AF09AE081229B0
:0E294700A2D007D006D005D004D0D0D0E03208
:1029CA00438901758CFF758AF6C28DD28CD2A9D241
:0229DA00AF222A
:1029DC00438910758DFF758BECC28FD28ED2ABD222
:0229EC00AF2218
:0E2A1200E4F5C8F5C9F5CDF5CCC2CAC2CF2295
:10279B00E4FFFEFDFCF5CDF5CCD2A200000000005D
:1027AB00000000000000000000000000000000C25C
:1027BB00A230A3FDD2CA20CF0320A3FAC2CA20A302
:1027CB002DD2A3AFCDEFFEADCCEDFFAC06E41221C5
:1027DB00277B7B7A14792E783E121F92122160ACE4
:1027EB0006AD07C3ED94DEEC9403400B800530CFB0
:0B27FB0006C2CF7C037DDEAE04AF05FC
:0128060022AF
:10272D00E4FFFEFDFCC2CFF5CDF5CCD2A600000036
:10273D00000000000000000000000000000000008C
:10274D0000C2A630A7FDD2CA20CF0320A7FAC2CA65
:10275D0020A72DD2A7AFCDEFFEADCCEDFFAC06E49B
:10276D001221277B7B7A14792E783E121F9212212B
:10277D0060AC06AD07C3ED94DEEC9403400B800511
:0D278D0030CF06C2CF7C037DDEAE04AF0569
:01279A00221C
:10280700E4FFFEFDFCF5CDF5CCD2A40000000000EE
:10281700000000000000000000000000000000C2EF
:10282700A430A5FDD2CA20CF0320A5FAC2CA20A58D
:102837002DD2A5AFCDEFFEADCCEDFFAC06E4122156
:10284700277B7B7A14792E783E121F92122160AC77
:1028570006AD07C3ED94DEEC9403400B800530CF43
:0B28670006C2CF7C037DDEAE04AF058F
:012872002243
:10295500D3EF9400EE940040147D707C00ED1D7063
:0D296500011CED4C70F7EF1F70E61E80E3C3
:012972002242
:03259B00011E001E
:10298C002090127F057E00122955209005C2927569
:06299C001E013090FD2237
:10259E00024F0000024D000002490000024B0000F5
:1025AE00022100000223000044007C0000000044D1
:1025BE00003E0000000044007000000000440000D7
:1025CE000000000044006C000000004400680000A1
:1025DE00000044008440A0000044008040A00000A1
:1025EE0044000C40200000440004401333334400E8
:1025FE000841000000440014400000004400104157
:10260E00F5999A4400783FF3333344007442200026
:10261E000042004200A042001800A0202425000025
:10262E00000000000000000000003C9374BC00009D
:10263E0000003D5E00D2000000000000000000001F
:10264E0000006024004400000000000000000000B4
:10265E0000003A83126F000000003C449BA600006D
:10266E00000000000000000000006024001A0000BE
:10267E00000000000000000000003A83126F00000E
:10268E0000003C449BA6000000000000000000007B
:02269E0000003A
:10222C008E1A8F1B8C1C8D1DE51C6003022529E565
:10223C001D24FE700302231B14700302241C2402B1
:10224C0060030225298544488543478542468541DC
:10225C0045AF34AE33AD32AC31AB2CAA2BA92AA886
:10226C0029121EA18F288E278D268C25AF34AE33D4
:10227C00AD32AC31AB28AA27A926A825121EA18FF6
:10228C00388E378D368C35AC1AAD1BEC122127AB42
:10229C0048AA47A946A845121E9DAB38AA37A936AD
:1022AC00A835121F92C004C005C006C007AF48AEC7
:1022BC0047AD46AC45122160AD07AC06EC122127A8
:1022CC00D003D002D001D000121EA18F408E3F8DC2
:1022DC003E8C3DAB38AA37A936A835E4FFFE7D808D
:1022EC007C3F121E9DAB28AA27A926A825121F9257
:1022FC008F308E2F8D2E8C2D8F2C8E2B8D2A8C2902
:10230C00854044853F43853E42853D4102252990C9
:10231C000060E0FCA3E0FDA3E0FEA3E0FFA312211C
:10232C00EF900050E0FCA3E0FDA3E0FEA3E0FF90E3
:10233C000048E0F8A3E0F9A3E0FAA3E0FB121EA129
:10234C009000441221EF900050E0FCA3E0FDA3E0CC
:10235C00FEA3E0FF900044E0F8A3E0F9A3E0FAA3A9
:10236C00E0FB121EA19000541221EFAC1AAD1BEC35
:10237C00122127900064E0F8A3E0F9A3E0FAA3E0AF
:10238C00FB121E9D900054E0F8A3E0F9A3E0FAA321
:10239C00E0FB121F92C004C005C006C00790006489
:1023AC00E0FCA3E0FDA3E0FEA3E0FF122160AD077B
:1023BC00AC06EC122127D003D002D001D000121EA3
:1023CC00A190005C1221EF900054E0F8A3E0F9A377
:1023DC00E0FAA3E0FBE4FFFE7D807C3F121E9D90A3
:1023EC000044E0F8A3E0F9A3E0FAA3E0FB121F928B
:1023FC0090004C1221EF90004CE0FCA3E0FDA3E018
:10240C00FEA3E0FF9000481221EF90005C02251A19
:10241C00900036E0FCA3E0FDA3E0FEA3E0FFA312D6
:10242C0021EF900026E0FCA3E0FDA3E0FEA3E0FF7B
:10243C0090001EE0F8A3E0F9A3E0FAA3E0FB121E63
:10244C00A190001A1221EF900026E0FCA3E0FDA35E
:10245C00E0FEA3E0FF90001AE0F8A3E0F9A3E0FA95
:10246C00A3E0FB121EA190002A1221EFAC1AAD1BA7
:10247C00EC12212790003AE0F8A3E0F9A3E0FAA3CC
:10248C00E0FB121E9D90002AE0F8A3E0F9A3E0FA0D
:10249C00A3E0FB121F92C004C005C006C007900049
:1024AC003AE0FCA3E0FDA3E0FEA3E0FF122160AD47
:1024BC0007AC06EC122127D003D002D001D00012B9
:1024CC001EA19000321221EF90002AE0F8A3E0F94F
:1024DC00A3E0FAA3E0FBE4FFFE7D807C3F121E9D8F
:1024EC0090001AE0F8A3E0F9A3E0FAA3E0FB121FB6
:1024FC00929000221221EF900022E0FCA3E0FDA3B9
:10250C00E0FEA3E0FF90001E1221EF900032E0FCF1
:10251C00A3E0FDA3E0FEA3E0FFA31221EFE51D6401
:10252C0001451C700AAF44AE43AD42AC41802EE570
:10253C001D6402451C7010900060E0FCA3E0FDA33C
:10254C00E0FEA3E0FF8016E51D6403451C701190AE
:10255C000036E0FCA3E0FDA3E0FEA3E0FF02216057
:04256C00E4FEFF2268
:082873007D727C067F727E0677
:10287B008E1A8F1BAE04AF05E41221277B0A7AD781
:10288B007963783F121F921221608E138F14C374D9
:10289B009A9514F50974479513F508AC1AAD1BE41A
:1028AB001221277B0A7AD77963783F121F92122164
:1028BB00608E0A8F0BC3749A950BF50D7447950AAE
:0328CB00F50C22E7
:10001E0085494F854A5012279B7D017C0012222C68
:10002E008E4B8F4C1228078E498F4A12272D8E4DDC
:10003E008F4ED3E54A947CE549940140177521050E
:10004E007522147523067524A4AD22AC21AF24AEFF
:10005E0023020E4F900018E0FEA3E0FFC3954AEE78
:10006E00954940030206EDC3E54A9FFDE5499EFC16
:10007E00E4122127900084E0F8A3E0F9A3E0FAA3AC
:10008E00E0FB121F9290006C1221EF900018E0FA24
:10009E00A3E0FBC3E54A9BFFE5499AFED3EF9432FA
:1000AE00EE940050030201E2900078E0FCA3E0FD24
:1000BE00A3E0FEA3E0FF9000841221EF900074E015
:1000CE00FCA3E0FDA3E0FEA3E0FF9000801221EF71
:1000DE00C3E54A9BFDE5499AFCE412212790008472
:1000EE00E0F8A3E0F9A3E0FAA3E0FB121F92900060
:1000FE006C1221EFC3E550954AFDE54F9549FCE49E
:10010E00122127900080E0F8A3E0F9A3E0FAA3E023
:10011E00FB121F929000681221EFC3E550954AFF23
:10012E00E54F9549FED3EF9400EE940040537F00C7
:10013E007E807DA27C4490006CE0F8A3E0F9A3E001
:10014E00FAA3E0FB121EA1900068E0F8A3E0F9A369
:10015E00E0FAA3E0FB121E9D1221608E218F22C3B6
:10016E00E52294DCE521940540067521057522AA49
:10017E007523067524A4AC21AD227FA47E06020E43
:10018E004F7F007E807DA27C4490006CE0F8A3E05F
:10019E00F9A3E0FAA3E0FB121EA1900068E0F8A319
:1001AE00E0F9A3E0FAA3E0FB121E9D1221608E215E
:1001BE008F22C3E52294DCE52194054006752105C6
:1001CE007522AA7523067524A4AC21AD227FA47EC8
:1001DE0006020E4F900018E0FEA3E0FFC3E54A9F13
:1001EE00FDE5499EFCE4122127900084E0F8A3E08F
:1001FE00F9A3E0FAA3E0FB121F9290006C1221EF1C
:10020E00900018E0FAA3E0FBC3E54A9BFFE5499A8C
:10021E00FED3EF941EEE940050030203A39000143D
:10022E00E0FCA3E0FDA3E0FEA3E0FF90008412211A
:10023E00EF900010E0FCA3E0FDA3E0FEA3E0FF9032
:10024E0000801221EFC3E54A9BFDE5499AFCE412BA
:10025E002127900084E0F8A3E0F9A3E0FAA3E0FBE5
:10026E00121F9290006C1221EFC3E550954AFDE5E6
:10027E004F9549FCE4122127900080E0F8A3E0F9A5
:10028E00A3E0FAA3E0FB121F929000681221EFC3C5
:10029E00E550954AFFE54F9549FED3EF9400EE9455
:1002AE000050030203507466FFFEFD7C3F90006C0D
:1002BE00E0F8A3E0F9A3E0FAA3E0FB121F9290008E
:1002CE0068E0F8A3E0F9A3E0FAA3E0FB122098405F
:1002DE001E7466FFFEFD7C3F90006CE0F8A3E0F913
:1002EE00A3E0FAA3E0FB121F929000681221EF7FA9
:1002FE00007E807DA27C4490006CE0F8A3E0F9A320
:10030E00E0FAA3E0FB121EA1900068E0F8A3E0F96A
:10031E00A3E0FAA3E0FB121E9D1221608E218F2214
:10032E00C3E52294DCE5219405400675210575226E
:10033E00AA7523067524A4AC21AD227FA47E0602E5
:10034E000E4F7F007E807DA27C4490006CE0F8A36F
:10035E00E0F9A3E0FAA3E0FB121EA1900068E0F81A
:10036E00A3E0F9A3E0FAA3E0FB121E9D1221608E1A
:10037E00218F22C3E52294DCE521940540067521E8
:10038E00057522AA7523067524A4AC21AD227FA47F
:10039E007E06020E4F90000CE0FCA3E0FDA3E0FEF3
:1003AE00A3E0FF9000841221EF900008E0FCA3E090
:1003BE00FDA3E0FEA3E0FF9000801221EF90001855
:1003CE00E0FEA3E0FFC3E54A9FFDE5499EFCE41273
:1003DE002127900084E0F8A3E0F9A3E0FAA3E0FB64
:1003EE00121F9290006C1221EFC3E550954AFDE565
:1003FE004F9549FCE4122127900080E0F8A3E0F924
:10040E00A3E0FAA3E0FB121F929000681221EF9076
:10041E000018E0FEA3E0FFC3E54A9FFDE5499EFC00
:10042E00E412212790003E1221EF90003EE0FCA343
:10043E00E0FDA3E0FEA3E0FFE4FBFA797078411241
:10044E002098500302053EE4FFFE7DA07C40900004
:10045E007CE0F8A3E0F9A3E0FAA3E0FB1220986099
:10046E0005400302053EE4FFFE7D807C4090007C4B
:10047E00E0F8A3E0F9A3E0FAA3E0FB122098503CC9
:10048E00900000E0F8A3E0F9A3E0FAA3E0FBC000BF
:10049E00C001C002C0037F9A7E997D997C3E900078
:1004AE003EE0F8A3E0F9A3E0FAA3E0FB121F92D01E
:1004BE0003D002D001D000121EA1802990003EE090
:1004CE00FCA3E0FDA3E0FEA3E0FF900000E0F8A394
:1004DE00E0F9A3E0FAA3E0FB121EA17433FBFAF9D4
:1004EE00783F121F929000001221EF900004E0FC62
:1004FE00A3E0FDA3E0FEA3E0FF900000E0F8A3E080
:10050E00F9A3E0FAA3E0FB121F929000701221EF04
:10051E0090007CE0FCA3E0FDA3E0FEA3E0FFE4FB83
:10052E00FA7980783F121EA190007C1221EF805440
:10053E0090003EE0FCA3E0FDA3E0FEA3E0FFE4FBA1
:10054E00FA79707841122098401CE4FFFE7DA07C61
:10055E004090007CE0F8A3E0F9A3E0FAA3E0FB12E0
:10056E0020986020401E9000001221FB0000000029
:10057E009000701221FB0000000090007C1221FB05
:10058E0000000000C3E550954AFFE54F9549FED3A4
:10059E00EF9400EE940050030206287F9A7E997D18
:1005AE00997C3E900068E0F8A3E0F9A3E0FAA3E09E
:1005BE00FB121F92C004C005C006C0077F007E80DC
:1005CE007DD47C4490006CE0F8A3E0F9A3E0FAA39C
:1005DE00E0FB121EA1D003D002D001D000121E9D4E
:1005EE00900070E0F8A3E0F9A3E0FAA3E0FB121E7E
:1005FE00A11221608E238F24D3E52494DCE523946D
:10060E0005500675230675240E752105752214AE48
:10061E0023AF247D147C05020E4FC3E550954AE5A9
:10062E004F9549C3940050647F007E807DA27C4428
:10063E0090006CE0F8A3E0F9A3E0FAA3E0FB121E31
:10064E00A1900068E0F8A3E0F9A3E0FAA3E0FB12A2
:10065E001E9D900070E0F8A3E0F9A3E0FAA3E0FB82
:10066E00121EA11221608E218F22C3E52294DCE599
:10067E0021940540067521057522AA752306752459
:10068E00A4AC21AD227FA47E06020E4F7F007E8099
:10069E007DA27C4490006CE0F8A3E0F9A3E0FAA3FD
:1006AE00E0FB121EA1900070E0F8A3E0F9A3E0FABF
:1006BE00A3E0FB121EA11221608E218F22C3E52220
:1006CE0094DCE521940540067521057522AA752353
:1006DE00067524A4AC21AD227FA47E06020E4F9097
:1006EE000018E0FEA3E0FFD3954AEE9549500302B1
:1006FE000E3BEF954AFDEE9549FCE4122127900042
:10070E0084E0F8A3E0F9A3E0FAA3E0FB121F9290B5
:10071E00006C1221EF900018E0FAA3E0FBC3954A9B
:10072E00FFEA9549FED3EF9432EE9400500302088F
:10073E00F7900078E0FCA3E0FDA3E0FEA3E0FF90BD
:10074E0000841221EF900074E0FCA3E0FDA3E0FE14
:10075E00A3E0FF9000801221EFC3EB954AFDEA95CE
:10076E0049FCE4122127900084E0F8A3E0F9A3E00D
:10077E00FAA3E0FB121F9290006C1221EFC3E5501A
:10078E00954AFDE54F9549FCE4122127900080E043
:10079E00F8A3E0F9A3E0FAA3E0FB121F9290006821
:1007AE001221EFC3E550954AFFE54F9549FED3EF71
:1007BE009400EE9400407B90000CE0FCA3E0FDA3BF
:1007CE00E0FEA3E0FF9000841221EF900008E0FC11
:1007DE00A3E0FDA3E0FEA3E0FF9000801221EF90C6
:1007EE00006CE0F8A3E0F9A3E0FAA3E0FB7F007E43
:1007FE00807DD47C44121E9D900068E0F8A3E0F941
:10080E00A3E0FAA3E0FB121E9D1221608E238F241B
:10081E00D3E52494DCE52394055006752306752450
:10082E000E752105752214AE23AF247D147C0502AE
:10083E000E4F7466FFFEFD7C3F90006CE0F8A3E067
:10084E00F9A3E0FAA3E0FB121F92C004C005C00694
:10085E00C007900068E0FCA3E0FDA3E0FEA3E0FF6C
:10086E00122111A804A905AA06AB07D007D006D0FD
:10087E0005D004122098401E7466FFFEFD7CBF90CA
:10088E00006CE0F8A3E0F9A3E0FAA3E0FB121F92DC
:10089E009000681221EF90006CE0F8A3E0F9A3E05D
:1008AE00FAA3E0FB7F007E807DD47C44121E9D90D7
:1008BE000068E0F8A3E0F9A3E0FAA3E0FB121E9DA6
:1008CE001221608E238F24D3E52494DCE523940536
:1008DE00500675230675240E752105752214AE2358
:1008EE00AF247D147C05020E4F900018E0FAA3E0B1
:1008FE00FBC3954AFFEA9549FED3EF941EEE940092
:10090E005003020ACB900014E0FCA3E0FDA3E0FE2E
:10091E00A3E0FF9000841221EF900010E0FCA3E012
:10092E00FDA3E0FEA3E0FF9000801221EFC3EB9544
:10093E004AFDEA9549FCE4122127900084E0F8A3D1
:10094E00E0F9A3E0FAA3E0FB121F9290006C1221D3
:10095E00EFC3E550954AFDE54F9549FCE41221277A
:10096E00900080E0F8A3E0F9A3E0FAA3E0FB121FE9
:10097E00929000681221EFC3E550954AFFE54F951E
:10098E0049FED3EF9400EE9400407B90000CE0FC07
:10099E00A3E0FDA3E0FEA3E0FF9000841221EF9000
:1009AE000008E0FCA3E0FDA3E0FEA3E0FF900080C2
:1009BE001221EF90006CE0F8A3E0F9A3E0FAA3E0B7
:1009CE00FB7F007E807DD47C44121E9D900068E0EB
:1009DE00F8A3E0F9A3E0FAA3E0FB121E9D1221603A
:1009EE008E238F24D3E52494DCE5239405500675DD
:1009FE00230675240E752105752214AE23AF247DB2
:100A0E00147C05020E4F7466FFFEFD7C3F90006C59
:100A1E00E0F8A3E0F9A3E0FAA3E0FB121F92C004F2
:100A2E00C005C006C007900068E0FCA3E0FDA3E08F
:100A3E00FEA3E0FF122111A804A905AA06AB07D058
:100A4E0007D006D005D004122098401E7466FFFE13
:100A5E00FD7CBF90006CE0F8A3E0F9A3E0FAA3E000
:100A6E00FB121F929000681221EF90006CE0F8A329
:100A7E00E0F9A3E0FAA3E0FB7F007E807DD47C4406
:100A8E00121E9D900068E0F8A3E0F9A3E0FAA3E03F
:100A9E00FB121E9D1221608E238F24D3E52494DC3D
:100AAE00E5239405500675230675240E75210575EC
:100ABE002214AE23AF247D147C05020E4F90000C41
:100ACE00E0FCA3E0FDA3E0FEA3E0FF900084122172
:100ADE00EF900008E0FCA3E0FDA3E0FEA3E0FF9092
:100AEE0000801221EFC3900019E0954AFD90001886
:100AFE00E09549FCE4122127900084E0F8A3E0F988
:100B0E00A3E0FAA3E0FB121F9290006C1221EFC338
:100B1E00E550954AFDE54F9549FCE41221279000DA
:100B2E0080E0F8A3E0F9A3E0FAA3E0FB121F929095
:100B3E0000681221EFC3900019E0954AFD9000184D
:100B4E00E09549FCE412212790003E1221EF90001F
:100B5E003EE0FCA3E0FDA3E0FEA3E0FFE4FBFA7998
:100B6E007078411220985003020C63E4FFFE7DA0C2
:100B7E007C4090007CE0F8A3E0F9A3E0FAA3E0FB50
:100B8E0012209860054003020C63E4FFFE7D407C5A
:100B9E004090007CE0F8A3E0F9A3E0FAA3E0FB129A
:100BAE002098503C900000E0F8A3E0F9A3E0FAA3EF
:100BBE00E0FBC000C001C002C0037F9A7E997D9900
:100BCE007C3E90003EE0F8A3E0F9A3E0FAA3E0FB40
:100BDE00121F92D003D002D001D000121EA1802A83
:100BEE0090003EE0FCA3E0FDA3E0FEA3E0FF90003A
:100BFE0000E0F8A3E0F9A3E0FAA3E0FB121EA17B4C
:100C0E009A7A997919783F121F929000001221EF6B
:100C1E00900004E0FCA3E0FDA3E0FEA3E0FF900043
:100C2E0000E0F8A3E0F9A3E0FAA3E0FB121F929014
:100C3E0000701221EF90007CE0FCA3E0FDA3E0FE2B
:100C4E00A3E0FFE4FBFA7980783F121EA190007CAE
:100C5E001221EF805490003EE0FCA3E0FDA3E0FEE5
:100C6E00A3E0FFE4FBFA79707841122098401CE46F
:100C7E00FFFE7DA07C4090007CE0F8A3E0F9A3E0AD
:100C8E00FAA3E0FB1220986020401E900000122173
:100C9E00FB000000009000701221FB00000000908D
:100CAE00007C1221FB00000000C3E550954AFFE5D1
:100CBE004F9549FED3EF9400EE94005003020D5A67
:100CCE0090000CE0FCA3E0FDA3E0FEA3E0FF90008B
:100CDE00841221EF900008E0FCA3E0FDA3E0FEA348
:100CEE00E0FF9000801221EF90006CE0F8A3E0F995
:100CFE00A3E0FAA3E0FB7F007E807DD47C44121E2D
:100D0E009D900068E0F8A3E0F9A3E0FAA3E0FB12DF
:100D1E001E9D900070E0F8A3E0F9A3E0FAA3E0FBBB
:100D2E00121E9D1221608E238F24D3E52494DCE5C0
:100D3E00239405500675230675240E75210575221C
:100D4E0014AE23AF247D147C05020E4FC3E55095DF
:100D5E004AE54F9549C394004003020DE97F9A7E00
:100D6E00997D997C3E900068E0F8A3E0F9A3E0FA43
:100D7E00A3E0FB121F92C004C005C006C00790007E
:100D8E006CE0F8A3E0F9A3E0FAA3E0FB7F007E801D
:100D9E007DA27C44121E9DD003D002D001D0001241
:100DAE001E9D900070E0F8A3E0F9A3E0FAA3E0FB2B
:100DBE00121E9D1221608E218F22C3E52294DCE546
:100DCE0021940540067521057522AA752306752402
:100DDE00A4AC21AD227FA47E06806690006CE0F864
:100DEE00A3E0F9A3E0FAA3E0FB7F007E807DD47C34
:100DFE0044121E9D900070E0F8A3E0F9A3E0FAA360
:100E0E00E0FB121E9D1221608E238F24D3E52494C5
:100E1E00DCE5239405500675230675240E75210511
:100E2E00752214AE23AF247D147C05801490001817
:100E3E00E0B54910A3E0B54A0B7D147C057FA47E76
:050E4E000612287B22C2
:100E5300854D4F854E5012279B7D017C0012222C1D
:100E63008E4B8F4C1228078E498F4A12272D8E4D99
:100E73008F4ED3E54E945EE54D94014013752105E5
:100E83007522147523067524A4AD22AC210215FE28
:100E9300900042E0FEA3E0FFC3954EEE954D500354
:100EA3000212A2EF954EFDEE954DFCE41221279020
:100EB3000084E0F8A3E0F9A3E0FAA3E0FB121F9299
:100EC30090006C1221EF900042E0FAA3E0FBC3957F
:100ED3004EFFEA954DFED3EF9432EE940050030299
:100EE3000F79900078E0FCA3E0FDA3E0FEA3E0FF10
:100EF3009000841221EF900074E0FCA3E0FDA3E0D6
:100F0300FEA3E0FF9000801221EF9000681221FB06
:100F130000000000C3EB954EFDEA954DFCE4122161
:100F230027900084E0F8A3E0F9A3E0FAA3E0FB1222
:100F33001F9290006C1221EF7F007E807DA27C4483
:100F430090006CE0F8A3E0F9A3E0FAA3E0FB121E23
:100F5300A11221608E218F22C3E52294DCE5219426
:100F63000540067521057522AA7523067524A4ACD0
:100F730021AD220215FE900042E0FAA3E0FBC395E7
:100F83004EFFEA954DFED3EF941EEE9400500302FC
:100F9300111D900014E0FCA3E0FDA3E0FEA3E0FF1D
:100FA3009000841221EF900010E0FCA3E0FDA3E089
:100FB300FEA3E0FF9000801221EFC3EB954EFDEA04
:100FC300954DFCE4122127900084E0F8A3E0F9A3F7
:100FD300E0FAA3E0FB121F9290006C1221EFC3E52D
:100FE30050954EFDE54F954DFCE41221279000806E
:100FF300E0F8A3E0F9A3E0FAA3E0FB121F9290004C
:10100300681221EFC3E550954EFFE54F954DFED392
:10101300EF9400EE9400404F7F007E807DA27C44DD
:1010230090006CE0F8A3E0F9A3E0FAA3E0FB121E42
:10103300A1900068E0F8A3E0F9A3E0FAA3E0FB12B3
:101043001EA11221608E218F22C3E52294DCE521AB
:10105300940540067521057522AA7523067524A4F7
:10106300AC21AD220215FE7466FFFEFD7C3F9000AD
:101073006CE0F8A3E0F9A3E0FAA3E0FB121F92C02F
:1010830004C005C006C007900068E0FCA3E0FDA310
:10109300E0FEA3E0FF122111A804A905AA06AB07ED
:1010A300D007D006D005D004122098401E7466FFE6
:1010B300FEFD7CBF90006CE0F8A3E0F9A3E0FAA387
:1010C300E0FB121F929000681221EF7F007E807D6B
:1010D300A27C4490006CE0F8A3E0F9A3E0FAA3E05B
:1010E300FB121EA1900068E0F8A3E0F9A3E0FAA3C5
:1010F300E0FB121EA11221608E218F22C3E52294F0
:10110300DCE521940540067521057522AA752306A1
:101113007524A4AC21AD220215FE90000CE0FCA3C3
:10112300E0FDA3E0FEA3E0FF9000841221EF900016
:1011330008E0FCA3E0FDA3E0FEA3E0FF9000801223
:1011430021EFC3900043E0954EFD900042E0954DA2
:10115300FCE4122127900084E0F8A3E0F9A3E0FA6D
:10116300A3E0FB121F9290006C1221EFC3E5509590
:101173004EFDE54F954DFCE4122127900080E0F8E9
:10118300A3E0F9A3E0FAA3E0FB121F929000681218
:1011930021EFC3E550954EFFE54F954DFED3EF94F8
:1011A30000EE9400404F7F007E807DA27C4490003F
:1011B3006CE0F8A3E0F9A3E0FAA3E0FB121EA19010
:1011C3000068E0F8A3E0F9A3E0FAA3E0FB121EA194
:1011D3001221608E218F22C3E52294DCE521940540
:1011E30040067521057522AA7523067524A4AC2132
:1011F300AD220215FEC3E550954EE54F954DC394C0
:1012030000505E7F007E807DD47C4490006CE0F8CB
:10121300A3E0F9A3E0FAA3E0FB121EA1C004C005FA
:10122300C006C007E4FFFEFD7C3F900068E0F8A322
:10123300E0F9A3E0FAA3E0FB121F92D003D002D09F
:1012430001D000121EA11221608E238F24D3E52426
:1012530094DCE5239405500675230675240E0216C7
:101263006F7F007E807DA27C4490006CE0F8A3E059
:10127300F9A3E0FAA3E0FB121EA11221608E218FD5
:1012830022C3E52294DCE52194054006752105750A
:1012930022AA7523067524A4AC21AD220215FE9063
:1012A3000042E0FEA3E0FFC3E54E9FFDE54D9EFC3B
:1012B300E4122127900084E0F8A3E0F9A3E0FAA365
:1012C300E0FB121F9290006C1221EF900042E0FAB3
:1012D300A3E0FBC3E54E9BFFE54D9AFED3EF9432AB
:1012E300EE94005003021375900078E0FCA3E0FD38
:1012F300A3E0FEA3E0FF9000841221EF900074E0CE
:10130300FCA3E0FDA3E0FEA3E0FF9000801221EF29
:10131300C3E54E9BFDE54D9AFCE412212790008422
:10132300E0F8A3E0F9A3E0FAA3E0FB121F92900018
:101333006C1221EF9000681221FB00000000900066
:101343006CE0F8A3E0F9A3E0FAA3E0FB7F007E8062
:101353007DD47C44121E9D1221608E238F24D3E5FD
:101363002494DCE5239405500675230675240E02A8
:10137300166F900042E0FAA3E0FBC3E54E9BFFE546
:101383004D9AFED3EF941EEE94005003021509907C
:101393000014E0FCA3E0FDA3E0FEA3E0FF900084C3
:1013A3001221EF900010E0FCA3E0FDA3E0FEA3E018
:1013B300FF9000801221EFC3E54E9BFDE54D9AFCA3
:1013C300E4122127900084E0F8A3E0F9A3E0FAA354
:1013D300E0FB121F9290006C1221EFC3E550954E73
:1013E300FDE54F954DFCE4122127900080E0F8A322
:1013F300E0F9A3E0FAA3E0FB121F92900068122128
:10140300EFC3E550954EFFE54F954DFED3EF9400A6
:10141300EE940050030214A97466FFFEFD7C3F9016
:10142300006CE0F8A3E0F9A3E0FAA3E0FB121F923B
:10143300900068E0F8A3E0F9A3E0FAA3E0FB122030
:1014430098401E7466FFFEFD7C3F90006CE0F8A39D
:10145300E0F9A3E0FAA3E0FB121F929000681221C7
:10146300EF90006CE0F8A3E0F9A3E0FAA3E0FB7FC0
:10147300007E807DD47C44121E9D900068E0F8A31A
:10148300E0F9A3E0FAA3E0FB121EA11221608E2370
:101493008F24D3E52494DCE52394055006752306B5
:1014A30075240E02166F90006CE0F8A3E0F9A3E038
:1014B300FAA3E0FB7F007E807DD47C44121E9DC096
:1014C30004C005C006C0077FCD7ECC7D4C7C3F9019
:1014D3000068E0F8A3E0F9A3E0FAA3E0FB121F928F
:1014E300D003D002D001D000121EA11221608E239E
:1014F3008F24D3E52494DCE5239405500675230655
:1015030075240E02166F90000CE0FCA3E0FDA3E02F
:10151300FEA3E0FF9000841221EF900008E0FCA3FB
:10152300E0FDA3E0FEA3E0FF9000801221EF900016
:1015330042E0FEA3E0FFC3E54E9FFDE54D9EFCE4C4
:10154300122127900084E0F8A3E0F9A3E0FAA3E0D6
:10155300FB121F9290006C1221EFC3E550954EFDD4
:10156300E54F954DFCE4122127900080E0F8A3E0BD
:10157300F9A3E0FAA3E0FB121F929000681221EF97
:10158300C3E550954EFFE54F954DFED3EF9400EE26
:101593009400406E90006CE0F8A3E0F9A3E0FAA396
:1015A300E0FB7F007E807DA27C44121E9DC004C0B0
:1015B30005C006C0077F9A7E997D197C3F9000681D
:1015C300E0F8A3E0F9A3E0FAA3E0FB121F92D00333
:1015D300D002D001D000121EA11221608E218F22D1
:1015E300C3E52294DCE521940540067521057522A7
:1015F300AA7523067524A4AC21AD22AF24AE230221
:1016030016BEC3E550954EE54F954DC39400506CFF
:1016130090006CE0F8A3E0F9A3E0FAA3E0FB7F00FD
:101623007E807DD47C44121E9DC004C005C006C0CC
:10163300077466FFFEFD7C3F900068E0F8A3E0F9C5
:10164300A3E0FAA3E0FB121F92D003D002D001D093
:1016530000121EA11221608E238F24D3E52494DC73
:10166300E5239405500675230675240E752105752B
:101673002214AE23AF24AD22AC21803F90006CE056
:10168300F8A3E0F9A3E0FAA3E0FB7F007E807DD41A
:101693007C44121E9D1221608E238F24D3E5249453
:1016A300DCE5239405500675230675240E75210584
:0F16B300752214AE23AF24AD22AC2112287B2266
:10297300750A05750B37750C42750D63751305756F
:092983001437750842750963223E
:0B000E007D197C057F6F7E0602287BB9
:1029EE007D467C057F467E0512287B7F907E010208
:0229FE00295559
:102A00007D467C057F467E0512287B7F547E010231
:022A1000295546
:0A2A20001228737F687E0102295519
:0A2A2A001228737F547E0102295523
:0A2A34001228737FF87E0202295574
:101E9A000221CCE86480F8E933E83360110460F089
:101EAA00ED33EC337009E8FCE9FDEAFEEBFF2204AE
:101EBA0060DED3EB9FEA9EE99DE8C2E78CF0C2F7A9
:101ECA0095F0400CE8CCF8E9CDF9EACEFAEBCFFB75
:101EDA0012219785D0F05804700320D5B3E8047016
:101EEA00075002B2D50221D692D5EC0460F7E4CCB1
:101EFA00C0E0C398F8603B94186008400DD0E0FB3E
:101F0A000221AEE4FBFAC9FC8028E830E406E4C901
:101F1A00FBE4CAFCE830E305E4C9CACBFCE8540791
:101F2A006010F8C3E913F9EA13FAEB13FBEC13FC9C
:101F3A00D8F130F52FC3E49CFCEF9BFFEE9AFEED3F
:101F4A0099FDD0E0FBEF4E4D4C701222DB030221CB
:101F5A00D3EC2CFCEF33FFEE33FEED33FDED30E72F
:101F6A00EB0221AEEF2BFFEE3AFEED39FDD0E0FB9E
:101F7A0050130BBB00030221D6ED13FDEE13FEEF47
:081F8A0013FFEC13FC0221AE71
:101F9200EC4D6011E8497017ED33EC3304600DE449
:101FA200FCFFFEFD22E933E8330470F80221CC1273
:101FB200219758046009E4CC248150062850090274
:101FC20021D62840030221D3C0E0EB4A7044B980F5
:101FD20006D0E0FB0221C2EF4E701CBD8008EBFF71
:101FE200EAFEE9FD80EBE98DF0A4FEE5F002207B3C
:101FF200E9CDF9EAFEEBFFEF89F0A4FCE5F0CE892A
:10200200F0A42EFFE435F0CD89F0A42DFEE435F0E6
:102012008067EF4E7005BD80D780C3EF8BF0A4AC14
:10202200F0EE8BF0A42CFCE435F0F8EF8AF0A42C4F
:10203200E5F038FCE433CB8DF0A42CFCE5F03BF862
:10204200EE8AF0A42CFCE5F038F8E433CF89F0A452
:102052002CFCE5F038CF3400CE89F0A42FFFE5F058
:102062003EFEE433C98DF0A42EFEE5F039CD8AF0B0
:10207200A42FFFE5F03EFEE43DFD33D0E0FB500728
:102082000BBB000F0221D6EC2CFCEF33FFEE33FE2C
:06209200ED33FD0221AE5A
:1020980074F8CC6480CCC86480C8F58204604FC3EF
:1020A800EB9FF5F0EA9E42F0E99D42F0E89C45F08E
:1020B800603C501DE5825FFFE582D313CB5BCBF418
:1020C8002B5582FB50280ABA002409B90020088041
:1020D8001DE5825BFBE582D313CF5FCFF4C3132FDB
:1020E8005582FF50090EBE00050DBD00010CC3EB63
:1020F8009FF5F0EA9E42F0E99D42F0E89C45F060C9
:0921080007CC4820E701B3EC22EA
:10211100ED33EC33600A047003BD8004ECB2E7FCDC
:01212100229B
:1021220075F020800E75F010800575F0087D007E38
:10213200007F003392D530D5031221E1EC334010F9
:10214200EF33FFEE33FEED33FDEC33FCD5F0ED2241
:0E215200E5F0247EA2D513CC92E7CDCEFF227D
:10216000EDD2E7CD33EC3392D524814006E4FFFE77
:10217000FDFC22FCE4CFCECDCC24E0501174FF80D6
:10218000EDC3CC13CCCD13CDCE13CECF13CF047073
:07219000F030D5DE0221E171
:10219700E9D2E7C933E833F892D5EDD2E7CD33EC8E
:0721A70033FC5002B2D52207
:1021AE00EC30E7100FBF000C0EBE00080DBD000492
:1021BE000BEB6014A2D5EB13FCED92E7FD2274FF3E
:1021CE00FCFDFEFF22E480F8A2D574FF13FC7D8097
:0321DE00E480EFAB
:030000000226A134
:0C26A100787FE4F6D8FD7581500226E831
:0E21E100C3E49FFFE49EFEE49DFDE49CFC220F
:0C21EF00ECF0A3EDF0A3EEF0A3EFF02263
:1021FB00A8828583F0D083D082122212122212126F
:10220B002212122212E473E493A3C583C5F0C58393
:10221B00C8C582C8F0A3C583C5F0C583C8C582C82D
:01222B002290
:1026AD000216C2E493A3F8E493A34003F68001F26B
:1026BD0008DFF48029E493A3F85407240CC8C3332E
:1026CD00C4540F4420C8834004F456800146F6DFFD
:1026DD00E4800B0102040810204080902570E47EF8
:1026ED00019360BCA3FF543F30E509541FFEE493F2
:1026FD00A360010ECF54C025E060A840B8E493A3B9
:10270D00FAE493A3F8E493A3C8C582C8CAC583CAE3
:10271D00F0A3C8C582C8CAC583CADFE9DEE780BE9B
:0126A0000039
:00000001FF
